{
  "contractName": "Login",
  "abi": [
    {
      "inputs": [
        {
          "internalType": "address",
          "name": "_registerContract",
          "type": "address"
        }
      ],
      "stateMutability": "nonpayable",
      "type": "constructor"
    },
    {
      "inputs": [
        {
          "internalType": "address",
          "name": "addressuser",
          "type": "address"
        },
        {
          "internalType": "string",
          "name": "password",
          "type": "string"
        }
      ],
      "name": "login",
      "outputs": [
        {
          "internalType": "bool",
          "name": "isCorrect",
          "type": "bool"
        },
        {
          "internalType": "string",
          "name": "userNature",
          "type": "string"
        },
        {
          "internalType": "string",
          "name": "errorMessage",
          "type": "string"
        },
        {
          "internalType": "string",
          "name": "username",
          "type": "string"
        }
      ],
      "stateMutability": "view",
      "type": "function",
      "constant": true
    }
  ],
  "bytecode": "0x608060405234801561001057600080fd5b50604051610a74380380610a748339818101604052810190610032919061008d565b806000806101000a81548173ffffffffffffffffffffffffffffffffffffffff021916908373ffffffffffffffffffffffffffffffffffffffff160217905550506100ff565b600081519050610087816100e8565b92915050565b60006020828403121561009f57600080fd5b60006100ad84828501610078565b91505092915050565b60006100c1826100c8565b9050919050565b600073ffffffffffffffffffffffffffffffffffffffff82169050919050565b6100f1816100b6565b81146100fc57600080fd5b50565b6109668061010e6000396000f3fe608060405234801561001057600080fd5b506004361061002b5760003560e01c80632f19d50b14610030575b600080fd5b61004a600480360381019061004591906105e1565b610063565b60405161005a9493929190610730565b60405180910390f35b600060608060608573ffffffffffffffffffffffffffffffffffffffff1660008054906101000a900473ffffffffffffffffffffffffffffffffffffffff1673ffffffffffffffffffffffffffffffffffffffff1663602b386e886040518263ffffffff1660e01b81526004016100da9190610715565b60006040518083038186803b1580156100f257600080fd5b505afa158015610106573d6000803e3d6000fd5b505050506040513d6000823e3d601f19601f8201168201806040525081019061012f9190610635565b6020015173ffffffffffffffffffffffffffffffffffffffff1614801561022c57508460405160200161016291906106fe565b6040516020818303038152906040528051906020012060008054906101000a900473ffffffffffffffffffffffffffffffffffffffff1673ffffffffffffffffffffffffffffffffffffffff1663602b386e886040518263ffffffff1660e01b81526004016101d19190610715565b60006040518083038186803b1580156101e957600080fd5b505afa1580156101fd573d6000803e3d6000fd5b505050506040513d6000823e3d601f19601f820116820180604052508101906102269190610635565b60400151145b156103b557600160008054906101000a900473ffffffffffffffffffffffffffffffffffffffff1673ffffffffffffffffffffffffffffffffffffffff1663602b386e886040518263ffffffff1660e01b815260040161028c9190610715565b60006040518083038186803b1580156102a457600080fd5b505afa1580156102b8573d6000803e3d6000fd5b505050506040513d6000823e3d601f19601f820116820180604052508101906102e19190610635565b6060015160008054906101000a900473ffffffffffffffffffffffffffffffffffffffff1673ffffffffffffffffffffffffffffffffffffffff1663602b386e896040518263ffffffff1660e01b815260040161033e9190610715565b60006040518083038186803b15801561035657600080fd5b505afa15801561036a573d6000803e3d6000fd5b505050506040513d6000823e3d601f19601f820116820180604052508101906103939190610635565b60000151604051806020016040528060008152509093509350935093506103f9565b60006040518060200160405280600081525060405180606001604052806026815260200161090b602691396040518060200160405280600081525093509350935093505b92959194509250565b6000610415610410846107bb565b61078a565b90508281526020810184848401111561042d57600080fd5b61043884828561085a565b509392505050565b600061045361044e846107bb565b61078a565b90508281526020810184848401111561046b57600080fd5b610476848285610869565b509392505050565b60008135905061048d816108dc565b92915050565b6000815190506104a2816108dc565b92915050565b6000815190506104b7816108f3565b92915050565b600082601f8301126104ce57600080fd5b81356104de848260208601610402565b91505092915050565b600082601f8301126104f857600080fd5b8151610508848260208601610440565b91505092915050565b600060a0828403121561052357600080fd5b61052d60a061078a565b9050600082015167ffffffffffffffff81111561054957600080fd5b610555848285016104e7565b600083015250602061056984828501610493565b602083015250604061057d848285016104a8565b604083015250606082015167ffffffffffffffff81111561059d57600080fd5b6105a9848285016104e7565b606083015250608082015167ffffffffffffffff8111156105c957600080fd5b6105d5848285016104e7565b60808301525092915050565b600080604083850312156105f457600080fd5b60006106028582860161047e565b925050602083013567ffffffffffffffff81111561061f57600080fd5b61062b858286016104bd565b9150509250929050565b60006020828403121561064757600080fd5b600082015167ffffffffffffffff81111561066157600080fd5b61066d84828501610511565b91505092915050565b61067f81610812565b82525050565b61068e81610824565b82525050565b600061069f826107eb565b6106a981856107f6565b93506106b9818560208601610869565b6106c2816108cb565b840191505092915050565b60006106d8826107eb565b6106e28185610807565b93506106f2818560208601610869565b80840191505092915050565b600061070a82846106cd565b915081905092915050565b600060208201905061072a6000830184610676565b92915050565b60006080820190506107456000830187610685565b81810360208301526107578186610694565b9050818103604083015261076b8185610694565b9050818103606083015261077f8184610694565b905095945050505050565b6000604051905081810181811067ffffffffffffffff821117156107b1576107b061089c565b5b8060405250919050565b600067ffffffffffffffff8211156107d6576107d561089c565b5b601f19601f8301169050602081019050919050565b600081519050919050565b600082825260208201905092915050565b600081905092915050565b600061081d8261083a565b9050919050565b60008115159050919050565b6000819050919050565b600073ffffffffffffffffffffffffffffffffffffffff82169050919050565b82818337600083830152505050565b60005b8381101561088757808201518184015260208101905061086c565b83811115610896576000848401525b50505050565b7f4e487b7100000000000000000000000000000000000000000000000000000000600052604160045260246000fd5b6000601f19601f8301169050919050565b6108e581610812565b81146108f057600080fd5b50565b6108fc81610830565b811461090757600080fd5b5056fe5468652061646472657373206f722070617373776f72642061726520696e636f727265637421a2646970667358221220f98cef15ac35a53e34dbd20463cda6d66ad06f82c2c162b576c37f677d8647d164736f6c63430008000033",
  "immutableReferences": {},
  "source": "// SPDX-License-Identifier: MIT\npragma solidity ^0.8.0;\nimport \"./IRegister.sol\";\n\ncontract Login {\n    IRegister register;\n    constructor(address _registerContract) {\n        register = IRegister(_registerContract);\n    }\n\nfunction login(address addressuser, string memory password) public view returns(bool isCorrect, string memory userNature,string memory errorMessage,string memory username) {\n        \n        if(register.getUsers(addressuser).userAddress==addressuser &&  register.getUsers(addressuser).hashedPassword == keccak256(abi.encodePacked(password))){\n              return (true,register.getUsers(addressuser).userNature,\"\", register.getUsers(addressuser).name);\n        }\n        else{\n            return (false,\"\",\"The address or password are incorrect!\",\"\");\n        }\n         }\n}",
  "sourcePath": "/home/safouane/dev/SehaBlock/contracts/login.sol",
  "compiler": {
    "name": "solc",
    "version": "0.8.0+commit.c7dfd78e.Emscripten.clang"
  },
  "schemaVersion": "3.4.16",
  "updatedAt": "2024-05-13T12:01:56.565Z",
  "networkType": "ethereum",
  "devdoc": {
    "kind": "dev",
    "methods": {},
    "version": 1
  },
  "userdoc": {
    "kind": "user",
    "methods": {},
    "version": 1
  }
}