{
  "contractName": "Login",
  "abi": [
    {
      "inputs": [
        {
          "internalType": "address",
          "name": "_registerContract",
          "type": "address"
        }
      ],
      "stateMutability": "nonpayable",
      "type": "constructor"
    },
    {
      "inputs": [
        {
          "internalType": "address",
          "name": "addressuser",
          "type": "address"
        },
        {
          "internalType": "string",
          "name": "password",
          "type": "string"
        }
      ],
      "name": "login",
      "outputs": [
        {
          "internalType": "bool",
          "name": "isCorrect",
          "type": "bool"
        },
        {
          "internalType": "string",
          "name": "userNature",
          "type": "string"
        },
        {
          "internalType": "string",
          "name": "errorMessage",
          "type": "string"
        },
        {
          "internalType": "string",
          "name": "username",
          "type": "string"
        }
      ],
      "stateMutability": "view",
      "type": "function",
      "constant": true
    }
  ],
  "bytecode": "0x608060405234801561000f575f80fd5b50604051610a57380380610a57833981810160405281019061003191906100d4565b805f806101000a81548173ffffffffffffffffffffffffffffffffffffffff021916908373ffffffffffffffffffffffffffffffffffffffff160217905550506100ff565b5f80fd5b5f73ffffffffffffffffffffffffffffffffffffffff82169050919050565b5f6100a38261007a565b9050919050565b6100b381610099565b81146100bd575f80fd5b50565b5f815190506100ce816100aa565b92915050565b5f602082840312156100e9576100e8610076565b5b5f6100f6848285016100c0565b91505092915050565b61094b8061010c5f395ff3fe608060405234801561000f575f80fd5b5060043610610029575f3560e01c80632f19d50b1461002d575b5f80fd5b61004760048036038101906100429190610550565b610060565b604051610057949392919061063e565b60405180910390f35b5f60608060608573ffffffffffffffffffffffffffffffffffffffff165f8054906101000a900473ffffffffffffffffffffffffffffffffffffffff1673ffffffffffffffffffffffffffffffffffffffff1663602b386e886040518263ffffffff1660e01b81526004016100d591906106a5565b5f60405180830381865afa1580156100ef573d5f803e3d5ffd5b505050506040513d5f823e3d601f19601f820116820180604052508101906101179190610858565b6020015173ffffffffffffffffffffffffffffffffffffffff1614801561020057508460405160200161014a91906108d9565b604051602081830303815290604052805190602001205f8054906101000a900473ffffffffffffffffffffffffffffffffffffffff1673ffffffffffffffffffffffffffffffffffffffff1663602b386e886040518263ffffffff1660e01b81526004016101b891906106a5565b5f60405180830381865afa1580156101d2573d5f803e3d5ffd5b505050506040513d5f823e3d601f19601f820116820180604052508101906101fa9190610858565b60400151145b1561035f5760015f8054906101000a900473ffffffffffffffffffffffffffffffffffffffff1673ffffffffffffffffffffffffffffffffffffffff1663602b386e886040518263ffffffff1660e01b815260040161025f91906106a5565b5f60405180830381865afa158015610279573d5f803e3d5ffd5b505050506040513d5f823e3d601f19601f820116820180604052508101906102a19190610858565b606001515f8054906101000a900473ffffffffffffffffffffffffffffffffffffffff1673ffffffffffffffffffffffffffffffffffffffff1663602b386e896040518263ffffffff1660e01b81526004016102fd91906106a5565b5f60405180830381865afa158015610317573d5f803e3d5ffd5b505050506040513d5f823e3d601f19601f8201168201806040525081019061033f9190610858565b5f015160405180602001604052805f8152509093509350935093506103a0565b5f60405180602001604052805f8152506040518060600160405280602681526020016108f06026913960405180602001604052805f81525093509350935093505b92959194509250565b5f604051905090565b5f80fd5b5f80fd5b5f73ffffffffffffffffffffffffffffffffffffffff82169050919050565b5f6103e3826103ba565b9050919050565b6103f3816103d9565b81146103fd575f80fd5b50565b5f8135905061040e816103ea565b92915050565b5f80fd5b5f80fd5b5f601f19601f8301169050919050565b7f4e487b71000000000000000000000000000000000000000000000000000000005f52604160045260245ffd5b6104628261041c565b810181811067ffffffffffffffff821117156104815761048061042c565b5b80604052505050565b5f6104936103a9565b905061049f8282610459565b919050565b5f67ffffffffffffffff8211156104be576104bd61042c565b5b6104c78261041c565b9050602081019050919050565b828183375f83830152505050565b5f6104f46104ef846104a4565b61048a565b9050828152602081018484840111156105105761050f610418565b5b61051b8482856104d4565b509392505050565b5f82601f83011261053757610536610414565b5b81356105478482602086016104e2565b91505092915050565b5f8060408385031215610566576105656103b2565b5b5f61057385828601610400565b925050602083013567ffffffffffffffff811115610594576105936103b6565b5b6105a085828601610523565b9150509250929050565b5f8115159050919050565b6105be816105aa565b82525050565b5f81519050919050565b5f82825260208201905092915050565b5f5b838110156105fb5780820151818401526020810190506105e0565b5f8484015250505050565b5f610610826105c4565b61061a81856105ce565b935061062a8185602086016105de565b6106338161041c565b840191505092915050565b5f6080820190506106515f8301876105b5565b81810360208301526106638186610606565b905081810360408301526106778185610606565b9050818103606083015261068b8184610606565b905095945050505050565b61069f816103d9565b82525050565b5f6020820190506106b85f830184610696565b92915050565b5f80fd5b5f80fd5b5f6106d86106d3846104a4565b61048a565b9050828152602081018484840111156106f4576106f3610418565b5b6106ff8482856105de565b509392505050565b5f82601f83011261071b5761071a610414565b5b815161072b8482602086016106c6565b91505092915050565b5f81519050610742816103ea565b92915050565b5f819050919050565b61075a81610748565b8114610764575f80fd5b50565b5f8151905061077581610751565b92915050565b5f60a082840312156107905761078f6106be565b5b61079a60a061048a565b90505f82015167ffffffffffffffff8111156107b9576107b86106c2565b5b6107c584828501610707565b5f8301525060206107d884828501610734565b60208301525060406107ec84828501610767565b604083015250606082015167ffffffffffffffff8111156108105761080f6106c2565b5b61081c84828501610707565b606083015250608082015167ffffffffffffffff8111156108405761083f6106c2565b5b61084c84828501610707565b60808301525092915050565b5f6020828403121561086d5761086c6103b2565b5b5f82015167ffffffffffffffff81111561088a576108896103b6565b5b6108968482850161077b565b91505092915050565b5f81905092915050565b5f6108b3826105c4565b6108bd818561089f565b93506108cd8185602086016105de565b80840191505092915050565b5f6108e482846108a9565b91508190509291505056fe5468652061646472657373206f722070617373776f72642061726520696e636f727265637421a2646970667358221220fba36241113a49e49fc771656564614b67dc2f5f0561c2bfd4ce134b6f52b5a364736f6c63430008150033",
  "immutableReferences": {},
  "source": "// SPDX-License-Identifier: MIT\npragma solidity ^0.8.21;\nimport \"./IRegister.sol\";\n\ncontract Login {\n    IRegister register;\n    constructor(address _registerContract) {\n        register = IRegister(_registerContract);\n    }\n\nfunction login(address addressuser, string memory password) public view returns(bool isCorrect, string memory userNature,string memory errorMessage,string memory username) {\n        \n        if(register.getUsers(addressuser).userAddress==addressuser &&  register.getUsers(addressuser).hashedPassword == keccak256(abi.encodePacked(password))){\n              return (true,register.getUsers(addressuser).userNature,\"\", register.getUsers(addressuser).name);\n        }\n        else{\n            return (false,\"\",\"The address or password are incorrect!\",\"\");\n        }\n         }\n}",
  "sourcePath": "C:\\Users\\safouane\\Desktop\\healthCare_blockChain\\contracts\\login.sol",
  "compiler": {
    "name": "solc",
    "version": "0.8.21+commit.d9974bed.Emscripten.clang"
  },
  "schemaVersion": "3.4.16",
  "updatedAt": "2024-05-09T19:39:53.450Z",
  "networkType": "ethereum",
  "devdoc": {
    "kind": "dev",
    "methods": {},
    "version": 1
  },
  "userdoc": {
    "kind": "user",
    "methods": {},
    "version": 1
  }
}