{
  "contractName": "MedicalRecord",
  "abi": [
    {
      "inputs": [
        {
          "internalType": "address",
          "name": "_registerContractAddress",
          "type": "address"
        }
      ],
      "stateMutability": "nonpayable",
      "type": "constructor"
    },
    {
      "anonymous": false,
      "inputs": [
        {
          "indexed": false,
          "internalType": "bool",
          "name": "isUpdated",
          "type": "bool"
        },
        {
          "indexed": false,
          "internalType": "string",
          "name": "msg",
          "type": "string"
        }
      ],
      "name": "RecordUpdated",
      "type": "event"
    },
    {
      "anonymous": false,
      "inputs": [
        {
          "indexed": false,
          "internalType": "bool",
          "name": "isAdded",
          "type": "bool"
        },
        {
          "indexed": false,
          "internalType": "string",
          "name": "msg",
          "type": "string"
        }
      ],
      "name": "authorisedDoctorevent",
      "type": "event"
    },
    {
      "anonymous": false,
      "inputs": [
        {
          "indexed": false,
          "internalType": "bool",
          "name": "isCreated",
          "type": "bool"
        },
        {
          "indexed": false,
          "internalType": "string",
          "name": "msg",
          "type": "string"
        }
      ],
      "name": "recordCreated",
      "type": "event"
    },
    {
      "anonymous": false,
      "inputs": [
        {
          "indexed": false,
          "internalType": "bool",
          "name": "isRemoved",
          "type": "bool"
        },
        {
          "indexed": false,
          "internalType": "string",
          "name": "msg",
          "type": "string"
        }
      ],
      "name": "removedDoctor",
      "type": "event"
    },
    {
      "inputs": [],
      "name": "recordId",
      "outputs": [
        {
          "internalType": "uint256",
          "name": "",
          "type": "uint256"
        }
      ],
      "stateMutability": "view",
      "type": "function",
      "constant": true
    },
    {
      "inputs": [
        {
          "internalType": "address",
          "name": "",
          "type": "address"
        },
        {
          "internalType": "uint256",
          "name": "",
          "type": "uint256"
        }
      ],
      "name": "records",
      "outputs": [
        {
          "internalType": "uint256",
          "name": "recordId",
          "type": "uint256"
        },
        {
          "internalType": "address",
          "name": "patient",
          "type": "address"
        },
        {
          "internalType": "uint256",
          "name": "timestamp",
          "type": "uint256"
        },
        {
          "internalType": "string",
          "name": "Fname",
          "type": "string"
        },
        {
          "internalType": "string",
          "name": "Lname",
          "type": "string"
        },
        {
          "internalType": "uint256",
          "name": "age",
          "type": "uint256"
        },
        {
          "internalType": "string",
          "name": "N_assurance",
          "type": "string"
        },
        {
          "internalType": "string",
          "name": "date_consultation",
          "type": "string"
        },
        {
          "internalType": "string",
          "name": "diagnostic",
          "type": "string"
        },
        {
          "internalType": "string",
          "name": "resulta_diagnostic",
          "type": "string"
        },
        {
          "internalType": "string",
          "name": "observation_Medicale",
          "type": "string"
        },
        {
          "internalType": "string",
          "name": "treatment",
          "type": "string"
        }
      ],
      "stateMutability": "view",
      "type": "function",
      "constant": true
    },
    {
      "inputs": [
        {
          "internalType": "address",
          "name": "doctorAddress",
          "type": "address"
        }
      ],
      "name": "addAuthorisedDoctor",
      "outputs": [],
      "stateMutability": "nonpayable",
      "type": "function"
    },
    {
      "inputs": [
        {
          "internalType": "address",
          "name": "doctorAddress",
          "type": "address"
        }
      ],
      "name": "removeDoctor",
      "outputs": [],
      "stateMutability": "nonpayable",
      "type": "function"
    },
    {
      "inputs": [
        {
          "internalType": "string",
          "name": "Fname",
          "type": "string"
        },
        {
          "internalType": "string",
          "name": "Lname",
          "type": "string"
        },
        {
          "internalType": "uint256",
          "name": "age",
          "type": "uint256"
        }
      ],
      "name": "addRecord",
      "outputs": [],
      "stateMutability": "nonpayable",
      "type": "function"
    },
    {
      "inputs": [],
      "name": "getAllRecord",
      "outputs": [
        {
          "components": [
            {
              "internalType": "uint256",
              "name": "recordId",
              "type": "uint256"
            },
            {
              "internalType": "address",
              "name": "patient",
              "type": "address"
            },
            {
              "internalType": "uint256",
              "name": "timestamp",
              "type": "uint256"
            },
            {
              "internalType": "string",
              "name": "Fname",
              "type": "string"
            },
            {
              "internalType": "string",
              "name": "Lname",
              "type": "string"
            },
            {
              "internalType": "uint256",
              "name": "age",
              "type": "uint256"
            },
            {
              "internalType": "string",
              "name": "N_assurance",
              "type": "string"
            },
            {
              "internalType": "string",
              "name": "date_consultation",
              "type": "string"
            },
            {
              "internalType": "string",
              "name": "diagnostic",
              "type": "string"
            },
            {
              "internalType": "string",
              "name": "resulta_diagnostic",
              "type": "string"
            },
            {
              "internalType": "string",
              "name": "observation_Medicale",
              "type": "string"
            },
            {
              "internalType": "string",
              "name": "treatment",
              "type": "string"
            }
          ],
          "internalType": "struct MedicalRecord.Record[]",
          "name": "record",
          "type": "tuple[]"
        }
      ],
      "stateMutability": "view",
      "type": "function",
      "constant": true
    },
    {
      "inputs": [
        {
          "internalType": "address",
          "name": "patient",
          "type": "address"
        },
        {
          "internalType": "string",
          "name": "diagnostic",
          "type": "string"
        },
        {
          "internalType": "string",
          "name": "resulta_diagnostic",
          "type": "string"
        },
        {
          "internalType": "string",
          "name": "observation_Medicale",
          "type": "string"
        },
        {
          "internalType": "string",
          "name": "date_consultation",
          "type": "string"
        },
        {
          "internalType": "string",
          "name": "treatment",
          "type": "string"
        }
      ],
      "name": "updateMedicalInfo",
      "outputs": [],
      "stateMutability": "nonpayable",
      "type": "function"
    },
    {
      "inputs": [
        {
          "internalType": "address",
          "name": "patient",
          "type": "address"
        }
      ],
      "name": "getPatientRecord",
      "outputs": [
        {
          "components": [
            {
              "internalType": "uint256",
              "name": "recordId",
              "type": "uint256"
            },
            {
              "internalType": "address",
              "name": "patient",
              "type": "address"
            },
            {
              "internalType": "uint256",
              "name": "timestamp",
              "type": "uint256"
            },
            {
              "internalType": "string",
              "name": "Fname",
              "type": "string"
            },
            {
              "internalType": "string",
              "name": "Lname",
              "type": "string"
            },
            {
              "internalType": "uint256",
              "name": "age",
              "type": "uint256"
            },
            {
              "internalType": "string",
              "name": "N_assurance",
              "type": "string"
            },
            {
              "internalType": "string",
              "name": "date_consultation",
              "type": "string"
            },
            {
              "internalType": "string",
              "name": "diagnostic",
              "type": "string"
            },
            {
              "internalType": "string",
              "name": "resulta_diagnostic",
              "type": "string"
            },
            {
              "internalType": "string",
              "name": "observation_Medicale",
              "type": "string"
            },
            {
              "internalType": "string",
              "name": "treatment",
              "type": "string"
            }
          ],
          "internalType": "struct MedicalRecord.Record[]",
          "name": "",
          "type": "tuple[]"
        }
      ],
      "stateMutability": "view",
      "type": "function",
      "constant": true
    },
    {
      "inputs": [],
      "name": "getPatientAuthorisedInfo",
      "outputs": [
        {
          "components": [
            {
              "internalType": "address",
              "name": "doctorAddress",
              "type": "address"
            },
            {
              "internalType": "string",
              "name": "name",
              "type": "string"
            }
          ],
          "internalType": "struct MedicalRecord.UserInfo[]",
          "name": "",
          "type": "tuple[]"
        }
      ],
      "stateMutability": "view",
      "type": "function",
      "constant": true
    },
    {
      "inputs": [],
      "name": "getDoctorAuthorisedInfo",
      "outputs": [
        {
          "components": [
            {
              "internalType": "address",
              "name": "doctorAddress",
              "type": "address"
            },
            {
              "internalType": "string",
              "name": "name",
              "type": "string"
            }
          ],
          "internalType": "struct MedicalRecord.UserInfo[]",
          "name": "",
          "type": "tuple[]"
        }
      ],
      "stateMutability": "view",
      "type": "function",
      "constant": true
    },
    {
      "inputs": [
        {
          "internalType": "address",
          "name": "_userAddress",
          "type": "address"
        }
      ],
      "name": "getUserInfo",
      "outputs": [
        {
          "internalType": "address",
          "name": "",
          "type": "address"
        },
        {
          "internalType": "string",
          "name": "",
          "type": "string"
        }
      ],
      "stateMutability": "view",
      "type": "function",
      "constant": true
    }
  ],
  "bytecode": "0x60806040523480156200001157600080fd5b50604051620038a2380380620038a2833981810160405281019062000037919062000095565b806000806101000a81548173ffffffffffffffffffffffffffffffffffffffff021916908373ffffffffffffffffffffffffffffffffffffffff160217905550506200010f565b6000815190506200008f81620000f5565b92915050565b600060208284031215620000a857600080fd5b6000620000b8848285016200007e565b91505092915050565b6000620000ce82620000d5565b9050919050565b600073ffffffffffffffffffffffffffffffffffffffff82169050919050565b6200010081620000c1565b81146200010c57600080fd5b50565b613783806200011f6000396000f3fe608060405234801561001057600080fd5b50600436106100a95760003560e01c80636386c1c7116100715780636386c1c71461015057806382a6c0ac1461018157806398fc90e9146101bc578063d5a9f003146101d8578063ef83fa35146101f6578063f7dfe22b14610214576100a9565b806318607174146100ae57806325da1c77146100de578063305f006d146100fa578063532760e2146101185780635e66668014610134575b600080fd5b6100c860048036038101906100c39190612944565b610232565b6040516100d5919061316b565b60405180910390f35b6100f860048036038101906100f39190612944565b61081e565b005b610102610ae3565b60405161010f919061318d565b60405180910390f35b610132600480360381019061012d919061296d565b610c59565b005b61014e60048036038101906101499190612ad3565b610dee565b005b61016a60048036038101906101659190612944565b611164565b60405161017892919061313b565b60405180910390f35b61019b60048036038101906101969190612a6e565b6113bd565b6040516101b39c9b9a9998979695949392919061331e565b60405180910390f35b6101d660048036038101906101d19190612944565b61189a565b005b6101e0611c65565b6040516101ed919061316b565b60405180910390f35b6101fe612206565b60405161020b919061318d565b60405180910390f35b61021c61237c565b6040516102299190613303565b60405180910390f35b606061023e3383612382565b61027d576040517f08c379a0000000000000000000000000000000000000000000000000000000008152600401610274906132c3565b60405180910390fd5b600260008373ffffffffffffffffffffffffffffffffffffffff1673ffffffffffffffffffffffffffffffffffffffff168152602001908152602001600020805480602002602001604051908101604052809291908181526020016000905b8282101561081357838290600052602060002090600c020160405180610180016040529081600082015481526020016001820160009054906101000a900473ffffffffffffffffffffffffffffffffffffffff1673ffffffffffffffffffffffffffffffffffffffff1673ffffffffffffffffffffffffffffffffffffffff1681526020016002820154815260200160038201805461037a906135d8565b80601f01602080910402602001604051908101604052809291908181526020018280546103a6906135d8565b80156103f35780601f106103c8576101008083540402835291602001916103f3565b820191906000526020600020905b8154815290600101906020018083116103d657829003601f168201915b5050505050815260200160048201805461040c906135d8565b80601f0160208091040260200160405190810160405280929190818152602001828054610438906135d8565b80156104855780601f1061045a57610100808354040283529160200191610485565b820191906000526020600020905b81548152906001019060200180831161046857829003601f168201915b50505050508152602001600582015481526020016006820180546104a8906135d8565b80601f01602080910402602001604051908101604052809291908181526020018280546104d4906135d8565b80156105215780601f106104f657610100808354040283529160200191610521565b820191906000526020600020905b81548152906001019060200180831161050457829003601f168201915b5050505050815260200160078201805461053a906135d8565b80601f0160208091040260200160405190810160405280929190818152602001828054610566906135d8565b80156105b35780601f10610588576101008083540402835291602001916105b3565b820191906000526020600020905b81548152906001019060200180831161059657829003601f168201915b505050505081526020016008820180546105cc906135d8565b80601f01602080910402602001604051908101604052809291908181526020018280546105f8906135d8565b80156106455780601f1061061a57610100808354040283529160200191610645565b820191906000526020600020905b81548152906001019060200180831161062857829003601f168201915b5050505050815260200160098201805461065e906135d8565b80601f016020809104026020016040519081016040528092919081815260200182805461068a906135d8565b80156106d75780601f106106ac576101008083540402835291602001916106d7565b820191906000526020600020905b8154815290600101906020018083116106ba57829003601f168201915b50505050508152602001600a820180546106f0906135d8565b80601f016020809104026020016040519081016040528092919081815260200182805461071c906135d8565b80156107695780601f1061073e57610100808354040283529160200191610769565b820191906000526020600020905b81548152906001019060200180831161074c57829003601f168201915b50505050508152602001600b82018054610782906135d8565b80601f01602080910402602001604051908101604052809291908181526020018280546107ae906135d8565b80156107fb5780601f106107d0576101008083540402835291602001916107fb565b820191906000526020600020905b8154815290600101906020018083116107de57829003601f168201915b505050505081525050815260200190600101906102dc565b505050509050919050565b6000151560008054906101000a900473ffffffffffffffffffffffffffffffffffffffff1673ffffffffffffffffffffffffffffffffffffffff1663a5025222836040518263ffffffff1660e01b815260040161087b9190613120565b60206040518083038186803b15801561089357600080fd5b505afa1580156108a7573d6000803e3d6000fd5b505050506040513d601f19601f820116820180604052508101906108cb9190612aaa565b15151415610910577f51b5c1cd70ba82251c6e1da5ac16e98863d3a0d6e98f1f495f5d265f1fd0a3286000604051610903919061320b565b60405180910390a1610ae0565b61091a8133612382565b15610958577f51b5c1cd70ba82251c6e1da5ac16e98863d3a0d6e98f1f495f5d265f1fd0a328600060405161094f91906131dd565b60405180910390a15b6109628133612382565b610adf57600460003373ffffffffffffffffffffffffffffffffffffffff1673ffffffffffffffffffffffffffffffffffffffff168152602001908152602001600020819080600181540180825580915050600190039060005260206000200160009091909190916101000a81548173ffffffffffffffffffffffffffffffffffffffff021916908373ffffffffffffffffffffffffffffffffffffffff160217905550600360008273ffffffffffffffffffffffffffffffffffffffff1673ffffffffffffffffffffffffffffffffffffffff168152602001908152602001600020339080600181540180825580915050600190039060005260206000200160009091909190916101000a81548173ffffffffffffffffffffffffffffffffffffffff021916908373ffffffffffffffffffffffffffffffffffffffff1602179055507f51b5c1cd70ba82251c6e1da5ac16e98863d3a0d6e98f1f495f5d265f1fd0a3286001604051610ad69190613267565b60405180910390a15b5b50565b60606000610aef6124d2565b90506000815167ffffffffffffffff811115610b34577f4e487b7100000000000000000000000000000000000000000000000000000000600052604160045260246000fd5b604051908082528060200260200182016040528015610b6d57816020015b610b5a612668565b815260200190600190039081610b525790505b50905060005b8251811015610c5057600080610bc8858481518110610bbb577f4e487b7100000000000000000000000000000000000000000000000000000000600052603260045260246000fd5b6020026020010151611164565b9150915060405180604001604052808373ffffffffffffffffffffffffffffffffffffffff16815260200182815250848481518110610c30577f4e487b7100000000000000000000000000000000000000000000000000000000600052603260045260246000fd5b602002602001018190525050508080610c489061360a565b915050610b73565b50809250505090565b6000600260008873ffffffffffffffffffffffffffffffffffffffff1673ffffffffffffffffffffffffffffffffffffffff1681526020019081526020016000206001600260008a73ffffffffffffffffffffffffffffffffffffffff1673ffffffffffffffffffffffffffffffffffffffff16815260200190815260200160002080549050610ce99190613510565b81548110610d20577f4e487b7100000000000000000000000000000000000000000000000000000000600052603260045260246000fd5b90600052602060002090600c0201905082816007019080519060200190610d48929190612698565b5085816008019080519060200190610d61929190612698565b5084816009019080519060200190610d7a929190612698565b508381600a019080519060200190610d93929190612698565b508181600b019080519060200190610dac929190612698565b507ff903f80e54509ca321c310c86129bb632d6fddea9f375c9f0605a5173c42c3016001604051610ddd91906131af565b60405180910390a150505050505050565b60016000815480929190610e019061360a565b9190505550600260003373ffffffffffffffffffffffffffffffffffffffff1673ffffffffffffffffffffffffffffffffffffffff16815260200190815260200160002060405180610180016040528060015481526020013373ffffffffffffffffffffffffffffffffffffffff16815260200142815260200185815260200184815260200183815260200160008054906101000a900473ffffffffffffffffffffffffffffffffffffffff1673ffffffffffffffffffffffffffffffffffffffff1663602b386e336040518263ffffffff1660e01b8152600401610ee69190613120565b60006040518083038186803b158015610efe57600080fd5b505afa158015610f12573d6000803e3d6000fd5b505050506040513d6000823e3d601f19601f82011682018060405250810190610f3b9190612b52565b6080015181526020016040518060200160405280600081525081526020016040518060200160405280600081525081526020016040518060200160405280600081525081526020016040518060200160405280600081525081526020016040518060200160405280600081525081525090806001815401808255809150506001900390600052602060002090600c02016000909190919091506000820151816000015560208201518160010160006101000a81548173ffffffffffffffffffffffffffffffffffffffff021916908373ffffffffffffffffffffffffffffffffffffffff16021790555060408201518160020155606082015181600301908051906020019061104b929190612698565b506080820151816004019080519060200190611068929190612698565b5060a0820151816005015560c082015181600601908051906020019061108f929190612698565b5060e08201518160070190805190602001906110ac929190612698565b506101008201518160080190805190602001906110ca929190612698565b506101208201518160090190805190602001906110e8929190612698565b5061014082015181600a019080519060200190611106929190612698565b5061016082015181600b019080519060200190611124929190612698565b5050507f023edfb79c1a2ee5aafc91de9cc50e20473a84d18b65ac85e9a3043032d21b1d60016040516111579190613295565b60405180910390a1505050565b6000606060008054906101000a900473ffffffffffffffffffffffffffffffffffffffff1673ffffffffffffffffffffffffffffffffffffffff1663a5025222846040518263ffffffff1660e01b81526004016111c19190613120565b60206040518083038186803b1580156111d957600080fd5b505afa1580156111ed573d6000803e3d6000fd5b505050506040513d601f19601f820116820180604052508101906112119190612aaa565b611250576040517f08c379a0000000000000000000000000000000000000000000000000000000008152600401611247906132e3565b60405180910390fd5b60008054906101000a900473ffffffffffffffffffffffffffffffffffffffff1673ffffffffffffffffffffffffffffffffffffffff1663602b386e846040518263ffffffff1660e01b81526004016112a99190613120565b60006040518083038186803b1580156112c157600080fd5b505afa1580156112d5573d6000803e3d6000fd5b505050506040513d6000823e3d601f19601f820116820180604052508101906112fe9190612b52565b6020015160008054906101000a900473ffffffffffffffffffffffffffffffffffffffff1673ffffffffffffffffffffffffffffffffffffffff1663602b386e856040518263ffffffff1660e01b815260040161135b9190613120565b60006040518083038186803b15801561137357600080fd5b505afa158015611387573d6000803e3d6000fd5b505050506040513d6000823e3d601f19601f820116820180604052508101906113b09190612b52565b6000015191509150915091565b600260205281600052604060002081815481106113d957600080fd5b90600052602060002090600c0201600091509150508060000154908060010160009054906101000a900473ffffffffffffffffffffffffffffffffffffffff169080600201549080600301805461142f906135d8565b80601f016020809104026020016040519081016040528092919081815260200182805461145b906135d8565b80156114a85780601f1061147d576101008083540402835291602001916114a8565b820191906000526020600020905b81548152906001019060200180831161148b57829003601f168201915b5050505050908060040180546114bd906135d8565b80601f01602080910402602001604051908101604052809291908181526020018280546114e9906135d8565b80156115365780601f1061150b57610100808354040283529160200191611536565b820191906000526020600020905b81548152906001019060200180831161151957829003601f168201915b505050505090806005015490806006018054611551906135d8565b80601f016020809104026020016040519081016040528092919081815260200182805461157d906135d8565b80156115ca5780601f1061159f576101008083540402835291602001916115ca565b820191906000526020600020905b8154815290600101906020018083116115ad57829003601f168201915b5050505050908060070180546115df906135d8565b80601f016020809104026020016040519081016040528092919081815260200182805461160b906135d8565b80156116585780601f1061162d57610100808354040283529160200191611658565b820191906000526020600020905b81548152906001019060200180831161163b57829003601f168201915b50505050509080600801805461166d906135d8565b80601f0160208091040260200160405190810160405280929190818152602001828054611699906135d8565b80156116e65780601f106116bb576101008083540402835291602001916116e6565b820191906000526020600020905b8154815290600101906020018083116116c957829003601f168201915b5050505050908060090180546116fb906135d8565b80601f0160208091040260200160405190810160405280929190818152602001828054611727906135d8565b80156117745780601f1061174957610100808354040283529160200191611774565b820191906000526020600020905b81548152906001019060200180831161175757829003601f168201915b50505050509080600a018054611789906135d8565b80601f01602080910402602001604051908101604052809291908181526020018280546117b5906135d8565b80156118025780601f106117d757610100808354040283529160200191611802565b820191906000526020600020905b8154815290600101906020018083116117e557829003601f168201915b50505050509080600b018054611817906135d8565b80601f0160208091040260200160405190810160405280929190818152602001828054611843906135d8565b80156118905780601f1061186557610100808354040283529160200191611890565b820191906000526020600020905b81548152906001019060200180831161187357829003601f168201915b505050505090508c565b60005b600460003373ffffffffffffffffffffffffffffffffffffffff1673ffffffffffffffffffffffffffffffffffffffff16815260200190815260200160002080549050811015611c61578173ffffffffffffffffffffffffffffffffffffffff16600460003373ffffffffffffffffffffffffffffffffffffffff1673ffffffffffffffffffffffffffffffffffffffff1681526020019081526020016000208281548110611975577f4e487b7100000000000000000000000000000000000000000000000000000000600052603260045260246000fd5b9060005260206000200160009054906101000a900473ffffffffffffffffffffffffffffffffffffffff1673ffffffffffffffffffffffffffffffffffffffff161415611c1657600460003373ffffffffffffffffffffffffffffffffffffffff1673ffffffffffffffffffffffffffffffffffffffff1681526020019081526020016000206001600460003373ffffffffffffffffffffffffffffffffffffffff1673ffffffffffffffffffffffffffffffffffffffff16815260200190815260200160002080549050611a4a9190613510565b81548110611a81577f4e487b7100000000000000000000000000000000000000000000000000000000600052603260045260246000fd5b9060005260206000200160009054906101000a900473ffffffffffffffffffffffffffffffffffffffff16600460003373ffffffffffffffffffffffffffffffffffffffff1673ffffffffffffffffffffffffffffffffffffffff1681526020019081526020016000208281548110611b23577f4e487b7100000000000000000000000000000000000000000000000000000000600052603260045260246000fd5b9060005260206000200160006101000a81548173ffffffffffffffffffffffffffffffffffffffff021916908373ffffffffffffffffffffffffffffffffffffffff160217905550600460003373ffffffffffffffffffffffffffffffffffffffff1673ffffffffffffffffffffffffffffffffffffffff168152602001908152602001600020805480611be0577f4e487b7100000000000000000000000000000000000000000000000000000000600052603160045260246000fd5b6001900381819060005260206000200160006101000a81549073ffffffffffffffffffffffffffffffffffffffff021916905590555b7ff2779567ef294623d0bdff2fcca55816cbc032785e55cfa59669faa92d1bb5916001604051611c469190613239565b60405180910390a18080611c599061360a565b91505061189d565b5050565b6060600260003373ffffffffffffffffffffffffffffffffffffffff1673ffffffffffffffffffffffffffffffffffffffff168152602001908152602001600020805480602002602001604051908101604052809291908181526020016000905b828210156121fd57838290600052602060002090600c020160405180610180016040529081600082015481526020016001820160009054906101000a900473ffffffffffffffffffffffffffffffffffffffff1673ffffffffffffffffffffffffffffffffffffffff1673ffffffffffffffffffffffffffffffffffffffff16815260200160028201548152602001600382018054611d64906135d8565b80601f0160208091040260200160405190810160405280929190818152602001828054611d90906135d8565b8015611ddd5780601f10611db257610100808354040283529160200191611ddd565b820191906000526020600020905b815481529060010190602001808311611dc057829003601f168201915b50505050508152602001600482018054611df6906135d8565b80601f0160208091040260200160405190810160405280929190818152602001828054611e22906135d8565b8015611e6f5780601f10611e4457610100808354040283529160200191611e6f565b820191906000526020600020905b815481529060010190602001808311611e5257829003601f168201915b5050505050815260200160058201548152602001600682018054611e92906135d8565b80601f0160208091040260200160405190810160405280929190818152602001828054611ebe906135d8565b8015611f0b5780601f10611ee057610100808354040283529160200191611f0b565b820191906000526020600020905b815481529060010190602001808311611eee57829003601f168201915b50505050508152602001600782018054611f24906135d8565b80601f0160208091040260200160405190810160405280929190818152602001828054611f50906135d8565b8015611f9d5780601f10611f7257610100808354040283529160200191611f9d565b820191906000526020600020905b815481529060010190602001808311611f8057829003601f168201915b50505050508152602001600882018054611fb6906135d8565b80601f0160208091040260200160405190810160405280929190818152602001828054611fe2906135d8565b801561202f5780601f106120045761010080835404028352916020019161202f565b820191906000526020600020905b81548152906001019060200180831161201257829003601f168201915b50505050508152602001600982018054612048906135d8565b80601f0160208091040260200160405190810160405280929190818152602001828054612074906135d8565b80156120c15780601f10612096576101008083540402835291602001916120c1565b820191906000526020600020905b8154815290600101906020018083116120a457829003601f168201915b50505050508152602001600a820180546120da906135d8565b80601f0160208091040260200160405190810160405280929190818152602001828054612106906135d8565b80156121535780601f1061212857610100808354040283529160200191612153565b820191906000526020600020905b81548152906001019060200180831161213657829003601f168201915b50505050508152602001600b8201805461216c906135d8565b80601f0160208091040260200160405190810160405280929190818152602001828054612198906135d8565b80156121e55780601f106121ba576101008083540402835291602001916121e5565b820191906000526020600020905b8154815290600101906020018083116121c857829003601f168201915b50505050508152505081526020019060010190611cc6565b50505050905090565b6060600061221261259d565b90506000815167ffffffffffffffff811115612257577f4e487b7100000000000000000000000000000000000000000000000000000000600052604160045260246000fd5b60405190808252806020026020018201604052801561229057816020015b61227d612668565b8152602001906001900390816122755790505b50905060005b8251811015612373576000806122eb8584815181106122de577f4e487b7100000000000000000000000000000000000000000000000000000000600052603260045260246000fd5b6020026020010151611164565b9150915060405180604001604052808373ffffffffffffffffffffffffffffffffffffffff16815260200182815250848481518110612353577f4e487b7100000000000000000000000000000000000000000000000000000000600052603260045260246000fd5b60200260200101819052505050808061236b9061360a565b915050612296565b50809250505090565b60015481565b600080600090505b600460008473ffffffffffffffffffffffffffffffffffffffff1673ffffffffffffffffffffffffffffffffffffffff168152602001908152602001600020805490508110156124c6578373ffffffffffffffffffffffffffffffffffffffff16600460008573ffffffffffffffffffffffffffffffffffffffff1673ffffffffffffffffffffffffffffffffffffffff1681526020019081526020016000208281548110612462577f4e487b7100000000000000000000000000000000000000000000000000000000600052603260045260246000fd5b9060005260206000200160009054906101000a900473ffffffffffffffffffffffffffffffffffffffff1673ffffffffffffffffffffffffffffffffffffffff1614156124b35760019150506124cc565b80806124be9061360a565b91505061238a565b50600090505b92915050565b6060600360003373ffffffffffffffffffffffffffffffffffffffff1673ffffffffffffffffffffffffffffffffffffffff16815260200190815260200160002080548060200260200160405190810160405280929190818152602001828054801561259357602002820191906000526020600020905b8160009054906101000a900473ffffffffffffffffffffffffffffffffffffffff1673ffffffffffffffffffffffffffffffffffffffff1681526020019060010190808311612549575b5050505050905090565b6060600460003373ffffffffffffffffffffffffffffffffffffffff1673ffffffffffffffffffffffffffffffffffffffff16815260200190815260200160002080548060200260200160405190810160405280929190818152602001828054801561265e57602002820191906000526020600020905b8160009054906101000a900473ffffffffffffffffffffffffffffffffffffffff1673ffffffffffffffffffffffffffffffffffffffff1681526020019060010190808311612614575b5050505050905090565b6040518060400160405280600073ffffffffffffffffffffffffffffffffffffffff168152602001606081525090565b8280546126a4906135d8565b90600052602060002090601f0160209004810192826126c6576000855561270d565b82601f106126df57805160ff191683800117855561270d565b8280016001018555821561270d579182015b8281111561270c5782518255916020019190600101906126f1565b5b50905061271a919061271e565b5090565b5b8082111561273757600081600090555060010161271f565b5090565b600061274e61274984613441565b613410565b90508281526020810184848401111561276657600080fd5b612771848285613596565b509392505050565b600061278c61278784613441565b613410565b9050828152602081018484840111156127a457600080fd5b6127af8482856135a5565b509392505050565b6000813590506127c6816136f1565b92915050565b6000815190506127db816136f1565b92915050565b6000815190506127f081613708565b92915050565b6000815190506128058161371f565b92915050565b600082601f83011261281c57600080fd5b813561282c84826020860161273b565b91505092915050565b600082601f83011261284657600080fd5b8151612856848260208601612779565b91505092915050565b600060a0828403121561287157600080fd5b61287b60a0613410565b9050600082015167ffffffffffffffff81111561289757600080fd5b6128a384828501612835565b60008301525060206128b7848285016127cc565b60208301525060406128cb848285016127f6565b604083015250606082015167ffffffffffffffff8111156128eb57600080fd5b6128f784828501612835565b606083015250608082015167ffffffffffffffff81111561291757600080fd5b61292384828501612835565b60808301525092915050565b60008135905061293e81613736565b92915050565b60006020828403121561295657600080fd5b6000612964848285016127b7565b91505092915050565b60008060008060008060c0878903121561298657600080fd5b600061299489828a016127b7565b965050602087013567ffffffffffffffff8111156129b157600080fd5b6129bd89828a0161280b565b955050604087013567ffffffffffffffff8111156129da57600080fd5b6129e689828a0161280b565b945050606087013567ffffffffffffffff811115612a0357600080fd5b612a0f89828a0161280b565b935050608087013567ffffffffffffffff811115612a2c57600080fd5b612a3889828a0161280b565b92505060a087013567ffffffffffffffff811115612a5557600080fd5b612a6189828a0161280b565b9150509295509295509295565b60008060408385031215612a8157600080fd5b6000612a8f858286016127b7565b9250506020612aa08582860161292f565b9150509250929050565b600060208284031215612abc57600080fd5b6000612aca848285016127e1565b91505092915050565b600080600060608486031215612ae857600080fd5b600084013567ffffffffffffffff811115612b0257600080fd5b612b0e8682870161280b565b935050602084013567ffffffffffffffff811115612b2b57600080fd5b612b378682870161280b565b9250506040612b488682870161292f565b9150509250925092565b600060208284031215612b6457600080fd5b600082015167ffffffffffffffff811115612b7e57600080fd5b612b8a8482850161285f565b91505092915050565b6000612b9f8383612f90565b905092915050565b6000612bb383836130c5565b905092915050565b612bc481613544565b82525050565b612bd381613544565b82525050565b6000612be482613491565b612bee81856134cc565b935083602082028501612c0085613471565b8060005b85811015612c3c5784840389528151612c1d8582612b93565b9450612c28836134b2565b925060208a01995050600181019050612c04565b50829750879550505050505092915050565b6000612c598261349c565b612c6381856134dd565b935083602082028501612c7585613481565b8060005b85811015612cb15784840389528151612c928582612ba7565b9450612c9d836134bf565b925060208a01995050600181019050612c79565b50829750879550505050505092915050565b612ccc81613556565b82525050565b6000612cdd826134a7565b612ce781856134ee565b9350612cf78185602086016135a5565b612d00816136e0565b840191505092915050565b6000612d16826134a7565b612d2081856134ff565b9350612d308185602086016135a5565b612d39816136e0565b840191505092915050565b6000612d516016836134ff565b91507f796f7520617265206e6f7420617574686f72697a6564000000000000000000006000830152602082019050919050565b6000612d91601a836134ff565b91507f5265636f726420757064617465642073756363657373666c6c790000000000006000830152602082019050919050565b6000612dd1601d836134ff565b91507f446f63746f7220697320616c726561647920617574686f7269736564200000006000830152602082019050919050565b6000612e116021836134ff565b91507f5468697320646f63746f72206973206e6f74207965742072656769737465726560008301527f64000000000000000000000000000000000000000000000000000000000000006020830152604082019050919050565b6000612e77601b836134ff565b91507f446f63746f722069732072656d6f76656420737563636566756c7900000000006000830152602082019050919050565b6000612eb7601e836134ff565b91507f446f63746f7220697320616464656420207375636375737366756c6c792000006000830152602082019050919050565b6000612ef76022836134ff565b91507f7468657265206973206e6f20757365722077697468207468697320616464726560008301527f73730000000000000000000000000000000000000000000000000000000000006020830152604082019050919050565b6000612f5d601b836134ff565b91507f5265636f72642063726561746564207375636375737366756c6c7900000000006000830152602082019050919050565b600061018083016000830151612fa96000860182613102565b506020830151612fbc6020860182612bbb565b506040830151612fcf6040860182613102565b5060608301518482036060860152612fe78282612cd2565b915050608083015184820360808601526130018282612cd2565b91505060a083015161301660a0860182613102565b5060c083015184820360c086015261302e8282612cd2565b91505060e083015184820360e08601526130488282612cd2565b9150506101008301518482036101008601526130648282612cd2565b9150506101208301518482036101208601526130808282612cd2565b91505061014083015184820361014086015261309c8282612cd2565b9150506101608301518482036101608601526130b88282612cd2565b9150508091505092915050565b60006040830160008301516130dd6000860182612bbb565b50602083015184820360208601526130f58282612cd2565b9150508091505092915050565b61310b8161358c565b82525050565b61311a8161358c565b82525050565b60006020820190506131356000830184612bca565b92915050565b60006040820190506131506000830185612bca565b81810360208301526131628184612d0b565b90509392505050565b600060208201905081810360008301526131858184612bd9565b905092915050565b600060208201905081810360008301526131a78184612c4e565b905092915050565b60006040820190506131c46000830184612cc3565b81810360208301526131d581612d84565b905092915050565b60006040820190506131f26000830184612cc3565b818103602083015261320381612dc4565b905092915050565b60006040820190506132206000830184612cc3565b818103602083015261323181612e04565b905092915050565b600060408201905061324e6000830184612cc3565b818103602083015261325f81612e6a565b905092915050565b600060408201905061327c6000830184612cc3565b818103602083015261328d81612eaa565b905092915050565b60006040820190506132aa6000830184612cc3565b81810360208301526132bb81612f50565b905092915050565b600060208201905081810360008301526132dc81612d44565b9050919050565b600060208201905081810360008301526132fc81612eea565b9050919050565b60006020820190506133186000830184613111565b92915050565b600061018082019050613334600083018f613111565b613341602083018e612bca565b61334e604083018d613111565b8181036060830152613360818c612d0b565b90508181036080830152613374818b612d0b565b905061338360a083018a613111565b81810360c08301526133958189612d0b565b905081810360e08301526133a98188612d0b565b90508181036101008301526133be8187612d0b565b90508181036101208301526133d38186612d0b565b90508181036101408301526133e88185612d0b565b90508181036101608301526133fd8184612d0b565b90509d9c50505050505050505050505050565b6000604051905081810181811067ffffffffffffffff82111715613437576134366136b1565b5b8060405250919050565b600067ffffffffffffffff82111561345c5761345b6136b1565b5b601f19601f8301169050602081019050919050565b6000819050602082019050919050565b6000819050602082019050919050565b600081519050919050565b600081519050919050565b600081519050919050565b6000602082019050919050565b6000602082019050919050565b600082825260208201905092915050565b600082825260208201905092915050565b600082825260208201905092915050565b600082825260208201905092915050565b600061351b8261358c565b91506135268361358c565b92508282101561353957613538613653565b5b828203905092915050565b600061354f8261356c565b9050919050565b60008115159050919050565b6000819050919050565b600073ffffffffffffffffffffffffffffffffffffffff82169050919050565b6000819050919050565b82818337600083830152505050565b60005b838110156135c35780820151818401526020810190506135a8565b838111156135d2576000848401525b50505050565b600060028204905060018216806135f057607f821691505b6020821081141561360457613603613682565b5b50919050565b60006136158261358c565b91507fffffffffffffffffffffffffffffffffffffffffffffffffffffffffffffffff82141561364857613647613653565b5b600182019050919050565b7f4e487b7100000000000000000000000000000000000000000000000000000000600052601160045260246000fd5b7f4e487b7100000000000000000000000000000000000000000000000000000000600052602260045260246000fd5b7f4e487b7100000000000000000000000000000000000000000000000000000000600052604160045260246000fd5b6000601f19601f8301169050919050565b6136fa81613544565b811461370557600080fd5b50565b61371181613556565b811461371c57600080fd5b50565b61372881613562565b811461373357600080fd5b50565b61373f8161358c565b811461374a57600080fd5b5056fea2646970667358221220a61bdbba487365ef47321211e82397cb1efb39118b44bc1fc50a9b94be2cfe2864736f6c63430008000033",
  "immutableReferences": {},
  "source": "  // SPDX-License-Identifier: MIT\npragma solidity ^0.8.0;\nimport \"./IRegister.sol\";\n\ncontract MedicalRecord {\n    IRegister registerFunctions;\n    constructor(address _registerContractAddress) {\n        registerFunctions=IRegister(_registerContractAddress);\n    }\n   uint public recordId;\n            mapping(address => Record[]) public records;\n\n            mapping(address => address[]) authorisedPatients ;\n            mapping(address => address[]) authorisedDoctors ;  \n\n        //construire le record medical\n            struct Record {\n                uint recordId;\n                address patient;\n                uint timestamp;\n                string Fname;\n                string Lname;\n                uint age;\n                string N_assurance;\n                string date_consultation;\n                string diagnostic;\n                string resulta_diagnostic;\n                string observation_Medicale;\n                string treatment;\n            }\n             \n            function checkDoctorAuthorization(address doctorAddress,address patient) internal view returns (bool) {\n                for (uint i = 0; i < authorisedDoctors[patient].length; i++) {\n                    if (authorisedDoctors[patient][i] == doctorAddress) {\n                        return true; \n                    }\n                }\n                return false; \n            }\n        \n\n                //  **************Patient ******************//\n            \n\n          \n\n        \n            event authorisedDoctorevent(bool isAdded , string msg);\n             function addAuthorisedDoctor(address doctorAddress ) public  {\n\n              if(registerFunctions.addressExists(doctorAddress)==false){\n                      emit authorisedDoctorevent(false, \"This doctor is not yet registered\");\n                     return;\n                }\n              if(checkDoctorAuthorization(doctorAddress,msg.sender)){\n                emit authorisedDoctorevent(false, \"Doctor is already authorised \");\n               }\n                if(!checkDoctorAuthorization(doctorAddress,msg.sender)){\n                     authorisedDoctors[msg.sender].push(doctorAddress);\n                     authorisedPatients[doctorAddress].push(msg.sender); \n                    emit authorisedDoctorevent(true, \"Doctor is added  succussfully \");\n                }\n              \n            }\n             \n            //remove l'authorisation d'un  doctoreur de consulter le dossier medical\n        event removedDoctor(bool isRemoved,string msg);\n        function removeDoctor(address doctorAddress) public {\n           \n                 for (uint i = 0; i < authorisedDoctors[msg.sender].length; i++) {\n                    if (authorisedDoctors[msg.sender][i] == doctorAddress) {\n                    authorisedDoctors[msg.sender][i] = authorisedDoctors[msg.sender][authorisedDoctors[msg.sender].length - 1];\n                        authorisedDoctors[msg.sender].pop();\n            \n                }\n                 emit removedDoctor(true,\"Doctor is removed succefuly\");\n\n            }\n               \n        }\n        event recordCreated(bool isCreated, string  msg);\n         function addRecord(\n            \n                string memory Fname,\n                string memory Lname,\n                uint age\n            ) public  {\n                recordId++;\n                records[msg.sender].push(\n                     Record({\n                    recordId: recordId,\n                    patient: msg.sender,\n                    timestamp: block.timestamp,\n                    Fname: Fname,\n                    Lname: Lname,\n                    age: age,\n                    N_assurance:registerFunctions.getUsers(msg.sender).IdentifierN,\n                    date_consultation: \"\",\n                    diagnostic: \"\",\n                    resulta_diagnostic: \"\",\n                    observation_Medicale: \"\",\n                    treatment: \"\"\n                })\n                );\n                 emit recordCreated(true, \"Record created succussfully\");\n            }\n            function getAllRecord() public view returns(Record[] memory record){\n                return records[msg.sender];\n            }\n            \n\n                //  **************Doctor//\n\n        \n           \n       \nevent RecordUpdated(bool isUpdated,string msg);\n         //modification d'aprs les medecins\n            function updateMedicalInfo(\n                address patient,\n                string memory diagnostic,\n                string memory resulta_diagnostic,\n                string memory observation_Medicale,\n                string memory date_consultation,\n                string memory treatment\n            ) public {\n                Record storage record = records[patient][records[patient].length-1];\n                record.date_consultation = date_consultation;\n                record.diagnostic = diagnostic;\n                record.resulta_diagnostic = resulta_diagnostic;\n                record.observation_Medicale = observation_Medicale;\n                record.treatment = treatment;\n                emit RecordUpdated(true,\"Record updated successflly\");\n                \n            }\n            function getPatientAuthorised() internal  view returns(address[] memory) {\n                       return authorisedPatients[msg.sender];\n                       \n            }\n            function getPatientRecord(address patient) public view returns (Record[] memory){\n                require(checkDoctorAuthorization(msg.sender,patient), \"you are not authorized\");\n                     return  records[patient];\n            }\n                    struct UserInfo {\n                    address doctorAddress;\n                    string name;\n}\n\n\n            function getPatientAuthorisedInfo() public view returns (UserInfo[] memory) {\n                address[] memory patientAddresses = getPatientAuthorised();\n               UserInfo[] memory patients = new UserInfo[](patientAddresses.length);\n\n                for (uint i = 0; i < patientAddresses.length; i++) {\n                    (address addr, string memory name) = getUserInfo(patientAddresses[i]);\n                    patients[i] =UserInfo(addr, name);\n                }\n\n                return patients;\n            }\n\n\n\n             function getDoctorAuthorisedInfo() public view returns (UserInfo[] memory) {\n                address[] memory doctorAddresses = getDoctorAuthorised();\n                UserInfo[] memory doctors = new UserInfo[](doctorAddresses.length);\n\n                for (uint i = 0; i < doctorAddresses.length; i++) {\n                    (address addr, string memory name) = getUserInfo(doctorAddresses[i]);\n                    doctors[i] = UserInfo(addr, name);\n                }\n\n                return doctors;\n            }\n\n            function getUserInfo(address _userAddress) public view returns (address ,string memory ) {\n                  require(registerFunctions.addressExists(_userAddress),\"there is no user with this address\");\n                return(registerFunctions.getUsers(_userAddress).userAddress ,registerFunctions.getUsers(_userAddress).name );\n    }\n         function getDoctorAuthorised() internal  view returns(address[] memory) {\n                       return authorisedDoctors[msg.sender];\n            }\n            \n         \n}",
  "sourcePath": "/home/safouane/dev/SehaBlock/contracts/medicalRecord.sol",
  "compiler": {
    "name": "solc",
    "version": "0.8.0+commit.c7dfd78e.Emscripten.clang"
  },
  "schemaVersion": "3.4.16",
  "updatedAt": "2024-05-13T12:02:06.593Z",
  "networkType": "ethereum",
  "devdoc": {
    "kind": "dev",
    "methods": {},
    "version": 1
  },
  "userdoc": {
    "kind": "user",
    "methods": {},
    "version": 1
  }
}