{
  "contractName": "MedicalRecord",
  "abi": [
    {
      "inputs": [
        {
          "internalType": "address",
          "name": "_registerContractAddress",
          "type": "address"
        }
      ],
      "stateMutability": "nonpayable",
      "type": "constructor"
    },
    {
      "anonymous": false,
      "inputs": [
        {
          "indexed": false,
          "internalType": "bool",
          "name": "isUpdated",
          "type": "bool"
        },
        {
          "indexed": false,
          "internalType": "string",
          "name": "msg",
          "type": "string"
        }
      ],
      "name": "RecordUpdated",
      "type": "event"
    },
    {
      "anonymous": false,
      "inputs": [
        {
          "indexed": false,
          "internalType": "bool",
          "name": "isAdded",
          "type": "bool"
        },
        {
          "indexed": false,
          "internalType": "string",
          "name": "msg",
          "type": "string"
        }
      ],
      "name": "authorisedDoctorevent",
      "type": "event"
    },
    {
      "anonymous": false,
      "inputs": [
        {
          "indexed": false,
          "internalType": "bool",
          "name": "isCreated",
          "type": "bool"
        },
        {
          "indexed": false,
          "internalType": "string",
          "name": "msg",
          "type": "string"
        }
      ],
      "name": "recordCreated",
      "type": "event"
    },
    {
      "anonymous": false,
      "inputs": [
        {
          "indexed": false,
          "internalType": "bool",
          "name": "isRemoved",
          "type": "bool"
        },
        {
          "indexed": false,
          "internalType": "string",
          "name": "msg",
          "type": "string"
        }
      ],
      "name": "removedDoctor",
      "type": "event"
    },
    {
      "inputs": [],
      "name": "recordId",
      "outputs": [
        {
          "internalType": "uint256",
          "name": "",
          "type": "uint256"
        }
      ],
      "stateMutability": "view",
      "type": "function",
      "constant": true
    },
    {
      "inputs": [
        {
          "internalType": "address",
          "name": "",
          "type": "address"
        },
        {
          "internalType": "uint256",
          "name": "",
          "type": "uint256"
        }
      ],
      "name": "records",
      "outputs": [
        {
          "internalType": "uint256",
          "name": "recordId",
          "type": "uint256"
        },
        {
          "internalType": "address",
          "name": "patient",
          "type": "address"
        },
        {
          "internalType": "uint256",
          "name": "timestamp",
          "type": "uint256"
        },
        {
          "internalType": "string",
          "name": "Fname",
          "type": "string"
        },
        {
          "internalType": "string",
          "name": "Lname",
          "type": "string"
        },
        {
          "internalType": "uint256",
          "name": "age",
          "type": "uint256"
        },
        {
          "internalType": "string",
          "name": "N_assurance",
          "type": "string"
        },
        {
          "internalType": "string",
          "name": "date_consultation",
          "type": "string"
        },
        {
          "internalType": "string",
          "name": "diagnostic",
          "type": "string"
        },
        {
          "internalType": "string",
          "name": "resulta_diagnostic",
          "type": "string"
        },
        {
          "internalType": "string",
          "name": "observation_Medicale",
          "type": "string"
        },
        {
          "internalType": "string",
          "name": "treatment",
          "type": "string"
        }
      ],
      "stateMutability": "view",
      "type": "function",
      "constant": true
    },
    {
      "inputs": [
        {
          "internalType": "address",
          "name": "doctorAddress",
          "type": "address"
        }
      ],
      "name": "addAuthorisedDoctor",
      "outputs": [],
      "stateMutability": "nonpayable",
      "type": "function"
    },
    {
      "inputs": [
        {
          "internalType": "address",
          "name": "doctorAddress",
          "type": "address"
        }
      ],
      "name": "removeDoctor",
      "outputs": [],
      "stateMutability": "nonpayable",
      "type": "function"
    },
    {
      "inputs": [
        {
          "internalType": "string",
          "name": "Fname",
          "type": "string"
        },
        {
          "internalType": "string",
          "name": "Lname",
          "type": "string"
        },
        {
          "internalType": "uint256",
          "name": "age",
          "type": "uint256"
        }
      ],
      "name": "addRecord",
      "outputs": [],
      "stateMutability": "nonpayable",
      "type": "function"
    },
    {
      "inputs": [],
      "name": "getAllRecord",
      "outputs": [
        {
          "components": [
            {
              "internalType": "uint256",
              "name": "recordId",
              "type": "uint256"
            },
            {
              "internalType": "address",
              "name": "patient",
              "type": "address"
            },
            {
              "internalType": "uint256",
              "name": "timestamp",
              "type": "uint256"
            },
            {
              "internalType": "string",
              "name": "Fname",
              "type": "string"
            },
            {
              "internalType": "string",
              "name": "Lname",
              "type": "string"
            },
            {
              "internalType": "uint256",
              "name": "age",
              "type": "uint256"
            },
            {
              "internalType": "string",
              "name": "N_assurance",
              "type": "string"
            },
            {
              "internalType": "string",
              "name": "date_consultation",
              "type": "string"
            },
            {
              "internalType": "string",
              "name": "diagnostic",
              "type": "string"
            },
            {
              "internalType": "string",
              "name": "resulta_diagnostic",
              "type": "string"
            },
            {
              "internalType": "string",
              "name": "observation_Medicale",
              "type": "string"
            },
            {
              "internalType": "string",
              "name": "treatment",
              "type": "string"
            }
          ],
          "internalType": "struct MedicalRecord.Record[]",
          "name": "record",
          "type": "tuple[]"
        }
      ],
      "stateMutability": "view",
      "type": "function",
      "constant": true
    },
    {
      "inputs": [
        {
          "internalType": "address",
          "name": "patient",
          "type": "address"
        },
        {
          "internalType": "string",
          "name": "diagnostic",
          "type": "string"
        },
        {
          "internalType": "string",
          "name": "resulta_diagnostic",
          "type": "string"
        },
        {
          "internalType": "string",
          "name": "observation_Medicale",
          "type": "string"
        },
        {
          "internalType": "string",
          "name": "date_consultation",
          "type": "string"
        },
        {
          "internalType": "string",
          "name": "treatment",
          "type": "string"
        }
      ],
      "name": "updateMedicalInfo",
      "outputs": [],
      "stateMutability": "nonpayable",
      "type": "function"
    },
    {
      "inputs": [
        {
          "internalType": "address",
          "name": "patient",
          "type": "address"
        }
      ],
      "name": "getPatientRecord",
      "outputs": [
        {
          "components": [
            {
              "internalType": "uint256",
              "name": "recordId",
              "type": "uint256"
            },
            {
              "internalType": "address",
              "name": "patient",
              "type": "address"
            },
            {
              "internalType": "uint256",
              "name": "timestamp",
              "type": "uint256"
            },
            {
              "internalType": "string",
              "name": "Fname",
              "type": "string"
            },
            {
              "internalType": "string",
              "name": "Lname",
              "type": "string"
            },
            {
              "internalType": "uint256",
              "name": "age",
              "type": "uint256"
            },
            {
              "internalType": "string",
              "name": "N_assurance",
              "type": "string"
            },
            {
              "internalType": "string",
              "name": "date_consultation",
              "type": "string"
            },
            {
              "internalType": "string",
              "name": "diagnostic",
              "type": "string"
            },
            {
              "internalType": "string",
              "name": "resulta_diagnostic",
              "type": "string"
            },
            {
              "internalType": "string",
              "name": "observation_Medicale",
              "type": "string"
            },
            {
              "internalType": "string",
              "name": "treatment",
              "type": "string"
            }
          ],
          "internalType": "struct MedicalRecord.Record[]",
          "name": "",
          "type": "tuple[]"
        }
      ],
      "stateMutability": "view",
      "type": "function",
      "constant": true
    },
    {
      "inputs": [],
      "name": "getPatientAuthorisedInfo",
      "outputs": [
        {
          "components": [
            {
              "internalType": "address",
              "name": "doctorAddress",
              "type": "address"
            },
            {
              "internalType": "string",
              "name": "name",
              "type": "string"
            }
          ],
          "internalType": "struct MedicalRecord.UserInfo[]",
          "name": "",
          "type": "tuple[]"
        }
      ],
      "stateMutability": "view",
      "type": "function",
      "constant": true
    },
    {
      "inputs": [],
      "name": "getDoctorAuthorisedInfo",
      "outputs": [
        {
          "components": [
            {
              "internalType": "address",
              "name": "doctorAddress",
              "type": "address"
            },
            {
              "internalType": "string",
              "name": "name",
              "type": "string"
            }
          ],
          "internalType": "struct MedicalRecord.UserInfo[]",
          "name": "",
          "type": "tuple[]"
        }
      ],
      "stateMutability": "view",
      "type": "function",
      "constant": true
    },
    {
      "inputs": [
        {
          "internalType": "address",
          "name": "_userAddress",
          "type": "address"
        }
      ],
      "name": "getUserInfo",
      "outputs": [
        {
          "internalType": "address",
          "name": "",
          "type": "address"
        },
        {
          "internalType": "string",
          "name": "",
          "type": "string"
        }
      ],
      "stateMutability": "view",
      "type": "function",
      "constant": true
    }
  ],
  "bytecode": "0x608060405234801562000010575f80fd5b506040516200380e3803806200380e8339818101604052810190620000369190620000e1565b805f806101000a81548173ffffffffffffffffffffffffffffffffffffffff021916908373ffffffffffffffffffffffffffffffffffffffff1602179055505062000111565b5f80fd5b5f73ffffffffffffffffffffffffffffffffffffffff82169050919050565b5f620000ab8262000080565b9050919050565b620000bd816200009f565b8114620000c8575f80fd5b50565b5f81519050620000db81620000b2565b92915050565b5f60208284031215620000f957620000f86200007c565b5b5f6200010884828501620000cb565b91505092915050565b6136ef806200011f5f395ff3fe608060405234801561000f575f80fd5b50600436106100a7575f3560e01c80636386c1c71161006f5780636386c1c71461014d57806382a6c0ac1461017e57806398fc90e9146101b9578063d5a9f003146101d5578063ef83fa35146101f3578063f7dfe22b14610211576100a7565b806318607174146100ab57806325da1c77146100db578063305f006d146100f7578063532760e2146101155780635e66668014610131575b5f80fd5b6100c560048036038101906100c091906123da565b61022f565b6040516100d291906126a3565b60405180910390f35b6100f560048036038101906100f091906123da565b610804565b005b6100ff610aa9565b60405161010c91906127b8565b60405180910390f35b61012f600480360381019061012a9190612904565b610ba9565b005b61014b60048036038101906101469190612a43565b610cee565b005b610167600480360381019061016291906123da565b61100a565b604051610175929190612b22565b60405180910390f35b61019860048036038101906101939190612b50565b611227565b6040516101b09c9b9a99989796959493929190612b9d565b60405180910390f35b6101d360048036038101906101ce91906123da565b6116ec565b005b6101dd611a05565b6040516101ea91906126a3565b60405180910390f35b6101fb611f8f565b60405161020891906127b8565b60405180910390f35b61021961208f565b6040516102269190612c8d565b60405180910390f35b606061023b3383612095565b61027a576040517f08c379a000000000000000000000000000000000000000000000000000000000815260040161027190612cf0565b60405180910390fd5b60025f8373ffffffffffffffffffffffffffffffffffffffff1673ffffffffffffffffffffffffffffffffffffffff1681526020019081526020015f20805480602002602001604051908101604052809291908181526020015f905b828210156107f9578382905f5260205f2090600c0201604051806101800160405290815f8201548152602001600182015f9054906101000a900473ffffffffffffffffffffffffffffffffffffffff1673ffffffffffffffffffffffffffffffffffffffff1673ffffffffffffffffffffffffffffffffffffffff1681526020016002820154815260200160038201805461037090612d3b565b80601f016020809104026020016040519081016040528092919081815260200182805461039c90612d3b565b80156103e75780601f106103be576101008083540402835291602001916103e7565b820191905f5260205f20905b8154815290600101906020018083116103ca57829003601f168201915b5050505050815260200160048201805461040090612d3b565b80601f016020809104026020016040519081016040528092919081815260200182805461042c90612d3b565b80156104775780601f1061044e57610100808354040283529160200191610477565b820191905f5260205f20905b81548152906001019060200180831161045a57829003601f168201915b505050505081526020016005820154815260200160068201805461049a90612d3b565b80601f01602080910402602001604051908101604052809291908181526020018280546104c690612d3b565b80156105115780601f106104e857610100808354040283529160200191610511565b820191905f5260205f20905b8154815290600101906020018083116104f457829003601f168201915b5050505050815260200160078201805461052a90612d3b565b80601f016020809104026020016040519081016040528092919081815260200182805461055690612d3b565b80156105a15780601f10610578576101008083540402835291602001916105a1565b820191905f5260205f20905b81548152906001019060200180831161058457829003601f168201915b505050505081526020016008820180546105ba90612d3b565b80601f01602080910402602001604051908101604052809291908181526020018280546105e690612d3b565b80156106315780601f1061060857610100808354040283529160200191610631565b820191905f5260205f20905b81548152906001019060200180831161061457829003601f168201915b5050505050815260200160098201805461064a90612d3b565b80601f016020809104026020016040519081016040528092919081815260200182805461067690612d3b565b80156106c15780601f10610698576101008083540402835291602001916106c1565b820191905f5260205f20905b8154815290600101906020018083116106a457829003601f168201915b50505050508152602001600a820180546106da90612d3b565b80601f016020809104026020016040519081016040528092919081815260200182805461070690612d3b565b80156107515780601f1061072857610100808354040283529160200191610751565b820191905f5260205f20905b81548152906001019060200180831161073457829003601f168201915b50505050508152602001600b8201805461076a90612d3b565b80601f016020809104026020016040519081016040528092919081815260200182805461079690612d3b565b80156107e15780601f106107b8576101008083540402835291602001916107e1565b820191905f5260205f20905b8154815290600101906020018083116107c457829003601f168201915b505050505081525050815260200190600101906102d6565b505050509050919050565b5f15155f8054906101000a900473ffffffffffffffffffffffffffffffffffffffff1673ffffffffffffffffffffffffffffffffffffffff1663a5025222836040518263ffffffff1660e01b815260040161085f9190612d6b565b602060405180830381865afa15801561087a573d5f803e3d5ffd5b505050506040513d601f19601f8201168201806040525081019061089e9190612db9565b1515036108e1577f51b5c1cd70ba82251c6e1da5ac16e98863d3a0d6e98f1f495f5d265f1fd0a3285f6040516108d49190612e63565b60405180910390a1610aa6565b6108eb8133612095565b15610928577f51b5c1cd70ba82251c6e1da5ac16e98863d3a0d6e98f1f495f5d265f1fd0a3285f60405161091f9190612ed9565b60405180910390a15b6109328133612095565b610aa55760045f3373ffffffffffffffffffffffffffffffffffffffff1673ffffffffffffffffffffffffffffffffffffffff1681526020019081526020015f2081908060018154018082558091505060019003905f5260205f20015f9091909190916101000a81548173ffffffffffffffffffffffffffffffffffffffff021916908373ffffffffffffffffffffffffffffffffffffffff16021790555060035f8273ffffffffffffffffffffffffffffffffffffffff1673ffffffffffffffffffffffffffffffffffffffff1681526020019081526020015f2033908060018154018082558091505060019003905f5260205f20015f9091909190916101000a81548173ffffffffffffffffffffffffffffffffffffffff021916908373ffffffffffffffffffffffffffffffffffffffff1602179055507f51b5c1cd70ba82251c6e1da5ac16e98863d3a0d6e98f1f495f5d265f1fd0a3286001604051610a9c9190612f4f565b60405180910390a15b5b50565b60605f610ab46121b4565b90505f815167ffffffffffffffff811115610ad257610ad16127e0565b5b604051908082528060200260200182016040528015610b0b57816020015b610af8612340565b815260200190600190039081610af05790505b5090505f5b8251811015610ba0575f80610b3e858481518110610b3157610b30612f7b565b5b602002602001015161100a565b9150915060405180604001604052808373ffffffffffffffffffffffffffffffffffffffff16815260200182815250848481518110610b8057610b7f612f7b565b5b602002602001018190525050508080610b9890612fd5565b915050610b10565b50809250505090565b5f60025f8873ffffffffffffffffffffffffffffffffffffffff1673ffffffffffffffffffffffffffffffffffffffff1681526020019081526020015f20600160025f8a73ffffffffffffffffffffffffffffffffffffffff1673ffffffffffffffffffffffffffffffffffffffff1681526020019081526020015f2080549050610c34919061301c565b81548110610c4557610c44612f7b565b5b905f5260205f2090600c0201905082816007019081610c6491906131ec565b5085816008019081610c7691906131ec565b5084816009019081610c8891906131ec565b508381600a019081610c9a91906131ec565b508181600b019081610cac91906131ec565b507ff903f80e54509ca321c310c86129bb632d6fddea9f375c9f0605a5173c42c3016001604051610cdd9190613305565b60405180910390a150505050505050565b60015f815480929190610d0090612fd5565b919050555060025f3373ffffffffffffffffffffffffffffffffffffffff1673ffffffffffffffffffffffffffffffffffffffff1681526020019081526020015f2060405180610180016040528060015481526020013373ffffffffffffffffffffffffffffffffffffffff1681526020014281526020018581526020018481526020018381526020015f8054906101000a900473ffffffffffffffffffffffffffffffffffffffff1673ffffffffffffffffffffffffffffffffffffffff1663602b386e336040518263ffffffff1660e01b8152600401610de29190612d6b565b5f60405180830381865afa158015610dfc573d5f803e3d5ffd5b505050506040513d5f823e3d601f19601f82011682018060405250810190610e2491906134cb565b60800151815260200160405180602001604052805f815250815260200160405180602001604052805f815250815260200160405180602001604052805f815250815260200160405180602001604052805f815250815260200160405180602001604052805f815250815250908060018154018082558091505060019003905f5260205f2090600c02015f909190919091505f820151815f01556020820151816001015f6101000a81548173ffffffffffffffffffffffffffffffffffffffff021916908373ffffffffffffffffffffffffffffffffffffffff160217905550604082015181600201556060820151816003019081610f2291906131ec565b506080820151816004019081610f3891906131ec565b5060a0820151816005015560c0820151816006019081610f5891906131ec565b5060e0820151816007019081610f6e91906131ec565b50610100820151816008019081610f8591906131ec565b50610120820151816009019081610f9c91906131ec565b5061014082015181600a019081610fb391906131ec565b5061016082015181600b019081610fca91906131ec565b5050507f023edfb79c1a2ee5aafc91de9cc50e20473a84d18b65ac85e9a3043032d21b1d6001604051610ffd919061355c565b60405180910390a1505050565b5f60605f8054906101000a900473ffffffffffffffffffffffffffffffffffffffff1673ffffffffffffffffffffffffffffffffffffffff1663a5025222846040518263ffffffff1660e01b81526004016110659190612d6b565b602060405180830381865afa158015611080573d5f803e3d5ffd5b505050506040513d601f19601f820116820180604052508101906110a49190612db9565b6110e3576040517f08c379a00000000000000000000000000000000000000000000000000000000081526004016110da906135f8565b60405180910390fd5b5f8054906101000a900473ffffffffffffffffffffffffffffffffffffffff1673ffffffffffffffffffffffffffffffffffffffff1663602b386e846040518263ffffffff1660e01b815260040161113b9190612d6b565b5f60405180830381865afa158015611155573d5f803e3d5ffd5b505050506040513d5f823e3d601f19601f8201168201806040525081019061117d91906134cb565b602001515f8054906101000a900473ffffffffffffffffffffffffffffffffffffffff1673ffffffffffffffffffffffffffffffffffffffff1663602b386e856040518263ffffffff1660e01b81526004016111d99190612d6b565b5f60405180830381865afa1580156111f3573d5f803e3d5ffd5b505050506040513d5f823e3d601f19601f8201168201806040525081019061121b91906134cb565b5f015191509150915091565b6002602052815f5260405f208181548110611240575f80fd5b905f5260205f2090600c02015f9150915050805f015490806001015f9054906101000a900473ffffffffffffffffffffffffffffffffffffffff169080600201549080600301805461129190612d3b565b80601f01602080910402602001604051908101604052809291908181526020018280546112bd90612d3b565b80156113085780601f106112df57610100808354040283529160200191611308565b820191905f5260205f20905b8154815290600101906020018083116112eb57829003601f168201915b50505050509080600401805461131d90612d3b565b80601f016020809104026020016040519081016040528092919081815260200182805461134990612d3b565b80156113945780601f1061136b57610100808354040283529160200191611394565b820191905f5260205f20905b81548152906001019060200180831161137757829003601f168201915b5050505050908060050154908060060180546113af90612d3b565b80601f01602080910402602001604051908101604052809291908181526020018280546113db90612d3b565b80156114265780601f106113fd57610100808354040283529160200191611426565b820191905f5260205f20905b81548152906001019060200180831161140957829003601f168201915b50505050509080600701805461143b90612d3b565b80601f016020809104026020016040519081016040528092919081815260200182805461146790612d3b565b80156114b25780601f10611489576101008083540402835291602001916114b2565b820191905f5260205f20905b81548152906001019060200180831161149557829003601f168201915b5050505050908060080180546114c790612d3b565b80601f01602080910402602001604051908101604052809291908181526020018280546114f390612d3b565b801561153e5780601f106115155761010080835404028352916020019161153e565b820191905f5260205f20905b81548152906001019060200180831161152157829003601f168201915b50505050509080600901805461155390612d3b565b80601f016020809104026020016040519081016040528092919081815260200182805461157f90612d3b565b80156115ca5780601f106115a1576101008083540402835291602001916115ca565b820191905f5260205f20905b8154815290600101906020018083116115ad57829003601f168201915b50505050509080600a0180546115df90612d3b565b80601f016020809104026020016040519081016040528092919081815260200182805461160b90612d3b565b80156116565780601f1061162d57610100808354040283529160200191611656565b820191905f5260205f20905b81548152906001019060200180831161163957829003601f168201915b50505050509080600b01805461166b90612d3b565b80601f016020809104026020016040519081016040528092919081815260200182805461169790612d3b565b80156116e25780601f106116b9576101008083540402835291602001916116e2565b820191905f5260205f20905b8154815290600101906020018083116116c557829003601f168201915b505050505090508c565b5f5b60045f3373ffffffffffffffffffffffffffffffffffffffff1673ffffffffffffffffffffffffffffffffffffffff1681526020019081526020015f2080549050811015611a01578173ffffffffffffffffffffffffffffffffffffffff1660045f3373ffffffffffffffffffffffffffffffffffffffff1673ffffffffffffffffffffffffffffffffffffffff1681526020019081526020015f20828154811061179c5761179b612f7b565b5b905f5260205f20015f9054906101000a900473ffffffffffffffffffffffffffffffffffffffff1673ffffffffffffffffffffffffffffffffffffffff16036119b65760045f3373ffffffffffffffffffffffffffffffffffffffff1673ffffffffffffffffffffffffffffffffffffffff1681526020019081526020015f20600160045f3373ffffffffffffffffffffffffffffffffffffffff1673ffffffffffffffffffffffffffffffffffffffff1681526020019081526020015f2080549050611869919061301c565b8154811061187a57611879612f7b565b5b905f5260205f20015f9054906101000a900473ffffffffffffffffffffffffffffffffffffffff1660045f3373ffffffffffffffffffffffffffffffffffffffff1673ffffffffffffffffffffffffffffffffffffffff1681526020019081526020015f2082815481106118f1576118f0612f7b565b5b905f5260205f20015f6101000a81548173ffffffffffffffffffffffffffffffffffffffff021916908373ffffffffffffffffffffffffffffffffffffffff16021790555060045f3373ffffffffffffffffffffffffffffffffffffffff1673ffffffffffffffffffffffffffffffffffffffff1681526020019081526020015f2080548061198357611982613616565b5b600190038181905f5260205f20015f6101000a81549073ffffffffffffffffffffffffffffffffffffffff021916905590555b7ff2779567ef294623d0bdff2fcca55816cbc032785e55cfa59669faa92d1bb59160016040516119e6919061368d565b60405180910390a180806119f990612fd5565b9150506116ee565b5050565b606060025f3373ffffffffffffffffffffffffffffffffffffffff1673ffffffffffffffffffffffffffffffffffffffff1681526020019081526020015f20805480602002602001604051908101604052809291908181526020015f905b82821015611f86578382905f5260205f2090600c0201604051806101800160405290815f8201548152602001600182015f9054906101000a900473ffffffffffffffffffffffffffffffffffffffff1673ffffffffffffffffffffffffffffffffffffffff1673ffffffffffffffffffffffffffffffffffffffff16815260200160028201548152602001600382018054611afd90612d3b565b80601f0160208091040260200160405190810160405280929190818152602001828054611b2990612d3b565b8015611b745780601f10611b4b57610100808354040283529160200191611b74565b820191905f5260205f20905b815481529060010190602001808311611b5757829003601f168201915b50505050508152602001600482018054611b8d90612d3b565b80601f0160208091040260200160405190810160405280929190818152602001828054611bb990612d3b565b8015611c045780601f10611bdb57610100808354040283529160200191611c04565b820191905f5260205f20905b815481529060010190602001808311611be757829003601f168201915b5050505050815260200160058201548152602001600682018054611c2790612d3b565b80601f0160208091040260200160405190810160405280929190818152602001828054611c5390612d3b565b8015611c9e5780601f10611c7557610100808354040283529160200191611c9e565b820191905f5260205f20905b815481529060010190602001808311611c8157829003601f168201915b50505050508152602001600782018054611cb790612d3b565b80601f0160208091040260200160405190810160405280929190818152602001828054611ce390612d3b565b8015611d2e5780601f10611d0557610100808354040283529160200191611d2e565b820191905f5260205f20905b815481529060010190602001808311611d1157829003601f168201915b50505050508152602001600882018054611d4790612d3b565b80601f0160208091040260200160405190810160405280929190818152602001828054611d7390612d3b565b8015611dbe5780601f10611d9557610100808354040283529160200191611dbe565b820191905f5260205f20905b815481529060010190602001808311611da157829003601f168201915b50505050508152602001600982018054611dd790612d3b565b80601f0160208091040260200160405190810160405280929190818152602001828054611e0390612d3b565b8015611e4e5780601f10611e2557610100808354040283529160200191611e4e565b820191905f5260205f20905b815481529060010190602001808311611e3157829003601f168201915b50505050508152602001600a82018054611e6790612d3b565b80601f0160208091040260200160405190810160405280929190818152602001828054611e9390612d3b565b8015611ede5780601f10611eb557610100808354040283529160200191611ede565b820191905f5260205f20905b815481529060010190602001808311611ec157829003601f168201915b50505050508152602001600b82018054611ef790612d3b565b80601f0160208091040260200160405190810160405280929190818152602001828054611f2390612d3b565b8015611f6e5780601f10611f4557610100808354040283529160200191611f6e565b820191905f5260205f20905b815481529060010190602001808311611f5157829003601f168201915b50505050508152505081526020019060010190611a63565b50505050905090565b60605f611f9a61227a565b90505f815167ffffffffffffffff811115611fb857611fb76127e0565b5b604051908082528060200260200182016040528015611ff157816020015b611fde612340565b815260200190600190039081611fd65790505b5090505f5b8251811015612086575f8061202485848151811061201757612016612f7b565b5b602002602001015161100a565b9150915060405180604001604052808373ffffffffffffffffffffffffffffffffffffffff1681526020018281525084848151811061206657612065612f7b565b5b60200260200101819052505050808061207e90612fd5565b915050611ff6565b50809250505090565b60015481565b5f805f90505b60045f8473ffffffffffffffffffffffffffffffffffffffff1673ffffffffffffffffffffffffffffffffffffffff1681526020019081526020015f20805490508110156121a9578373ffffffffffffffffffffffffffffffffffffffff1660045f8573ffffffffffffffffffffffffffffffffffffffff1673ffffffffffffffffffffffffffffffffffffffff1681526020019081526020015f20828154811061214957612148612f7b565b5b905f5260205f20015f9054906101000a900473ffffffffffffffffffffffffffffffffffffffff1673ffffffffffffffffffffffffffffffffffffffff16036121965760019150506121ae565b80806121a190612fd5565b91505061209b565b505f90505b92915050565b606060035f3373ffffffffffffffffffffffffffffffffffffffff1673ffffffffffffffffffffffffffffffffffffffff1681526020019081526020015f2080548060200260200160405190810160405280929190818152602001828054801561227057602002820191905f5260205f20905b815f9054906101000a900473ffffffffffffffffffffffffffffffffffffffff1673ffffffffffffffffffffffffffffffffffffffff1681526020019060010190808311612227575b5050505050905090565b606060045f3373ffffffffffffffffffffffffffffffffffffffff1673ffffffffffffffffffffffffffffffffffffffff1681526020019081526020015f2080548060200260200160405190810160405280929190818152602001828054801561233657602002820191905f5260205f20905b815f9054906101000a900473ffffffffffffffffffffffffffffffffffffffff1673ffffffffffffffffffffffffffffffffffffffff16815260200190600101908083116122ed575b5050505050905090565b60405180604001604052805f73ffffffffffffffffffffffffffffffffffffffff168152602001606081525090565b5f604051905090565b5f80fd5b5f80fd5b5f73ffffffffffffffffffffffffffffffffffffffff82169050919050565b5f6123a982612380565b9050919050565b6123b98161239f565b81146123c3575f80fd5b50565b5f813590506123d4816123b0565b92915050565b5f602082840312156123ef576123ee612378565b5b5f6123fc848285016123c6565b91505092915050565b5f81519050919050565b5f82825260208201905092915050565b5f819050602082019050919050565b5f819050919050565b6124408161242e565b82525050565b61244f8161239f565b82525050565b5f81519050919050565b5f82825260208201905092915050565b5f5b8381101561248c578082015181840152602081019050612471565b5f8484015250505050565b5f601f19601f8301169050919050565b5f6124b182612455565b6124bb818561245f565b93506124cb81856020860161246f565b6124d481612497565b840191505092915050565b5f61018083015f8301516124f55f860182612437565b5060208301516125086020860182612446565b50604083015161251b6040860182612437565b506060830151848203606086015261253382826124a7565b9150506080830151848203608086015261254d82826124a7565b91505060a083015161256260a0860182612437565b5060c083015184820360c086015261257a82826124a7565b91505060e083015184820360e086015261259482826124a7565b9150506101008301518482036101008601526125b082826124a7565b9150506101208301518482036101208601526125cc82826124a7565b9150506101408301518482036101408601526125e882826124a7565b91505061016083015184820361016086015261260482826124a7565b9150508091505092915050565b5f61261c83836124df565b905092915050565b5f602082019050919050565b5f61263a82612405565b612644818561240f565b9350836020820285016126568561241f565b805f5b8581101561269157848403895281516126728582612611565b945061267d83612624565b925060208a01995050600181019050612659565b50829750879550505050505092915050565b5f6020820190508181035f8301526126bb8184612630565b905092915050565b5f81519050919050565b5f82825260208201905092915050565b5f819050602082019050919050565b5f604083015f8301516127015f860182612446565b506020830151848203602086015261271982826124a7565b9150508091505092915050565b5f61273183836126ec565b905092915050565b5f602082019050919050565b5f61274f826126c3565b61275981856126cd565b93508360208202850161276b856126dd565b805f5b858110156127a657848403895281516127878582612726565b945061279283612739565b925060208a0199505060018101905061276e565b50829750879550505050505092915050565b5f6020820190508181035f8301526127d08184612745565b905092915050565b5f80fd5b5f80fd5b7f4e487b71000000000000000000000000000000000000000000000000000000005f52604160045260245ffd5b61281682612497565b810181811067ffffffffffffffff82111715612835576128346127e0565b5b80604052505050565b5f61284761236f565b9050612853828261280d565b919050565b5f67ffffffffffffffff821115612872576128716127e0565b5b61287b82612497565b9050602081019050919050565b828183375f83830152505050565b5f6128a86128a384612858565b61283e565b9050828152602081018484840111156128c4576128c36127dc565b5b6128cf848285612888565b509392505050565b5f82601f8301126128eb576128ea6127d8565b5b81356128fb848260208601612896565b91505092915050565b5f805f805f8060c0878903121561291e5761291d612378565b5b5f61292b89828a016123c6565b965050602087013567ffffffffffffffff81111561294c5761294b61237c565b5b61295889828a016128d7565b955050604087013567ffffffffffffffff8111156129795761297861237c565b5b61298589828a016128d7565b945050606087013567ffffffffffffffff8111156129a6576129a561237c565b5b6129b289828a016128d7565b935050608087013567ffffffffffffffff8111156129d3576129d261237c565b5b6129df89828a016128d7565b92505060a087013567ffffffffffffffff811115612a00576129ff61237c565b5b612a0c89828a016128d7565b9150509295509295509295565b612a228161242e565b8114612a2c575f80fd5b50565b5f81359050612a3d81612a19565b92915050565b5f805f60608486031215612a5a57612a59612378565b5b5f84013567ffffffffffffffff811115612a7757612a7661237c565b5b612a83868287016128d7565b935050602084013567ffffffffffffffff811115612aa457612aa361237c565b5b612ab0868287016128d7565b9250506040612ac186828701612a2f565b9150509250925092565b612ad48161239f565b82525050565b5f82825260208201905092915050565b5f612af482612455565b612afe8185612ada565b9350612b0e81856020860161246f565b612b1781612497565b840191505092915050565b5f604082019050612b355f830185612acb565b8181036020830152612b478184612aea565b90509392505050565b5f8060408385031215612b6657612b65612378565b5b5f612b73858286016123c6565b9250506020612b8485828601612a2f565b9150509250929050565b612b978161242e565b82525050565b5f61018082019050612bb15f83018f612b8e565b612bbe602083018e612acb565b612bcb604083018d612b8e565b8181036060830152612bdd818c612aea565b90508181036080830152612bf1818b612aea565b9050612c0060a083018a612b8e565b81810360c0830152612c128189612aea565b905081810360e0830152612c268188612aea565b9050818103610100830152612c3b8187612aea565b9050818103610120830152612c508186612aea565b9050818103610140830152612c658185612aea565b9050818103610160830152612c7a8184612aea565b90509d9c50505050505050505050505050565b5f602082019050612ca05f830184612b8e565b92915050565b7f796f7520617265206e6f7420617574686f72697a6564000000000000000000005f82015250565b5f612cda601683612ada565b9150612ce582612ca6565b602082019050919050565b5f6020820190508181035f830152612d0781612cce565b9050919050565b7f4e487b71000000000000000000000000000000000000000000000000000000005f52602260045260245ffd5b5f6002820490506001821680612d5257607f821691505b602082108103612d6557612d64612d0e565b5b50919050565b5f602082019050612d7e5f830184612acb565b92915050565b5f8115159050919050565b612d9881612d84565b8114612da2575f80fd5b50565b5f81519050612db381612d8f565b92915050565b5f60208284031215612dce57612dcd612378565b5b5f612ddb84828501612da5565b91505092915050565b612ded81612d84565b82525050565b7f5468697320646f63746f72206973206e6f7420796574207265676973746572655f8201527f6400000000000000000000000000000000000000000000000000000000000000602082015250565b5f612e4d602183612ada565b9150612e5882612df3565b604082019050919050565b5f604082019050612e765f830184612de4565b8181036020830152612e8781612e41565b905092915050565b7f446f63746f7220697320616c726561647920617574686f7269736564200000005f82015250565b5f612ec3601d83612ada565b9150612ece82612e8f565b602082019050919050565b5f604082019050612eec5f830184612de4565b8181036020830152612efd81612eb7565b905092915050565b7f446f63746f7220697320616464656420207375636375737366756c6c792000005f82015250565b5f612f39601e83612ada565b9150612f4482612f05565b602082019050919050565b5f604082019050612f625f830184612de4565b8181036020830152612f7381612f2d565b905092915050565b7f4e487b71000000000000000000000000000000000000000000000000000000005f52603260045260245ffd5b7f4e487b71000000000000000000000000000000000000000000000000000000005f52601160045260245ffd5b5f612fdf8261242e565b91507fffffffffffffffffffffffffffffffffffffffffffffffffffffffffffffffff820361301157613010612fa8565b5b600182019050919050565b5f6130268261242e565b91506130318361242e565b925082820390508181111561304957613048612fa8565b5b92915050565b5f819050815f5260205f209050919050565b5f6020601f8301049050919050565b5f82821b905092915050565b5f600883026130ab7fffffffffffffffffffffffffffffffffffffffffffffffffffffffffffffffff82613070565b6130b58683613070565b95508019841693508086168417925050509392505050565b5f819050919050565b5f6130f06130eb6130e68461242e565b6130cd565b61242e565b9050919050565b5f819050919050565b613109836130d6565b61311d613115826130f7565b84845461307c565b825550505050565b5f90565b613131613125565b61313c818484613100565b505050565b5b8181101561315f576131545f82613129565b600181019050613142565b5050565b601f8211156131a4576131758161304f565b61317e84613061565b8101602085101561318d578190505b6131a161319985613061565b830182613141565b50505b505050565b5f82821c905092915050565b5f6131c45f19846008026131a9565b1980831691505092915050565b5f6131dc83836131b5565b9150826002028217905092915050565b6131f582612455565b67ffffffffffffffff81111561320e5761320d6127e0565b5b6132188254612d3b565b613223828285613163565b5f60209050601f831160018114613254575f8415613242578287015190505b61324c85826131d1565b8655506132b3565b601f1984166132628661304f565b5f5b8281101561328957848901518255600182019150602085019450602081019050613264565b868310156132a657848901516132a2601f8916826131b5565b8355505b6001600288020188555050505b505050505050565b7f5265636f726420757064617465642073756363657373666c6c790000000000005f82015250565b5f6132ef601a83612ada565b91506132fa826132bb565b602082019050919050565b5f6040820190506133185f830184612de4565b8181036020830152613329816132e3565b905092915050565b5f80fd5b5f80fd5b5f61334b61334684612858565b61283e565b905082815260208101848484011115613367576133666127dc565b5b61337284828561246f565b509392505050565b5f82601f83011261338e5761338d6127d8565b5b815161339e848260208601613339565b91505092915050565b5f815190506133b5816123b0565b92915050565b5f819050919050565b6133cd816133bb565b81146133d7575f80fd5b50565b5f815190506133e8816133c4565b92915050565b5f60a0828403121561340357613402613331565b5b61340d60a061283e565b90505f82015167ffffffffffffffff81111561342c5761342b613335565b5b6134388482850161337a565b5f83015250602061344b848285016133a7565b602083015250604061345f848285016133da565b604083015250606082015167ffffffffffffffff81111561348357613482613335565b5b61348f8482850161337a565b606083015250608082015167ffffffffffffffff8111156134b3576134b2613335565b5b6134bf8482850161337a565b60808301525092915050565b5f602082840312156134e0576134df612378565b5b5f82015167ffffffffffffffff8111156134fd576134fc61237c565b5b613509848285016133ee565b91505092915050565b7f5265636f72642063726561746564207375636375737366756c6c7900000000005f82015250565b5f613546601b83612ada565b915061355182613512565b602082019050919050565b5f60408201905061356f5f830184612de4565b81810360208301526135808161353a565b905092915050565b7f7468657265206973206e6f2075736572207769746820746869732061646472655f8201527f7373000000000000000000000000000000000000000000000000000000000000602082015250565b5f6135e2602283612ada565b91506135ed82613588565b604082019050919050565b5f6020820190508181035f83015261360f816135d6565b9050919050565b7f4e487b71000000000000000000000000000000000000000000000000000000005f52603160045260245ffd5b7f446f63746f722069732072656d6f76656420737563636566756c7900000000005f82015250565b5f613677601b83612ada565b915061368282613643565b602082019050919050565b5f6040820190506136a05f830184612de4565b81810360208301526136b18161366b565b90509291505056fea26469706673582212207bffa2fff6af685f8c0035f94f31999f07056ac6ecd708f35138ef30f280747b64736f6c63430008150033",
  "immutableReferences": {},
  "source": "  // SPDX-License-Identifier: MIT\r\npragma solidity ^0.8.0;\r\nimport \"./IRegister.sol\";\r\n\r\ncontract MedicalRecord {\r\n    IRegister registerFunctions;\r\n    constructor(address _registerContractAddress) {\r\n        registerFunctions=IRegister(_registerContractAddress);\r\n    }\r\n   uint public recordId;\r\n            mapping(address => Record[]) public records;\r\n\r\n            mapping(address => address[]) authorisedPatients ;\r\n            mapping(address => address[]) authorisedDoctors ;  \r\n\r\n        //construire le record medical\r\n            struct Record {\r\n                uint recordId;\r\n                address patient;\r\n                uint timestamp;\r\n                string Fname;\r\n                string Lname;\r\n                uint age;\r\n                string N_assurance;\r\n                string date_consultation;\r\n                string diagnostic;\r\n                string resulta_diagnostic;\r\n                string observation_Medicale;\r\n                string treatment;\r\n            }\r\n             \r\n            function checkDoctorAuthorization(address doctorAddress,address patient) internal view returns (bool) {\r\n                for (uint i = 0; i < authorisedDoctors[patient].length; i++) {\r\n                    if (authorisedDoctors[patient][i] == doctorAddress) {\r\n                        return true; \r\n                    }\r\n                }\r\n                return false; \r\n            }\r\n        \r\n\r\n                //  **************Patient ******************//\r\n            \r\n\r\n          \r\n\r\n        \r\n            event authorisedDoctorevent(bool isAdded , string msg);\r\n             function addAuthorisedDoctor(address doctorAddress ) public  {\r\n\r\n              if(registerFunctions.addressExists(doctorAddress)==false){\r\n                      emit authorisedDoctorevent(false, \"This doctor is not yet registered\");\r\n                     return;\r\n                }\r\n              if(checkDoctorAuthorization(doctorAddress,msg.sender)){\r\n                emit authorisedDoctorevent(false, \"Doctor is already authorised \");\r\n               }\r\n                if(!checkDoctorAuthorization(doctorAddress,msg.sender)){\r\n                     authorisedDoctors[msg.sender].push(doctorAddress);\r\n                     authorisedPatients[doctorAddress].push(msg.sender); \r\n                    emit authorisedDoctorevent(true, \"Doctor is added  succussfully \");\r\n                }\r\n              \r\n            }\r\n             \r\n            //remove l'authorisation d'un  doctoreur de consulter le dossier medical\r\n        event removedDoctor(bool isRemoved,string msg);\r\n        function removeDoctor(address doctorAddress) public {\r\n           \r\n                 for (uint i = 0; i < authorisedDoctors[msg.sender].length; i++) {\r\n                    if (authorisedDoctors[msg.sender][i] == doctorAddress) {\r\n                    authorisedDoctors[msg.sender][i] = authorisedDoctors[msg.sender][authorisedDoctors[msg.sender].length - 1];\r\n                        authorisedDoctors[msg.sender].pop();\r\n            \r\n                }\r\n                 emit removedDoctor(true,\"Doctor is removed succefuly\");\r\n\r\n            }\r\n               \r\n        }\r\n        event recordCreated(bool isCreated, string  msg);\r\n         function addRecord(\r\n            \r\n                string memory Fname,\r\n                string memory Lname,\r\n                uint age\r\n            ) public  {\r\n                recordId++;\r\n                records[msg.sender].push(\r\n                     Record({\r\n                    recordId: recordId,\r\n                    patient: msg.sender,\r\n                    timestamp: block.timestamp,\r\n                    Fname: Fname,\r\n                    Lname: Lname,\r\n                    age: age,\r\n                    N_assurance:registerFunctions.getUsers(msg.sender).IdentifierN,\r\n                    date_consultation: \"\",\r\n                    diagnostic: \"\",\r\n                    resulta_diagnostic: \"\",\r\n                    observation_Medicale: \"\",\r\n                    treatment: \"\"\r\n                })\r\n                );\r\n                 emit recordCreated(true, \"Record created succussfully\");\r\n            }\r\n            function getAllRecord() public view returns(Record[] memory record){\r\n                return records[msg.sender];\r\n            }\r\n            \r\n\r\n                //  **************Doctor//\r\n\r\n        \r\n           \r\n       \r\nevent RecordUpdated(bool isUpdated,string msg);\r\n         //modification d'aprs les medecins\r\n            function updateMedicalInfo(\r\n                address patient,\r\n                string memory diagnostic,\r\n                string memory resulta_diagnostic,\r\n                string memory observation_Medicale,\r\n                string memory date_consultation,\r\n                string memory treatment\r\n            ) public {\r\n                Record storage record = records[patient][records[patient].length-1];\r\n                record.date_consultation = date_consultation;\r\n                record.diagnostic = diagnostic;\r\n                record.resulta_diagnostic = resulta_diagnostic;\r\n                record.observation_Medicale = observation_Medicale;\r\n                record.treatment = treatment;\r\n                emit RecordUpdated(true,\"Record updated successflly\");\r\n                \r\n            }\r\n            function getPatientAuthorised() internal  view returns(address[] memory) {\r\n                       return authorisedPatients[msg.sender];\r\n                       \r\n            }\r\n            function getPatientRecord(address patient) public view returns (Record[] memory){\r\n                require(checkDoctorAuthorization(msg.sender,patient), \"you are not authorized\");\r\n                     return  records[patient];\r\n            }\r\n                    struct UserInfo {\r\n                    address doctorAddress;\r\n                    string name;\r\n}\r\n\r\n\r\n            function getPatientAuthorisedInfo() public view returns (UserInfo[] memory) {\r\n                address[] memory patientAddresses = getPatientAuthorised();\r\n               UserInfo[] memory patients = new UserInfo[](patientAddresses.length);\r\n\r\n                for (uint i = 0; i < patientAddresses.length; i++) {\r\n                    (address addr, string memory name) = getUserInfo(patientAddresses[i]);\r\n                    patients[i] =UserInfo(addr, name);\r\n                }\r\n\r\n                return patients;\r\n            }\r\n\r\n\r\n\r\n             function getDoctorAuthorisedInfo() public view returns (UserInfo[] memory) {\r\n                address[] memory doctorAddresses = getDoctorAuthorised();\r\n                UserInfo[] memory doctors = new UserInfo[](doctorAddresses.length);\r\n\r\n                for (uint i = 0; i < doctorAddresses.length; i++) {\r\n                    (address addr, string memory name) = getUserInfo(doctorAddresses[i]);\r\n                    doctors[i] = UserInfo(addr, name);\r\n                }\r\n\r\n                return doctors;\r\n            }\r\n\r\n            function getUserInfo(address _userAddress) public view returns (address ,string memory ) {\r\n                  require(registerFunctions.addressExists(_userAddress),\"there is no user with this address\");\r\n                return(registerFunctions.getUsers(_userAddress).userAddress ,registerFunctions.getUsers(_userAddress).name );\r\n    }\r\n         function getDoctorAuthorised() internal  view returns(address[] memory) {\r\n                       return authorisedDoctors[msg.sender];\r\n            }\r\n            \r\n         \r\n}",
  "sourcePath": "C:\\Users\\safouane\\Desktop\\healthCare_blockChain\\contracts\\medicalRecord.sol",
  "compiler": {
    "name": "solc",
    "version": "0.8.21+commit.d9974bed.Emscripten.clang"
  },
  "schemaVersion": "3.4.16",
  "updatedAt": "2024-05-09T19:40:41.280Z",
  "networkType": "ethereum",
  "devdoc": {
    "kind": "dev",
    "methods": {},
    "version": 1
  },
  "userdoc": {
    "kind": "user",
    "methods": {},
    "version": 1
  }
}