{
  "contractName": "prescription",
  "abi": [
    {
      "anonymous": false,
      "inputs": [
        {
          "indexed": false,
          "internalType": "bool",
          "name": "isCreated",
          "type": "bool"
        },
        {
          "indexed": false,
          "internalType": "string",
          "name": "msg",
          "type": "string"
        }
      ],
      "name": "PrescriptionCreated",
      "type": "event"
    },
    {
      "anonymous": false,
      "inputs": [
        {
          "indexed": false,
          "internalType": "bytes32",
          "name": "prescriptionId",
          "type": "bytes32"
        },
        {
          "indexed": false,
          "internalType": "address",
          "name": "signer",
          "type": "address"
        }
      ],
      "name": "PrescriptionSigned",
      "type": "event"
    },
    {
      "anonymous": false,
      "inputs": [
        {
          "indexed": false,
          "internalType": "bool",
          "name": "isSignedByPatient",
          "type": "bool"
        },
        {
          "indexed": false,
          "internalType": "string",
          "name": "msg",
          "type": "string"
        }
      ],
      "name": "prescriptionSigned",
      "type": "event"
    },
    {
      "anonymous": false,
      "inputs": [
        {
          "indexed": false,
          "internalType": "bool",
          "name": "isSignedByPatient",
          "type": "bool"
        },
        {
          "indexed": false,
          "internalType": "bool",
          "name": "isSignedByPhramacy",
          "type": "bool"
        },
        {
          "indexed": false,
          "internalType": "string",
          "name": "msg",
          "type": "string"
        }
      ],
      "name": "prescriptionSigned",
      "type": "event"
    },
    {
      "inputs": [
        {
          "internalType": "address",
          "name": "",
          "type": "address"
        },
        {
          "internalType": "uint256",
          "name": "",
          "type": "uint256"
        }
      ],
      "name": "prescriptions",
      "outputs": [
        {
          "internalType": "uint256",
          "name": "id",
          "type": "uint256"
        },
        {
          "internalType": "address",
          "name": "doctor",
          "type": "address"
        },
        {
          "internalType": "address",
          "name": "patient",
          "type": "address"
        },
        {
          "internalType": "bool",
          "name": "signedByDoctor",
          "type": "bool"
        },
        {
          "internalType": "bool",
          "name": "signedByPatient",
          "type": "bool"
        },
        {
          "internalType": "bool",
          "name": "destroyPrescreption",
          "type": "bool"
        }
      ],
      "stateMutability": "view",
      "type": "function",
      "constant": true
    },
    {
      "inputs": [
        {
          "internalType": "address",
          "name": "patient",
          "type": "address"
        },
        {
          "components": [
            {
              "internalType": "uint256",
              "name": "medicationId",
              "type": "uint256"
            },
            {
              "internalType": "string",
              "name": "medicationName",
              "type": "string"
            },
            {
              "internalType": "string",
              "name": "quantity",
              "type": "string"
            },
            {
              "internalType": "string",
              "name": "dosage",
              "type": "string"
            },
            {
              "internalType": "bool",
              "name": "signedbyPharmacie",
              "type": "bool"
            }
          ],
          "internalType": "struct prescription.MedicationObj[]",
          "name": "medications",
          "type": "tuple[]"
        }
      ],
      "name": "createPrescription",
      "outputs": [],
      "stateMutability": "nonpayable",
      "type": "function"
    },
    {
      "inputs": [
        {
          "internalType": "address",
          "name": "patient",
          "type": "address"
        },
        {
          "internalType": "uint256",
          "name": "prescriptionIndex",
          "type": "uint256"
        }
      ],
      "name": "signByPatient",
      "outputs": [],
      "stateMutability": "nonpayable",
      "type": "function"
    },
    {
      "inputs": [
        {
          "internalType": "address",
          "name": "patient",
          "type": "address"
        }
      ],
      "name": "getPrescriptionDetails",
      "outputs": [
        {
          "components": [
            {
              "internalType": "uint256",
              "name": "id",
              "type": "uint256"
            },
            {
              "internalType": "address",
              "name": "doctor",
              "type": "address"
            },
            {
              "internalType": "address",
              "name": "patient",
              "type": "address"
            },
            {
              "components": [
                {
                  "internalType": "uint256",
                  "name": "medicationId",
                  "type": "uint256"
                },
                {
                  "internalType": "string",
                  "name": "medicationName",
                  "type": "string"
                },
                {
                  "internalType": "string",
                  "name": "quantity",
                  "type": "string"
                },
                {
                  "internalType": "string",
                  "name": "dosage",
                  "type": "string"
                },
                {
                  "internalType": "bool",
                  "name": "signedbyPharmacie",
                  "type": "bool"
                }
              ],
              "internalType": "struct prescription.MedicationObj[]",
              "name": "medications",
              "type": "tuple[]"
            },
            {
              "internalType": "bool",
              "name": "signedByDoctor",
              "type": "bool"
            },
            {
              "internalType": "bool",
              "name": "signedByPatient",
              "type": "bool"
            },
            {
              "internalType": "bool",
              "name": "destroyPrescreption",
              "type": "bool"
            }
          ],
          "internalType": "struct prescription.Prescription[]",
          "name": "",
          "type": "tuple[]"
        }
      ],
      "stateMutability": "view",
      "type": "function",
      "constant": true
    },
    {
      "inputs": [
        {
          "internalType": "address",
          "name": "patient",
          "type": "address"
        },
        {
          "internalType": "uint256",
          "name": "prescriptionId",
          "type": "uint256"
        },
        {
          "internalType": "uint256",
          "name": "medicationId",
          "type": "uint256"
        }
      ],
      "name": "signMedication",
      "outputs": [],
      "stateMutability": "nonpayable",
      "type": "function"
    }
  ],
  "bytecode": "0x608060405234801561001057600080fd5b50611d12806100206000396000f3fe608060405234801561001057600080fd5b50600436106100575760003560e01c8063160e59371461005c57806364148056146100785780638fa71ed2146100ad5780639eb6059b146100c9578063c9d39c46146100e5575b600080fd5b610076600480360381019061007191906113d7565b610115565b005b610092600480360381019061008d919061142b565b61050e565b6040516100a496959493929190611967565b60405180910390f35b6100c760048036038101906100c29190611467565b6105ce565b005b6100e360048036038101906100de919061142b565b610b71565b005b6100ff60048036038101906100fa91906113ae565b610d29565b60405161010c91906118ad565b60405180910390f35b60008060008473ffffffffffffffffffffffffffffffffffffffff1673ffffffffffffffffffffffffffffffffffffffff16815260200190815260200160002090506000818054905090506000826001816001815401808255809150500390600052602060002090600502019050818160000181905550338160010160006101000a81548173ffffffffffffffffffffffffffffffffffffffff021916908373ffffffffffffffffffffffffffffffffffffffff160217905550848160020160006101000a81548173ffffffffffffffffffffffffffffffffffffffff021916908373ffffffffffffffffffffffffffffffffffffffff16021790555060008160040160006101000a81548160ff02191690831515021790555060008160040160016101000a81548160ff02191690831515021790555060008160040160026101000a81548160ff02191690831515021790555060005b845181101561042e57816003016040518060a001604052808381526020018784815181106102c3577f4e487b7100000000000000000000000000000000000000000000000000000000600052603260045260246000fd5b602002602001015160200151815260200187848151811061030d577f4e487b7100000000000000000000000000000000000000000000000000000000600052603260045260246000fd5b6020026020010151604001518152602001878481518110610357577f4e487b7100000000000000000000000000000000000000000000000000000000600052603260045260246000fd5b60200260200101516060015181526020016000151581525090806001815401808255809150506001900390600052602060002090600502016000909190919091506000820151816000015560208201518160010190805190602001906103be92919061110d565b5060408201518160020190805190602001906103db92919061110d565b5060608201518160030190805190602001906103f892919061110d565b5060808201518160040160006101000a81548160ff0219169083151502179055505050808061042690611bb0565b91505061026c565b5060016000808773ffffffffffffffffffffffffffffffffffffffff1673ffffffffffffffffffffffffffffffffffffffff16815260200190815260200160002083815481106104a7577f4e487b7100000000000000000000000000000000000000000000000000000000600052603260045260246000fd5b906000526020600020906005020160040160006101000a81548160ff0219169083151502179055507fbb96c47a7e0605ec5bd9cee0c55705693c45c644196cd82e83f623a6679a0eb660016040516104ff919061190b565b60405180910390a15050505050565b6000602052816000526040600020818154811061052a57600080fd5b9060005260206000209060050201600091509150508060000154908060010160009054906101000a900473ffffffffffffffffffffffffffffffffffffffff16908060020160009054906101000a900473ffffffffffffffffffffffffffffffffffffffff16908060040160009054906101000a900460ff16908060040160019054906101000a900460ff16908060040160029054906101000a900460ff16905086565b60008060008573ffffffffffffffffffffffffffffffffffffffff1673ffffffffffffffffffffffffffffffffffffffff1681526020019081526020016000208381548110610646577f4e487b7100000000000000000000000000000000000000000000000000000000600052603260045260246000fd5b906000526020600020906005020160030180549050905060016000808673ffffffffffffffffffffffffffffffffffffffff1673ffffffffffffffffffffffffffffffffffffffff16815260200190815260200160002084815481106106d5577f4e487b7100000000000000000000000000000000000000000000000000000000600052603260045260246000fd5b906000526020600020906005020160040160016101000a81548160ff02191690831515021790551561091d5760005b8181101561091b57826000808773ffffffffffffffffffffffffffffffffffffffff1673ffffffffffffffffffffffffffffffffffffffff1681526020019081526020016000208581548110610783577f4e487b7100000000000000000000000000000000000000000000000000000000600052603260045260246000fd5b906000526020600020906005020160030182815481106107cc577f4e487b7100000000000000000000000000000000000000000000000000000000600052603260045260246000fd5b90600052602060002090600502016000015414156109085760016000808773ffffffffffffffffffffffffffffffffffffffff1673ffffffffffffffffffffffffffffffffffffffff168152602001908152602001600020858154811061085c577f4e487b7100000000000000000000000000000000000000000000000000000000600052603260045260246000fd5b906000526020600020906005020160030182815481106108a5577f4e487b7100000000000000000000000000000000000000000000000000000000600052603260045260246000fd5b906000526020600020906005020160040160006101000a81548160ff0219169083151502179055507f0cbef531210de7d3dc19c21f70c00604885aff7dd6f6ac45543dbd6c42f042f26001806040516108ff9291906118cf565b60405180910390a15b808061091390611bb0565b915050610704565b505b60005b81811015610b6a57600015156000808773ffffffffffffffffffffffffffffffffffffffff1673ffffffffffffffffffffffffffffffffffffffff16815260200190815260200160002085815481106109a2577f4e487b7100000000000000000000000000000000000000000000000000000000600052603260045260246000fd5b906000526020600020906005020160030182815481106109eb577f4e487b7100000000000000000000000000000000000000000000000000000000600052603260045260246000fd5b906000526020600020906005020160040160009054906101000a900460ff1615151415610ab75760008060008773ffffffffffffffffffffffffffffffffffffffff1673ffffffffffffffffffffffffffffffffffffffff1681526020019081526020016000208581548110610a8a577f4e487b7100000000000000000000000000000000000000000000000000000000600052603260045260246000fd5b906000526020600020906005020160040160026101000a81548160ff021916908315150217905550610b6a565b60016000808773ffffffffffffffffffffffffffffffffffffffff1673ffffffffffffffffffffffffffffffffffffffff1681526020019081526020016000208581548110610b2f577f4e487b7100000000000000000000000000000000000000000000000000000000600052603260045260246000fd5b906000526020600020906005020160040160026101000a81548160ff0219169083151502179055508080610b6290611bb0565b915050610920565b5050505050565b3373ffffffffffffffffffffffffffffffffffffffff166000808473ffffffffffffffffffffffffffffffffffffffff1673ffffffffffffffffffffffffffffffffffffffff1681526020019081526020016000208281548110610bfe577f4e487b7100000000000000000000000000000000000000000000000000000000600052603260045260246000fd5b906000526020600020906005020160020160009054906101000a900473ffffffffffffffffffffffffffffffffffffffff1673ffffffffffffffffffffffffffffffffffffffff161415610ced5760016000808473ffffffffffffffffffffffffffffffffffffffff1673ffffffffffffffffffffffffffffffffffffffff1681526020019081526020016000208281548110610cc4577f4e487b7100000000000000000000000000000000000000000000000000000000600052603260045260246000fd5b906000526020600020906005020160040160016101000a81548160ff0219169083151502179055505b7fd27b94e3c659a5408a51baa6f1b765560d92c2f55053109bc41fbae630e88ac36001604051610d1d9190611939565b60405180910390a15050565b606060008060008473ffffffffffffffffffffffffffffffffffffffff1673ffffffffffffffffffffffffffffffffffffffff168152602001908152602001600020905080805480602002602001604051908101604052809291908181526020016000905b8282101561110157838290600052602060002090600502016040518060e0016040529081600082015481526020016001820160009054906101000a900473ffffffffffffffffffffffffffffffffffffffff1673ffffffffffffffffffffffffffffffffffffffff1673ffffffffffffffffffffffffffffffffffffffff1681526020016002820160009054906101000a900473ffffffffffffffffffffffffffffffffffffffff1673ffffffffffffffffffffffffffffffffffffffff1673ffffffffffffffffffffffffffffffffffffffff16815260200160038201805480602002602001604051908101604052809291908181526020016000905b8282101561109957838290600052602060002090600502016040518060a001604052908160008201548152602001600182018054610ec990611b7e565b80601f0160208091040260200160405190810160405280929190818152602001828054610ef590611b7e565b8015610f425780601f10610f1757610100808354040283529160200191610f42565b820191906000526020600020905b815481529060010190602001808311610f2557829003601f168201915b50505050508152602001600282018054610f5b90611b7e565b80601f0160208091040260200160405190810160405280929190818152602001828054610f8790611b7e565b8015610fd45780601f10610fa957610100808354040283529160200191610fd4565b820191906000526020600020905b815481529060010190602001808311610fb757829003601f168201915b50505050508152602001600382018054610fed90611b7e565b80601f016020809104026020016040519081016040528092919081815260200182805461101990611b7e565b80156110665780601f1061103b57610100808354040283529160200191611066565b820191906000526020600020905b81548152906001019060200180831161104957829003601f168201915b505050505081526020016004820160009054906101000a900460ff16151515158152505081526020019060010190610e8c565b5050505081526020016004820160009054906101000a900460ff161515151581526020016004820160019054906101000a900460ff161515151581526020016004820160029054906101000a900460ff16151515158152505081526020019060010190610d8e565b50505050915050919050565b82805461111990611b7e565b90600052602060002090601f01602090048101928261113b5760008555611182565b82601f1061115457805160ff1916838001178555611182565b82800160010185558215611182579182015b82811115611181578251825591602001919060010190611166565b5b50905061118f9190611193565b5090565b5b808211156111ac576000816000905550600101611194565b5090565b60006111c36111be846119f9565b6119c8565b9050808382526020820190508260005b8581101561120357813585016111e988826112c9565b8452602084019350602083019250506001810190506111d3565b5050509392505050565b600061122061121b84611a25565b6119c8565b90508281526020810184848401111561123857600080fd5b611243848285611b3c565b509392505050565b60008135905061125a81611c97565b92915050565b600082601f83011261127157600080fd5b81356112818482602086016111b0565b91505092915050565b60008135905061129981611cae565b92915050565b600082601f8301126112b057600080fd5b81356112c084826020860161120d565b91505092915050565b600060a082840312156112db57600080fd5b6112e560a06119c8565b905060006112f584828501611399565b600083015250602082013567ffffffffffffffff81111561131557600080fd5b6113218482850161129f565b602083015250604082013567ffffffffffffffff81111561134157600080fd5b61134d8482850161129f565b604083015250606082013567ffffffffffffffff81111561136d57600080fd5b6113798482850161129f565b606083015250608061138d8482850161128a565b60808301525092915050565b6000813590506113a881611cc5565b92915050565b6000602082840312156113c057600080fd5b60006113ce8482850161124b565b91505092915050565b600080604083850312156113ea57600080fd5b60006113f88582860161124b565b925050602083013567ffffffffffffffff81111561141557600080fd5b61142185828601611260565b9150509250929050565b6000806040838503121561143e57600080fd5b600061144c8582860161124b565b925050602061145d85828601611399565b9150509250929050565b60008060006060848603121561147c57600080fd5b600061148a8682870161124b565b935050602061149b86828701611399565b92505060406114ac86828701611399565b9150509250925092565b60006114c2838361176f565b905092915050565b60006114d683836117f3565b905092915050565b6114e781611af4565b82525050565b6114f681611af4565b82525050565b600061150782611a75565b6115118185611ab0565b93508360208202850161152385611a55565b8060005b8581101561155f578484038952815161154085826114b6565b945061154b83611a96565b925060208a01995050600181019050611527565b50829750879550505050505092915050565b600061157c82611a80565b6115868185611ac1565b93508360208202850161159885611a65565b8060005b858110156115d457848403895281516115b585826114ca565b94506115c083611aa3565b925060208a0199505060018101905061159c565b50829750879550505050505092915050565b6115ef81611b06565b82525050565b6115fe81611b06565b82525050565b600061160f82611a8b565b6116198185611ad2565b9350611629818560208601611b4b565b61163281611c86565b840191505092915050565b600061164a602683611ae3565b91507f74686520707265736372697074696f6e2069732063726561746564207375636360008301527f6566756c6c7900000000000000000000000000000000000000000000000000006020830152604082019050919050565b60006116b0602283611ae3565b91507f4d656469636174696f6e206973207369676e656420737563636573736566756c60008301527f6c790000000000000000000000000000000000000000000000000000000000006020830152604082019050919050565b6000611716602f83611ae3565b91507f507265736372697074696f6e206973207369676e65642073756363657373656660008301527f756c6c792042792070617469656e7400000000000000000000000000000000006020830152604082019050919050565b600060a083016000830151611787600086018261188f565b506020830151848203602086015261179f8282611604565b915050604083015184820360408601526117b98282611604565b915050606083015184820360608601526117d38282611604565b91505060808301516117e860808601826115e6565b508091505092915050565b600060e08301600083015161180b600086018261188f565b50602083015161181e60208601826114de565b50604083015161183160408601826114de565b506060830151848203606086015261184982826114fc565b915050608083015161185e60808601826115e6565b5060a083015161187160a08601826115e6565b5060c083015161188460c08601826115e6565b508091505092915050565b61189881611b32565b82525050565b6118a781611b32565b82525050565b600060208201905081810360008301526118c78184611571565b905092915050565b60006060820190506118e460008301856115f5565b6118f160208301846115f5565b8181036040830152611902816116a3565b90509392505050565b600060408201905061192060008301846115f5565b81810360208301526119318161163d565b905092915050565b600060408201905061194e60008301846115f5565b818103602083015261195f81611709565b905092915050565b600060c08201905061197c600083018961189e565b61198960208301886114ed565b61199660408301876114ed565b6119a360608301866115f5565b6119b060808301856115f5565b6119bd60a08301846115f5565b979650505050505050565b6000604051905081810181811067ffffffffffffffff821117156119ef576119ee611c57565b5b8060405250919050565b600067ffffffffffffffff821115611a1457611a13611c57565b5b602082029050602081019050919050565b600067ffffffffffffffff821115611a4057611a3f611c57565b5b601f19601f8301169050602081019050919050565b6000819050602082019050919050565b6000819050602082019050919050565b600081519050919050565b600081519050919050565b600081519050919050565b6000602082019050919050565b6000602082019050919050565b600082825260208201905092915050565b600082825260208201905092915050565b600082825260208201905092915050565b600082825260208201905092915050565b6000611aff82611b12565b9050919050565b60008115159050919050565b600073ffffffffffffffffffffffffffffffffffffffff82169050919050565b6000819050919050565b82818337600083830152505050565b60005b83811015611b69578082015181840152602081019050611b4e565b83811115611b78576000848401525b50505050565b60006002820490506001821680611b9657607f821691505b60208210811415611baa57611ba9611c28565b5b50919050565b6000611bbb82611b32565b91507fffffffffffffffffffffffffffffffffffffffffffffffffffffffffffffffff821415611bee57611bed611bf9565b5b600182019050919050565b7f4e487b7100000000000000000000000000000000000000000000000000000000600052601160045260246000fd5b7f4e487b7100000000000000000000000000000000000000000000000000000000600052602260045260246000fd5b7f4e487b7100000000000000000000000000000000000000000000000000000000600052604160045260246000fd5b6000601f19601f8301169050919050565b611ca081611af4565b8114611cab57600080fd5b50565b611cb781611b06565b8114611cc257600080fd5b50565b611cce81611b32565b8114611cd957600080fd5b5056fea2646970667358221220af4f28623d2343eac9b3941c74bb1eaa34729e37503883f6f012f8b7a0207c2964736f6c63430008000033",
  "immutableReferences": {},
  "source": "// SPDX-License-Identifier: MIT\npragma solidity ^0.8.0;\n\ncontract prescription{\nstruct MedicationObj {\n        uint256 medicationId;\n        string medicationName;\n        string quantity;\n        string dosage;\n        bool signedbyPharmacie;\n    }\n\n    struct Prescription {\n        uint256 id;\n        address doctor;\n        address patient;\n        MedicationObj[] medications; \n        bool signedByDoctor;\n        bool signedByPatient;\n        bool destroyPrescreption ;    \n    }\n\n    mapping(address => Prescription[]) public prescriptions;\n\n   \n    event PrescriptionSigned(bytes32 prescriptionId, address signer);\n\n\n    event PrescriptionCreated(bool isCreated , string msg);\n\n    function createPrescription(\n    address patient,\n    MedicationObj[] memory medications\n) external {\n    Prescription[] storage patientPrescriptions = prescriptions[patient];\n\n    uint256 prescriptionId = patientPrescriptions.length; // Utilisation de la longueur du tableau comme ID\n\n    Prescription storage newPrescription = patientPrescriptions.push();\n\n    newPrescription.id = prescriptionId;\n    newPrescription.doctor = msg.sender;\n    newPrescription.patient = patient;\n    newPrescription.signedByDoctor = false;\n    newPrescription.signedByPatient = false;\n    newPrescription.destroyPrescreption=false;\n\n\n    for (uint256 i = 0; i < medications.length; i++) {\n        newPrescription.medications.push(MedicationObj({\n            medicationId: i,\n            medicationName: medications[i].medicationName,\n            quantity: medications[i].quantity,\n            dosage: medications[i].dosage,\n            signedbyPharmacie:false\n        }));\n    }\n     \n        \n             prescriptions[patient][prescriptionId].signedByDoctor = true;\n              emit  PrescriptionCreated(true, \"the prescription is created succefully\");\n\n\n        }\n        \n    \n\n  \n\n       \n\n  \n    event  prescriptionSigned(bool isSignedByPatient,string msg) ;\n    function signByPatient(address patient, uint256 prescriptionIndex) external  {\n        if(prescriptions[patient][prescriptionIndex].patient==msg.sender)\n        prescriptions[patient][prescriptionIndex].signedByPatient = true;\n        emit prescriptionSigned(true,\"Prescription is signed successefully By patient\");\n    \n    }\n\n  function getPrescriptionDetails(address patient ) external view returns (Prescription[] memory) {\n    Prescription[] storage patientPrescriptions = prescriptions[patient];\n    return patientPrescriptions;\n}\nevent prescriptionSigned(bool isSignedByPatient,bool isSignedByPhramacy,string msg);\n\n\n\n///// signed by pharmacie ///////\n\n\n\nfunction signMedication(address patient , uint256 prescriptionId, uint256 medicationId) public {\n       uint256 length= prescriptions[patient][prescriptionId].medications.length;\n        if( prescriptions[patient][prescriptionId].signedByPatient = true){\n              for(uint i=0; i<length; i++) {\n            if(prescriptions[patient][prescriptionId].medications[i].medicationId == medicationId) {\n                prescriptions[patient][prescriptionId].medications[i].signedbyPharmacie = true;\n                emit prescriptionSigned(true,true,\"Medication is signed successefully\");\n            }\n        \n        }\n        }\n\n        for(uint i=0; i<length; i++) {\n            if(prescriptions[patient][prescriptionId].medications[i].signedbyPharmacie == false) {\n                prescriptions[patient][prescriptionId].destroyPrescreption= false;\n                break ;\n            }\n           prescriptions[patient][prescriptionId].destroyPrescreption = true;\n        }\n        }\n}",
  "sourcePath": "/home/safouane/dev/SehaBlock/contracts/prescription.sol",
  "compiler": {
    "name": "solc",
    "version": "0.8.0+commit.c7dfd78e.Emscripten.clang"
  },
  "schemaVersion": "3.4.16",
  "updatedAt": "2024-05-13T12:02:02.023Z",
  "networkType": "ethereum",
  "devdoc": {
    "kind": "dev",
    "methods": {},
    "version": 1
  },
  "userdoc": {
    "kind": "user",
    "methods": {},
    "version": 1
  }
}