{
  "contractName": "prescription",
  "abi": [
    {
      "anonymous": false,
      "inputs": [
        {
          "indexed": false,
          "internalType": "bool",
          "name": "isCreated",
          "type": "bool"
        },
        {
          "indexed": false,
          "internalType": "string",
          "name": "msg",
          "type": "string"
        }
      ],
      "name": "PrescriptionCreated",
      "type": "event"
    },
    {
      "anonymous": false,
      "inputs": [
        {
          "indexed": false,
          "internalType": "bytes32",
          "name": "prescriptionId",
          "type": "bytes32"
        },
        {
          "indexed": false,
          "internalType": "address",
          "name": "signer",
          "type": "address"
        }
      ],
      "name": "PrescriptionSigned",
      "type": "event"
    },
    {
      "anonymous": false,
      "inputs": [
        {
          "indexed": false,
          "internalType": "bool",
          "name": "isSignedByPatient",
          "type": "bool"
        },
        {
          "indexed": false,
          "internalType": "string",
          "name": "msg",
          "type": "string"
        }
      ],
      "name": "prescriptionSigned",
      "type": "event"
    },
    {
      "anonymous": false,
      "inputs": [
        {
          "indexed": false,
          "internalType": "bool",
          "name": "isSignedByPatient",
          "type": "bool"
        },
        {
          "indexed": false,
          "internalType": "bool",
          "name": "isSignedByPhramacy",
          "type": "bool"
        },
        {
          "indexed": false,
          "internalType": "string",
          "name": "msg",
          "type": "string"
        }
      ],
      "name": "prescriptionSigned",
      "type": "event"
    },
    {
      "inputs": [
        {
          "internalType": "address",
          "name": "",
          "type": "address"
        },
        {
          "internalType": "uint256",
          "name": "",
          "type": "uint256"
        }
      ],
      "name": "prescriptions",
      "outputs": [
        {
          "internalType": "uint256",
          "name": "id",
          "type": "uint256"
        },
        {
          "internalType": "address",
          "name": "doctor",
          "type": "address"
        },
        {
          "internalType": "address",
          "name": "patient",
          "type": "address"
        },
        {
          "internalType": "bool",
          "name": "signedByDoctor",
          "type": "bool"
        },
        {
          "internalType": "bool",
          "name": "signedByPatient",
          "type": "bool"
        },
        {
          "internalType": "bool",
          "name": "destroyPrescreption",
          "type": "bool"
        }
      ],
      "stateMutability": "view",
      "type": "function",
      "constant": true
    },
    {
      "inputs": [
        {
          "internalType": "address",
          "name": "patient",
          "type": "address"
        },
        {
          "components": [
            {
              "internalType": "uint256",
              "name": "medicationId",
              "type": "uint256"
            },
            {
              "internalType": "string",
              "name": "medicationName",
              "type": "string"
            },
            {
              "internalType": "string",
              "name": "quantity",
              "type": "string"
            },
            {
              "internalType": "string",
              "name": "dosage",
              "type": "string"
            },
            {
              "internalType": "bool",
              "name": "signedbyPharmacie",
              "type": "bool"
            }
          ],
          "internalType": "struct prescription.MedicationObj[]",
          "name": "medications",
          "type": "tuple[]"
        }
      ],
      "name": "createPrescription",
      "outputs": [],
      "stateMutability": "nonpayable",
      "type": "function"
    },
    {
      "inputs": [
        {
          "internalType": "address",
          "name": "patient",
          "type": "address"
        },
        {
          "internalType": "uint256",
          "name": "prescriptionIndex",
          "type": "uint256"
        }
      ],
      "name": "signByPatient",
      "outputs": [],
      "stateMutability": "nonpayable",
      "type": "function"
    },
    {
      "inputs": [
        {
          "internalType": "address",
          "name": "patient",
          "type": "address"
        }
      ],
      "name": "getPrescriptionDetails",
      "outputs": [
        {
          "components": [
            {
              "internalType": "uint256",
              "name": "id",
              "type": "uint256"
            },
            {
              "internalType": "address",
              "name": "doctor",
              "type": "address"
            },
            {
              "internalType": "address",
              "name": "patient",
              "type": "address"
            },
            {
              "components": [
                {
                  "internalType": "uint256",
                  "name": "medicationId",
                  "type": "uint256"
                },
                {
                  "internalType": "string",
                  "name": "medicationName",
                  "type": "string"
                },
                {
                  "internalType": "string",
                  "name": "quantity",
                  "type": "string"
                },
                {
                  "internalType": "string",
                  "name": "dosage",
                  "type": "string"
                },
                {
                  "internalType": "bool",
                  "name": "signedbyPharmacie",
                  "type": "bool"
                }
              ],
              "internalType": "struct prescription.MedicationObj[]",
              "name": "medications",
              "type": "tuple[]"
            },
            {
              "internalType": "bool",
              "name": "signedByDoctor",
              "type": "bool"
            },
            {
              "internalType": "bool",
              "name": "signedByPatient",
              "type": "bool"
            },
            {
              "internalType": "bool",
              "name": "destroyPrescreption",
              "type": "bool"
            }
          ],
          "internalType": "struct prescription.Prescription[]",
          "name": "",
          "type": "tuple[]"
        }
      ],
      "stateMutability": "view",
      "type": "function",
      "constant": true
    },
    {
      "inputs": [
        {
          "internalType": "address",
          "name": "patient",
          "type": "address"
        },
        {
          "internalType": "uint256",
          "name": "prescriptionId",
          "type": "uint256"
        },
        {
          "internalType": "uint256",
          "name": "medicationId",
          "type": "uint256"
        }
      ],
      "name": "signMedication",
      "outputs": [],
      "stateMutability": "nonpayable",
      "type": "function"
    }
  ],
  "bytecode": "0x608060405234801561000f575f80fd5b50611c828061001d5f395ff3fe608060405234801561000f575f80fd5b5060043610610055575f3560e01c8063160e59371461005957806364148056146100755780638fa71ed2146100aa5780639eb6059b146100c6578063c9d39c46146100e2575b5f80fd5b610073600480360381019061006e91906111fa565b610112565b005b61008f600480360381019061008a9190611254565b610443565b6040516100a1969594939291906112bf565b60405180910390f35b6100c460048036038101906100bf919061131e565b6104f8565b005b6100e060048036038101906100db9190611254565b6108f3565b005b6100fc60048036038101906100f7919061136e565b610a55565b60405161010991906116d0565b60405180910390f35b5f805f8473ffffffffffffffffffffffffffffffffffffffff1673ffffffffffffffffffffffffffffffffffffffff1681526020019081526020015f2090505f818054905090505f8260018160018154018082558091505003905f5260205f209060050201905081815f018190555033816001015f6101000a81548173ffffffffffffffffffffffffffffffffffffffff021916908373ffffffffffffffffffffffffffffffffffffffff16021790555084816002015f6101000a81548173ffffffffffffffffffffffffffffffffffffffff021916908373ffffffffffffffffffffffffffffffffffffffff1602179055505f816004015f6101000a81548160ff0219169083151502179055505f8160040160016101000a81548160ff0219169083151502179055505f8160040160026101000a81548160ff0219169083151502179055505f5b845181101561038e57816003016040518060a0016040528083815260200187848151811061028b5761028a6116f0565b5b60200260200101516020015181526020018784815181106102af576102ae6116f0565b5b60200260200101516040015181526020018784815181106102d3576102d26116f0565b5b60200260200101516060015181526020015f1515815250908060018154018082558091505060019003905f5260205f2090600502015f909190919091505f820151815f0155602082015181600101908161032d9190611917565b5060408201518160020190816103439190611917565b5060608201518160030190816103599190611917565b506080820151816004015f6101000a81548160ff0219169083151502179055505050808061038690611a13565b91505061025a565b5060015f808773ffffffffffffffffffffffffffffffffffffffff1673ffffffffffffffffffffffffffffffffffffffff1681526020019081526020015f2083815481106103df576103de6116f0565b5b905f5260205f2090600502016004015f6101000a81548160ff0219169083151502179055507fbb96c47a7e0605ec5bd9cee0c55705693c45c644196cd82e83f623a6679a0eb660016040516104349190611ada565b60405180910390a15050505050565b5f602052815f5260405f20818154811061045b575f80fd5b905f5260205f2090600502015f9150915050805f015490806001015f9054906101000a900473ffffffffffffffffffffffffffffffffffffffff1690806002015f9054906101000a900473ffffffffffffffffffffffffffffffffffffffff1690806004015f9054906101000a900460ff16908060040160019054906101000a900460ff16908060040160029054906101000a900460ff16905086565b5f805f8573ffffffffffffffffffffffffffffffffffffffff1673ffffffffffffffffffffffffffffffffffffffff1681526020019081526020015f208381548110610547576105466116f0565b5b905f5260205f20906005020160030180549050905060015f808673ffffffffffffffffffffffffffffffffffffffff1673ffffffffffffffffffffffffffffffffffffffff1681526020019081526020015f2084815481106105ac576105ab6116f0565b5b905f5260205f20906005020160040160016101000a81548160ff02191690831515021790551561074a575f5b8181101561074857825f808773ffffffffffffffffffffffffffffffffffffffff1673ffffffffffffffffffffffffffffffffffffffff1681526020019081526020015f20858154811061062f5761062e6116f0565b5b905f5260205f20906005020160030182815481106106505761064f6116f0565b5b905f5260205f2090600502015f0154036107355760015f808773ffffffffffffffffffffffffffffffffffffffff1673ffffffffffffffffffffffffffffffffffffffff1681526020019081526020015f2085815481106106b4576106b36116f0565b5b905f5260205f20906005020160030182815481106106d5576106d46116f0565b5b905f5260205f2090600502016004015f6101000a81548160ff0219169083151502179055507f0cbef531210de7d3dc19c21f70c00604885aff7dd6f6ac45543dbd6c42f042f260018060405161072c929190611b76565b60405180910390a15b808061074090611a13565b9150506105d8565b505b5f5b818110156108ec575f15155f808773ffffffffffffffffffffffffffffffffffffffff1673ffffffffffffffffffffffffffffffffffffffff1681526020019081526020015f2085815481106107a5576107a46116f0565b5b905f5260205f20906005020160030182815481106107c6576107c56116f0565b5b905f5260205f2090600502016004015f9054906101000a900460ff16151503610863575f805f8773ffffffffffffffffffffffffffffffffffffffff1673ffffffffffffffffffffffffffffffffffffffff1681526020019081526020015f208581548110610838576108376116f0565b5b905f5260205f20906005020160040160026101000a81548160ff0219169083151502179055506108ec565b60015f808773ffffffffffffffffffffffffffffffffffffffff1673ffffffffffffffffffffffffffffffffffffffff1681526020019081526020015f2085815481106108b3576108b26116f0565b5b905f5260205f20906005020160040160026101000a81548160ff02191690831515021790555080806108e490611a13565b91505061074c565b5050505050565b3373ffffffffffffffffffffffffffffffffffffffff165f808473ffffffffffffffffffffffffffffffffffffffff1673ffffffffffffffffffffffffffffffffffffffff1681526020019081526020015f208281548110610958576109576116f0565b5b905f5260205f2090600502016002015f9054906101000a900473ffffffffffffffffffffffffffffffffffffffff1673ffffffffffffffffffffffffffffffffffffffff1603610a195760015f808473ffffffffffffffffffffffffffffffffffffffff1673ffffffffffffffffffffffffffffffffffffffff1681526020019081526020015f2082815481106109f2576109f16116f0565b5b905f5260205f20906005020160040160016101000a81548160ff0219169083151502179055505b7fd27b94e3c659a5408a51baa6f1b765560d92c2f55053109bc41fbae630e88ac36001604051610a499190611c20565b60405180910390a15050565b60605f805f8473ffffffffffffffffffffffffffffffffffffffff1673ffffffffffffffffffffffffffffffffffffffff1681526020019081526020015f20905080805480602002602001604051908101604052809291908181526020015f905b82821015610e18578382905f5260205f2090600502016040518060e00160405290815f8201548152602001600182015f9054906101000a900473ffffffffffffffffffffffffffffffffffffffff1673ffffffffffffffffffffffffffffffffffffffff1673ffffffffffffffffffffffffffffffffffffffff168152602001600282015f9054906101000a900473ffffffffffffffffffffffffffffffffffffffff1673ffffffffffffffffffffffffffffffffffffffff1673ffffffffffffffffffffffffffffffffffffffff16815260200160038201805480602002602001604051908101604052809291908181526020015f905b82821015610db1578382905f5260205f2090600502016040518060a00160405290815f8201548152602001600182018054610be89061174a565b80601f0160208091040260200160405190810160405280929190818152602001828054610c149061174a565b8015610c5f5780601f10610c3657610100808354040283529160200191610c5f565b820191905f5260205f20905b815481529060010190602001808311610c4257829003601f168201915b50505050508152602001600282018054610c789061174a565b80601f0160208091040260200160405190810160405280929190818152602001828054610ca49061174a565b8015610cef5780601f10610cc657610100808354040283529160200191610cef565b820191905f5260205f20905b815481529060010190602001808311610cd257829003601f168201915b50505050508152602001600382018054610d089061174a565b80601f0160208091040260200160405190810160405280929190818152602001828054610d349061174a565b8015610d7f5780601f10610d5657610100808354040283529160200191610d7f565b820191905f5260205f20905b815481529060010190602001808311610d6257829003601f168201915b50505050508152602001600482015f9054906101000a900460ff16151515158152505081526020019060010190610bae565b505050508152602001600482015f9054906101000a900460ff161515151581526020016004820160019054906101000a900460ff161515151581526020016004820160029054906101000a900460ff16151515158152505081526020019060010190610ab6565b50505050915050919050565b5f604051905090565b5f80fd5b5f80fd5b5f73ffffffffffffffffffffffffffffffffffffffff82169050919050565b5f610e5e82610e35565b9050919050565b610e6e81610e54565b8114610e78575f80fd5b50565b5f81359050610e8981610e65565b92915050565b5f80fd5b5f601f19601f8301169050919050565b7f4e487b71000000000000000000000000000000000000000000000000000000005f52604160045260245ffd5b610ed982610e93565b810181811067ffffffffffffffff82111715610ef857610ef7610ea3565b5b80604052505050565b5f610f0a610e24565b9050610f168282610ed0565b919050565b5f67ffffffffffffffff821115610f3557610f34610ea3565b5b602082029050602081019050919050565b5f80fd5b5f80fd5b5f80fd5b5f819050919050565b610f6481610f52565b8114610f6e575f80fd5b50565b5f81359050610f7f81610f5b565b92915050565b5f80fd5b5f67ffffffffffffffff821115610fa357610fa2610ea3565b5b610fac82610e93565b9050602081019050919050565b828183375f83830152505050565b5f610fd9610fd484610f89565b610f01565b905082815260208101848484011115610ff557610ff4610f85565b5b611000848285610fb9565b509392505050565b5f82601f83011261101c5761101b610e8f565b5b813561102c848260208601610fc7565b91505092915050565b5f8115159050919050565b61104981611035565b8114611053575f80fd5b50565b5f8135905061106481611040565b92915050565b5f60a0828403121561107f5761107e610f4a565b5b61108960a0610f01565b90505f61109884828501610f71565b5f83015250602082013567ffffffffffffffff8111156110bb576110ba610f4e565b5b6110c784828501611008565b602083015250604082013567ffffffffffffffff8111156110eb576110ea610f4e565b5b6110f784828501611008565b604083015250606082013567ffffffffffffffff81111561111b5761111a610f4e565b5b61112784828501611008565b606083015250608061113b84828501611056565b60808301525092915050565b5f61115961115484610f1b565b610f01565b9050808382526020820190506020840283018581111561117c5761117b610f46565b5b835b818110156111c357803567ffffffffffffffff8111156111a1576111a0610e8f565b5b8086016111ae898261106a565b8552602085019450505060208101905061117e565b5050509392505050565b5f82601f8301126111e1576111e0610e8f565b5b81356111f1848260208601611147565b91505092915050565b5f80604083850312156112105761120f610e2d565b5b5f61121d85828601610e7b565b925050602083013567ffffffffffffffff81111561123e5761123d610e31565b5b61124a858286016111cd565b9150509250929050565b5f806040838503121561126a57611269610e2d565b5b5f61127785828601610e7b565b925050602061128885828601610f71565b9150509250929050565b61129b81610f52565b82525050565b6112aa81610e54565b82525050565b6112b981611035565b82525050565b5f60c0820190506112d25f830189611292565b6112df60208301886112a1565b6112ec60408301876112a1565b6112f960608301866112b0565b61130660808301856112b0565b61131360a08301846112b0565b979650505050505050565b5f805f6060848603121561133557611334610e2d565b5b5f61134286828701610e7b565b935050602061135386828701610f71565b925050604061136486828701610f71565b9150509250925092565b5f6020828403121561138357611382610e2d565b5b5f61139084828501610e7b565b91505092915050565b5f81519050919050565b5f82825260208201905092915050565b5f819050602082019050919050565b6113cb81610f52565b82525050565b6113da81610e54565b82525050565b5f81519050919050565b5f82825260208201905092915050565b5f819050602082019050919050565b5f81519050919050565b5f82825260208201905092915050565b5f5b83811015611440578082015181840152602081019050611425565b5f8484015250505050565b5f61145582611409565b61145f8185611413565b935061146f818560208601611423565b61147881610e93565b840191505092915050565b61148c81611035565b82525050565b5f60a083015f8301516114a75f8601826113c2565b50602083015184820360208601526114bf828261144b565b915050604083015184820360408601526114d9828261144b565b915050606083015184820360608601526114f3828261144b565b91505060808301516115086080860182611483565b508091505092915050565b5f61151e8383611492565b905092915050565b5f602082019050919050565b5f61153c826113e0565b61154681856113ea565b935083602082028501611558856113fa565b805f5b8581101561159357848403895281516115748582611513565b945061157f83611526565b925060208a0199505060018101905061155b565b50829750879550505050505092915050565b5f60e083015f8301516115ba5f8601826113c2565b5060208301516115cd60208601826113d1565b5060408301516115e060408601826113d1565b50606083015184820360608601526115f88282611532565b915050608083015161160d6080860182611483565b5060a083015161162060a0860182611483565b5060c083015161163360c0860182611483565b508091505092915050565b5f61164983836115a5565b905092915050565b5f602082019050919050565b5f61166782611399565b61167181856113a3565b935083602082028501611683856113b3565b805f5b858110156116be578484038952815161169f858261163e565b94506116aa83611651565b925060208a01995050600181019050611686565b50829750879550505050505092915050565b5f6020820190508181035f8301526116e8818461165d565b905092915050565b7f4e487b71000000000000000000000000000000000000000000000000000000005f52603260045260245ffd5b7f4e487b71000000000000000000000000000000000000000000000000000000005f52602260045260245ffd5b5f600282049050600182168061176157607f821691505b6020821081036117745761177361171d565b5b50919050565b5f819050815f5260205f209050919050565b5f6020601f8301049050919050565b5f82821b905092915050565b5f600883026117d67fffffffffffffffffffffffffffffffffffffffffffffffffffffffffffffffff8261179b565b6117e0868361179b565b95508019841693508086168417925050509392505050565b5f819050919050565b5f61181b61181661181184610f52565b6117f8565b610f52565b9050919050565b5f819050919050565b61183483611801565b61184861184082611822565b8484546117a7565b825550505050565b5f90565b61185c611850565b61186781848461182b565b505050565b5b8181101561188a5761187f5f82611854565b60018101905061186d565b5050565b601f8211156118cf576118a08161177a565b6118a98461178c565b810160208510156118b8578190505b6118cc6118c48561178c565b83018261186c565b50505b505050565b5f82821c905092915050565b5f6118ef5f19846008026118d4565b1980831691505092915050565b5f61190783836118e0565b9150826002028217905092915050565b61192082611409565b67ffffffffffffffff81111561193957611938610ea3565b5b611943825461174a565b61194e82828561188e565b5f60209050601f83116001811461197f575f841561196d578287015190505b61197785826118fc565b8655506119de565b601f19841661198d8661177a565b5f5b828110156119b45784890151825560018201915060208501945060208101905061198f565b868310156119d157848901516119cd601f8916826118e0565b8355505b6001600288020188555050505b505050505050565b7f4e487b71000000000000000000000000000000000000000000000000000000005f52601160045260245ffd5b5f611a1d82610f52565b91507fffffffffffffffffffffffffffffffffffffffffffffffffffffffffffffffff8203611a4f57611a4e6119e6565b5b600182019050919050565b5f82825260208201905092915050565b7f74686520707265736372697074696f6e206973206372656174656420737563635f8201527f6566756c6c790000000000000000000000000000000000000000000000000000602082015250565b5f611ac4602683611a5a565b9150611acf82611a6a565b604082019050919050565b5f604082019050611aed5f8301846112b0565b8181036020830152611afe81611ab8565b905092915050565b7f4d656469636174696f6e206973207369676e656420737563636573736566756c5f8201527f6c79000000000000000000000000000000000000000000000000000000000000602082015250565b5f611b60602283611a5a565b9150611b6b82611b06565b604082019050919050565b5f606082019050611b895f8301856112b0565b611b9660208301846112b0565b8181036040830152611ba781611b54565b90509392505050565b7f507265736372697074696f6e206973207369676e6564207375636365737365665f8201527f756c6c792042792070617469656e740000000000000000000000000000000000602082015250565b5f611c0a602f83611a5a565b9150611c1582611bb0565b604082019050919050565b5f604082019050611c335f8301846112b0565b8181036020830152611c4481611bfe565b90509291505056fea2646970667358221220d873a36236a7a4467d7fa6ea6c11f89cc3dc151bfab3d0ba8ec4b8b7747a7f0f64736f6c63430008150033",
  "immutableReferences": {},
  "source": "// SPDX-License-Identifier: MIT\r\npragma solidity ^0.8.0;\r\ncontract prescription{\r\nstruct MedicationObj {\r\n        uint256 medicationId;\r\n        string medicationName;\r\n        string quantity;\r\n        string dosage;\r\n        bool signedbyPharmacie;\r\n    }\r\n\r\n    struct Prescription {\r\n        uint256 id;\r\n        address doctor;\r\n        address patient;\r\n        MedicationObj[] medications; \r\n        bool signedByDoctor;\r\n        bool signedByPatient;\r\n        bool destroyPrescreption ;    \r\n    }\r\n\r\n    mapping(address => Prescription[]) public prescriptions;\r\n\r\n   \r\n    event PrescriptionSigned(bytes32 prescriptionId, address signer);\r\n\r\n\r\n    event PrescriptionCreated(bool isCreated , string msg);\r\n\r\n    function createPrescription(\r\n    address patient,\r\n    MedicationObj[] memory medications\r\n) external {\r\n    Prescription[] storage patientPrescriptions = prescriptions[patient];\r\n\r\n    uint256 prescriptionId = patientPrescriptions.length; // Utilisation de la longueur du tableau comme ID\r\n\r\n    Prescription storage newPrescription = patientPrescriptions.push();\r\n\r\n    newPrescription.id = prescriptionId;\r\n    newPrescription.doctor = msg.sender;\r\n    newPrescription.patient = patient;\r\n    newPrescription.signedByDoctor = false;\r\n    newPrescription.signedByPatient = false;\r\n    newPrescription.destroyPrescreption=false;\r\n\r\n\r\n    for (uint256 i = 0; i < medications.length; i++) {\r\n        newPrescription.medications.push(MedicationObj({\r\n            medicationId: i,\r\n            medicationName: medications[i].medicationName,\r\n            quantity: medications[i].quantity,\r\n            dosage: medications[i].dosage,\r\n            signedbyPharmacie:false\r\n        }));\r\n    }\r\n     \r\n        \r\n             prescriptions[patient][prescriptionId].signedByDoctor = true;\r\n              emit  PrescriptionCreated(true, \"the prescription is created succefully\");\r\n\r\n\r\n        }\r\n        \r\n    \r\n\r\n  \r\n\r\n       \r\n\r\n  \r\n    event  prescriptionSigned(bool isSignedByPatient,string msg) ;\r\n    function signByPatient(address patient, uint256 prescriptionIndex) external  {\r\n        if(prescriptions[patient][prescriptionIndex].patient==msg.sender)\r\n        prescriptions[patient][prescriptionIndex].signedByPatient = true;\r\n        emit prescriptionSigned(true,\"Prescription is signed successefully By patient\");\r\n    \r\n    }\r\n\r\n  function getPrescriptionDetails(address patient ) external view returns (Prescription[] memory) {\r\n    Prescription[] storage patientPrescriptions = prescriptions[patient];\r\n    return patientPrescriptions;\r\n}\r\nevent prescriptionSigned(bool isSignedByPatient,bool isSignedByPhramacy,string msg);\r\n\r\n\r\n\r\n///// signed by pharmacie ///////\r\n\r\n\r\n\r\nfunction signMedication(address patient , uint256 prescriptionId, uint256 medicationId) public {\r\n       uint256 length= prescriptions[patient][prescriptionId].medications.length;\r\n        if( prescriptions[patient][prescriptionId].signedByPatient = true){\r\n              for(uint i=0; i<length; i++) {\r\n            if(prescriptions[patient][prescriptionId].medications[i].medicationId == medicationId) {\r\n                prescriptions[patient][prescriptionId].medications[i].signedbyPharmacie = true;\r\n                emit prescriptionSigned(true,true,\"Medication is signed successefully\");\r\n            }\r\n        \r\n        }\r\n        }\r\n\r\n        for(uint i=0; i<length; i++) {\r\n            if(prescriptions[patient][prescriptionId].medications[i].signedbyPharmacie == false) {\r\n                prescriptions[patient][prescriptionId].destroyPrescreption= false;\r\n                break ;\r\n            }\r\n           prescriptions[patient][prescriptionId].destroyPrescreption = true;\r\n        }\r\n        }\r\n}",
  "sourcePath": "C:\\Users\\safouane\\Desktop\\healthCare_blockChain\\contracts\\prescription.sol",
  "compiler": {
    "name": "solc",
    "version": "0.8.21+commit.d9974bed.Emscripten.clang"
  },
  "schemaVersion": "3.4.16",
  "updatedAt": "2024-05-09T19:41:17.434Z",
  "networkType": "ethereum",
  "devdoc": {
    "kind": "dev",
    "methods": {},
    "version": 1
  },
  "userdoc": {
    "kind": "user",
    "methods": {},
    "version": 1
  }
}