{
  "contractName": "Register",
  "abi": [
    {
      "anonymous": false,
      "inputs": [
        {
          "indexed": false,
          "internalType": "string",
          "name": "message",
          "type": "string"
        },
        {
          "indexed": false,
          "internalType": "bool",
          "name": "isRegistered",
          "type": "bool"
        }
      ],
      "name": "UserRegistered",
      "type": "event"
    },
    {
      "inputs": [
        {
          "internalType": "address",
          "name": "",
          "type": "address"
        }
      ],
      "name": "users",
      "outputs": [
        {
          "internalType": "string",
          "name": "name",
          "type": "string"
        },
        {
          "internalType": "address",
          "name": "userAddress",
          "type": "address"
        },
        {
          "internalType": "bytes32",
          "name": "hashedPassword",
          "type": "bytes32"
        },
        {
          "internalType": "string",
          "name": "userNature",
          "type": "string"
        },
        {
          "internalType": "string",
          "name": "IdentifierN",
          "type": "string"
        }
      ],
      "stateMutability": "view",
      "type": "function",
      "constant": true
    },
    {
      "inputs": [
        {
          "internalType": "address",
          "name": "_address",
          "type": "address"
        }
      ],
      "name": "addressExists",
      "outputs": [
        {
          "internalType": "bool",
          "name": "",
          "type": "bool"
        }
      ],
      "stateMutability": "view",
      "type": "function",
      "constant": true
    },
    {
      "inputs": [
        {
          "internalType": "address",
          "name": "ad",
          "type": "address"
        },
        {
          "internalType": "string",
          "name": "_name",
          "type": "string"
        },
        {
          "internalType": "string",
          "name": "_password",
          "type": "string"
        },
        {
          "internalType": "string",
          "name": "_IdentifierN",
          "type": "string"
        },
        {
          "internalType": "string",
          "name": "_userNature",
          "type": "string"
        }
      ],
      "name": "registerUser",
      "outputs": [],
      "stateMutability": "nonpayable",
      "type": "function"
    },
    {
      "inputs": [
        {
          "internalType": "address",
          "name": "ad",
          "type": "address"
        }
      ],
      "name": "getUsers",
      "outputs": [
        {
          "components": [
            {
              "internalType": "string",
              "name": "name",
              "type": "string"
            },
            {
              "internalType": "address",
              "name": "userAddress",
              "type": "address"
            },
            {
              "internalType": "bytes32",
              "name": "hashedPassword",
              "type": "bytes32"
            },
            {
              "internalType": "string",
              "name": "userNature",
              "type": "string"
            },
            {
              "internalType": "string",
              "name": "IdentifierN",
              "type": "string"
            }
          ],
          "internalType": "struct Register.userData",
          "name": "",
          "type": "tuple"
        }
      ],
      "stateMutability": "view",
      "type": "function",
      "constant": true
    }
  ],
  "bytecode": "0x608060405260405180606001604052806040518060400160405280600681526020017f493132336170000000000000000000000000000000000000000000000000000081525081526020016040518060400160405280600981526020017f493132333435366170000000000000000000000000000000000000000000000081525081526020016040518060400160405280600681526020017f4c323331617000000000000000000000000000000000000000000000000000008152508152505f906003620000cf9291906200027d565b5060405180606001604052806040518060400160405280600481526020017f493132330000000000000000000000000000000000000000000000000000000081525081526020016040518060400160405280600781526020017f493132333435360000000000000000000000000000000000000000000000000081525081526020016040518060400160405280600481526020017f4c3233310000000000000000000000000000000000000000000000000000000081525081525060019060036200019c9291906200027d565b5060405180606001604052806040518060400160405280600681526020017f493132337068000000000000000000000000000000000000000000000000000081525081526020016040518060400160405280600981526020017f493132333435367068000000000000000000000000000000000000000000000081525081526020016040518060400160405280600681526020017f4c323331706800000000000000000000000000000000000000000000000000008152508152506002906003620002699291906200027d565b5034801562000276575f80fd5b50620006aa565b828054828255905f5260205f20908101928215620002c8579160200282015b82811115620002c7578251829081620002b69190620005c6565b50916020019190600101906200029c565b5b509050620002d79190620002db565b5090565b5b80821115620002fe575f8181620002f4919062000302565b50600101620002dc565b5090565b5080546200031090620003c6565b5f825580601f1062000323575062000342565b601f0160209004905f5260205f209081019062000341919062000345565b5b50565b5b808211156200035e575f815f90555060010162000346565b5090565b5f81519050919050565b7f4e487b71000000000000000000000000000000000000000000000000000000005f52604160045260245ffd5b7f4e487b71000000000000000000000000000000000000000000000000000000005f52602260045260245ffd5b5f6002820490506001821680620003de57607f821691505b602082108103620003f457620003f362000399565b5b50919050565b5f819050815f5260205f209050919050565b5f6020601f8301049050919050565b5f82821b905092915050565b5f60088302620004587fffffffffffffffffffffffffffffffffffffffffffffffffffffffffffffffff826200041b565b6200046486836200041b565b95508019841693508086168417925050509392505050565b5f819050919050565b5f819050919050565b5f620004ae620004a8620004a2846200047c565b62000485565b6200047c565b9050919050565b5f819050919050565b620004c9836200048e565b620004e1620004d882620004b5565b84845462000427565b825550505050565b5f90565b620004f7620004e9565b62000504818484620004be565b505050565b5b818110156200052b576200051f5f82620004ed565b6001810190506200050a565b5050565b601f8211156200057a576200054481620003fa565b6200054f846200040c565b810160208510156200055f578190505b620005776200056e856200040c565b83018262000509565b50505b505050565b5f82821c905092915050565b5f6200059c5f19846008026200057f565b1980831691505092915050565b5f620005b683836200058b565b9150826002028217905092915050565b620005d18262000362565b67ffffffffffffffff811115620005ed57620005ec6200036c565b5b620005f98254620003c6565b620006068282856200052f565b5f60209050601f8311600181146200063c575f841562000627578287015190505b620006338582620005a9565b865550620006a2565b601f1984166200064c86620003fa565b5f5b8281101562000675578489015182556001820191506020850194506020810190506200064e565b8683101562000695578489015162000691601f8916826200058b565b8355505b6001600288020188555050505b505050505050565b611c9b80620006b85f395ff3fe608060405234801561000f575f80fd5b506004361061004a575f3560e01c8063602b386e1461004e578063999eab2b1461007e578063a50252221461009a578063a87430ba146100ca575b5f80fd5b61006860048036038101906100639190610eb7565b6100fe565b6040516100759190611014565b60405180910390f35b61009860048036038101906100939190611160565b610363565b005b6100b460048036038101906100af9190610eb7565b610996565b6040516100c19190611261565b60405180910390f35b6100e460048036038101906100df9190610eb7565b610a2d565b6040516100f59594939291906112e0565b60405180910390f35b610106610e06565b60035f8373ffffffffffffffffffffffffffffffffffffffff1673ffffffffffffffffffffffffffffffffffffffff1681526020019081526020015f206040518060a00160405290815f8201805461015d90611373565b80601f016020809104026020016040519081016040528092919081815260200182805461018990611373565b80156101d45780601f106101ab576101008083540402835291602001916101d4565b820191905f5260205f20905b8154815290600101906020018083116101b757829003601f168201915b50505050508152602001600182015f9054906101000a900473ffffffffffffffffffffffffffffffffffffffff1673ffffffffffffffffffffffffffffffffffffffff1673ffffffffffffffffffffffffffffffffffffffff1681526020016002820154815260200160038201805461024c90611373565b80601f016020809104026020016040519081016040528092919081815260200182805461027890611373565b80156102c35780601f1061029a576101008083540402835291602001916102c3565b820191905f5260205f20905b8154815290600101906020018083116102a657829003601f168201915b505050505081526020016004820180546102dc90611373565b80601f016020809104026020016040519081016040528092919081815260200182805461030890611373565b80156103535780601f1061032a57610100808354040283529160200191610353565b820191905f5260205f20905b81548152906001019060200180831161033657829003601f168201915b5050505050815250509050919050565b61036c85610996565b156103ad577fc87e27968baa99515613f020d878040ea11dd756d96c4ca4ac6993708e6789905f6040516103a091906113ed565b60405180910390a161098f565b5f836040516020016103bf9190611453565b6040516020818303038152906040528051906020012090506040516020016103e6906114b3565b604051602081830303815290604052805190602001208260405160200161040d9190611453565b60405160208183030381529060405280519060200120036105c3576001151561043584610c10565b151503610586576040518060a001604052808681526020018773ffffffffffffffffffffffffffffffffffffffff1681526020018281526020018381526020018481525060035f8873ffffffffffffffffffffffffffffffffffffffff1673ffffffffffffffffffffffffffffffffffffffff1681526020019081526020015f205f820151815f0190816104c9919061166d565b506020820151816001015f6101000a81548173ffffffffffffffffffffffffffffffffffffffff021916908373ffffffffffffffffffffffffffffffffffffffff16021790555060408201518160020155606082015181600301908161052f919061166d565b506080820151816004019081610545919061166d565b509050507fc87e27968baa99515613f020d878040ea11dd756d96c4ca4ac6993708e67899060016040516105799190611786565b60405180910390a16105be565b7fc87e27968baa99515613f020d878040ea11dd756d96c4ca4ac6993708e6789905f6040516105b59190611822565b60405180910390a15b61098d565b6040516020016105d290611898565b60405160208183030381529060405280519060200120826040516020016105f99190611453565b60405160208183030381529060405280519060200120036107a95761061d83610cb6565b1561076c576040518060a001604052808681526020018773ffffffffffffffffffffffffffffffffffffffff1681526020018281526020018381526020018481525060035f8873ffffffffffffffffffffffffffffffffffffffff1673ffffffffffffffffffffffffffffffffffffffff1681526020019081526020015f205f820151815f0190816106af919061166d565b506020820151816001015f6101000a81548173ffffffffffffffffffffffffffffffffffffffff021916908373ffffffffffffffffffffffffffffffffffffffff160217905550604082015181600201556060820151816003019081610715919061166d565b50608082015181600401908161072b919061166d565b509050507fc87e27968baa99515613f020d878040ea11dd756d96c4ca4ac6993708e678990600160405161075f91906118f6565b60405180910390a16107a4565b7fc87e27968baa99515613f020d878040ea11dd756d96c4ca4ac6993708e6789905f60405161079b9190611992565b60405180910390a15b61098c565b6040516020016107b890611a08565b60405160208183030381529060405280519060200120826040516020016107df9190611453565b604051602081830303815290604052805190602001200361098b5761080383610d5e565b15610952576040518060a001604052808681526020018773ffffffffffffffffffffffffffffffffffffffff1681526020018281526020018381526020018481525060035f8873ffffffffffffffffffffffffffffffffffffffff1673ffffffffffffffffffffffffffffffffffffffff1681526020019081526020015f205f820151815f019081610895919061166d565b506020820151816001015f6101000a81548173ffffffffffffffffffffffffffffffffffffffff021916908373ffffffffffffffffffffffffffffffffffffffff1602179055506040820151816002015560608201518160030190816108fb919061166d565b506080820151816004019081610911919061166d565b509050507fc87e27968baa99515613f020d878040ea11dd756d96c4ca4ac6993708e67899060016040516109459190611a66565b60405180910390a161098a565b7fc87e27968baa99515613f020d878040ea11dd756d96c4ca4ac6993708e6789905f6040516109819190611b02565b60405180910390a15b5b5b5b505b5050505050565b5f8073ffffffffffffffffffffffffffffffffffffffff1660035f8473ffffffffffffffffffffffffffffffffffffffff1673ffffffffffffffffffffffffffffffffffffffff1681526020019081526020015f206001015f9054906101000a900473ffffffffffffffffffffffffffffffffffffffff1673ffffffffffffffffffffffffffffffffffffffff1614159050919050565b6003602052805f5260405f205f91509050805f018054610a4c90611373565b80601f0160208091040260200160405190810160405280929190818152602001828054610a7890611373565b8015610ac35780601f10610a9a57610100808354040283529160200191610ac3565b820191905f5260205f20905b815481529060010190602001808311610aa657829003601f168201915b505050505090806001015f9054906101000a900473ffffffffffffffffffffffffffffffffffffffff1690806002015490806003018054610b0390611373565b80601f0160208091040260200160405190810160405280929190818152602001828054610b2f90611373565b8015610b7a5780601f10610b5157610100808354040283529160200191610b7a565b820191905f5260205f20905b815481529060010190602001808311610b5d57829003601f168201915b505050505090806004018054610b8f90611373565b80601f0160208091040260200160405190810160405280929190818152602001828054610bbb90611373565b8015610c065780601f10610bdd57610100808354040283529160200191610c06565b820191905f5260205f20905b815481529060010190602001808311610be957829003601f168201915b5050505050905085565b5f805f90505b5f80549050811015610cac5782604051602001610c339190611453565b604051602081830303815290604052805190602001205f8281548110610c5c57610c5b611b2e565b5b905f5260205f2001604051602001610c749190611bdb565b6040516020818303038152906040528051906020012003610c99576001915050610cb1565b8080610ca490611c1e565b915050610c16565b505f90505b919050565b5f805f90505b600180549050811015610d545782604051602001610cda9190611453565b6040516020818303038152906040528051906020012060018281548110610d0457610d03611b2e565b5b905f5260205f2001604051602001610d1c9190611bdb565b6040516020818303038152906040528051906020012003610d41576001915050610d59565b8080610d4c90611c1e565b915050610cbc565b505f90505b919050565b5f805f90505b600280549050811015610dfc5782604051602001610d829190611453565b6040516020818303038152906040528051906020012060028281548110610dac57610dab611b2e565b5b905f5260205f2001604051602001610dc49190611bdb565b6040516020818303038152906040528051906020012003610de9576001915050610e01565b8080610df490611c1e565b915050610d64565b505f90505b919050565b6040518060a00160405280606081526020015f73ffffffffffffffffffffffffffffffffffffffff1681526020015f801916815260200160608152602001606081525090565b5f604051905090565b5f80fd5b5f80fd5b5f73ffffffffffffffffffffffffffffffffffffffff82169050919050565b5f610e8682610e5d565b9050919050565b610e9681610e7c565b8114610ea0575f80fd5b50565b5f81359050610eb181610e8d565b92915050565b5f60208284031215610ecc57610ecb610e55565b5b5f610ed984828501610ea3565b91505092915050565b5f81519050919050565b5f82825260208201905092915050565b5f5b83811015610f19578082015181840152602081019050610efe565b5f8484015250505050565b5f601f19601f8301169050919050565b5f610f3e82610ee2565b610f488185610eec565b9350610f58818560208601610efc565b610f6181610f24565b840191505092915050565b610f7581610e7c565b82525050565b5f819050919050565b610f8d81610f7b565b82525050565b5f60a083015f8301518482035f860152610fad8282610f34565b9150506020830151610fc26020860182610f6c565b506040830151610fd56040860182610f84565b5060608301518482036060860152610fed8282610f34565b915050608083015184820360808601526110078282610f34565b9150508091505092915050565b5f6020820190508181035f83015261102c8184610f93565b905092915050565b5f80fd5b5f80fd5b7f4e487b71000000000000000000000000000000000000000000000000000000005f52604160045260245ffd5b61107282610f24565b810181811067ffffffffffffffff821117156110915761109061103c565b5b80604052505050565b5f6110a3610e4c565b90506110af8282611069565b919050565b5f67ffffffffffffffff8211156110ce576110cd61103c565b5b6110d782610f24565b9050602081019050919050565b828183375f83830152505050565b5f6111046110ff846110b4565b61109a565b9050828152602081018484840111156111205761111f611038565b5b61112b8482856110e4565b509392505050565b5f82601f83011261114757611146611034565b5b81356111578482602086016110f2565b91505092915050565b5f805f805f60a0868803121561117957611178610e55565b5b5f61118688828901610ea3565b955050602086013567ffffffffffffffff8111156111a7576111a6610e59565b5b6111b388828901611133565b945050604086013567ffffffffffffffff8111156111d4576111d3610e59565b5b6111e088828901611133565b935050606086013567ffffffffffffffff81111561120157611200610e59565b5b61120d88828901611133565b925050608086013567ffffffffffffffff81111561122e5761122d610e59565b5b61123a88828901611133565b9150509295509295909350565b5f8115159050919050565b61125b81611247565b82525050565b5f6020820190506112745f830184611252565b92915050565b5f82825260208201905092915050565b5f61129482610ee2565b61129e818561127a565b93506112ae818560208601610efc565b6112b781610f24565b840191505092915050565b6112cb81610e7c565b82525050565b6112da81610f7b565b82525050565b5f60a0820190508181035f8301526112f8818861128a565b905061130760208301876112c2565b61131460408301866112d1565b8181036060830152611326818561128a565b9050818103608083015261133a818461128a565b90509695505050505050565b7f4e487b71000000000000000000000000000000000000000000000000000000005f52602260045260245ffd5b5f600282049050600182168061138a57607f821691505b60208210810361139d5761139c611346565b5b50919050565b7f4164647265737320697320616c726561647920726567697374657265642100005f82015250565b5f6113d7601e8361127a565b91506113e2826113a3565b602082019050919050565b5f6040820190508181035f830152611404816113cb565b90506114136020830184611252565b92915050565b5f81905092915050565b5f61142d82610ee2565b6114378185611419565b9350611447818560208601610efc565b80840191505092915050565b5f61145e8284611423565b915081905092915050565b7f70617469656e74000000000000000000000000000000000000000000000000005f82015250565b5f61149d600783611419565b91506114a882611469565b600782019050919050565b5f6114bd82611491565b9150819050919050565b5f819050815f5260205f209050919050565b5f6020601f8301049050919050565b5f82821b905092915050565b5f600883026115237fffffffffffffffffffffffffffffffffffffffffffffffffffffffffffffffff826114e8565b61152d86836114e8565b95508019841693508086168417925050509392505050565b5f819050919050565b5f819050919050565b5f61157161156c61156784611545565b61154e565b611545565b9050919050565b5f819050919050565b61158a83611557565b61159e61159682611578565b8484546114f4565b825550505050565b5f90565b6115b26115a6565b6115bd818484611581565b505050565b5b818110156115e0576115d55f826115aa565b6001810190506115c3565b5050565b601f821115611625576115f6816114c7565b6115ff846114d9565b8101602085101561160e578190505b61162261161a856114d9565b8301826115c2565b50505b505050565b5f82821c905092915050565b5f6116455f198460080261162a565b1980831691505092915050565b5f61165d8383611636565b9150826002028217905092915050565b61167682610ee2565b67ffffffffffffffff81111561168f5761168e61103c565b5b6116998254611373565b6116a48282856115e4565b5f60209050601f8311600181146116d5575f84156116c3578287015190505b6116cd8582611652565b865550611734565b601f1984166116e3866114c7565b5f5b8281101561170a578489015182556001820191506020850194506020810190506116e5565b868310156117275784890151611723601f891682611636565b8355505b6001600288020188555050505b505050505050565b7f50617469656e742072656769737465726564207375636375737366756c6c79005f82015250565b5f611770601f8361127a565b915061177b8261173c565b602082019050919050565b5f6040820190508181035f83015261179d81611764565b90506117ac6020830184611252565b92915050565b7f5468657265206973206e6f2050617469656e742077697468207468697320496e5f8201527f73737572616e6365206e75626d65720000000000000000000000000000000000602082015250565b5f61180c602f8361127a565b9150611817826117b2565b604082019050919050565b5f6040820190508181035f83015261183981611800565b90506118486020830184611252565b92915050565b7f646f63746f7200000000000000000000000000000000000000000000000000005f82015250565b5f611882600683611419565b915061188d8261184e565b600682019050919050565b5f6118a282611876565b9150819050919050565b7f446f63746f722072656769737465726564207375636375737366756c6c7900005f82015250565b5f6118e0601e8361127a565b91506118eb826118ac565b602082019050919050565b5f6040820190508181035f83015261190d816118d4565b905061191c6020830184611252565b92915050565b7f5468657265206973206e6f20446f63746f7220776974682074686973204c69635f8201527f656e6365206e75626d6572000000000000000000000000000000000000000000602082015250565b5f61197c602b8361127a565b915061198782611922565b604082019050919050565b5f6040820190508181035f8301526119a981611970565b90506119b86020830184611252565b92915050565b7f706861726d6163790000000000000000000000000000000000000000000000005f82015250565b5f6119f2600883611419565b91506119fd826119be565b600882019050919050565b5f611a12826119e6565b9150819050919050565b7f706861726d6163792072656769737465726564207375636375737366756c6c795f82015250565b5f611a5060208361127a565b9150611a5b82611a1c565b602082019050919050565b5f6040820190508181035f830152611a7d81611a44565b9050611a8c6020830184611252565b92915050565b7f5468657265206973206e6f20706861726d6163792077697468207468697320705f8201527f6174656e7465206e75626d657200000000000000000000000000000000000000602082015250565b5f611aec602d8361127a565b9150611af782611a92565b604082019050919050565b5f6040820190508181035f830152611b1981611ae0565b9050611b286020830184611252565b92915050565b7f4e487b71000000000000000000000000000000000000000000000000000000005f52603260045260245ffd5b5f8154611b6781611373565b611b718186611419565b9450600182165f8114611b8b5760018114611ba057611bd2565b60ff1983168652811515820286019350611bd2565b611ba9856114c7565b5f5b83811015611bca57815481890152600182019150602081019050611bab565b838801955050505b50505092915050565b5f611be68284611b5b565b915081905092915050565b7f4e487b71000000000000000000000000000000000000000000000000000000005f52601160045260245ffd5b5f611c2882611545565b91507fffffffffffffffffffffffffffffffffffffffffffffffffffffffffffffffff8203611c5a57611c59611bf1565b5b60018201905091905056fea2646970667358221220cd91724490936189d0ee30536cb1aebd6af4cd2b40122f84f6c5e7c76ad6c8c164736f6c63430008150033",
  "immutableReferences": {},
  "source": "// SPDX-License-Identifier: MIT\npragma solidity ^0.8.21;\n\ncontract Register {\n\n    struct userData {\n        string name;\n        address userAddress;\n        bytes32 hashedPassword; // Utilisation de bytes32 pour stocker le hachage du mot de passe\n        string userNature;\n        string IdentifierN;\n    }\n    string[] patientNassurance=[\"I123ap\",\"I123456ap\",\"L231ap\"];\n    string[] doctorsLiscences=[\"I123\",\"I123456\",\"L231\"];\n    string[] pharmacyPatente=[\"I123ph\",\"I123456ph\",\"L231ph\"];\n\n    mapping(address => userData) public users;\n\n    event UserRegistered(string message, bool isRegistered);\n       \n     function checkDoctorLicence(string memory doctorLiscence) internal view returns (bool) {\n        for (uint i = 0; i < doctorsLiscences.length; i++) {\n        if (keccak256(abi.encodePacked(doctorsLiscences[i])) == keccak256(abi.encodePacked(doctorLiscence))) {\n            return true; \n        }\n    }\n    return false; \n}\n\n  function checkPatient(string memory patientAssurane) internal view returns (bool) {\n    for (uint i = 0; i < patientNassurance.length; i++) {\n        if (keccak256(abi.encodePacked(patientNassurance[i])) == keccak256(abi.encodePacked(patientAssurane))) {\n            return true; \n        }\n    }\n    return false; \n}\n function checkpharmacy(string memory patente) internal view returns (bool) {\n    for (uint i = 0; i <pharmacyPatente.length; i++) {\n        if (keccak256(abi.encodePacked(pharmacyPatente[i])) == keccak256(abi.encodePacked(patente))) {\n            return true; \n        }\n    }\n    return false; \n}\n \n   \nfunction addressExists(address _address) public view returns (bool) {\n        return (users[_address].userAddress != address(0));\n    }\n\n     \n    function registerUser (address ad,string memory _name, string memory _password, string memory _IdentifierN , string memory _userNature) public {\n        // Convertir le mot de passe en hachage\n     if (addressExists(ad)) {\n            emit UserRegistered(\"Address is already registered!\", false);\n            return;\n        }\n     bytes32 hashedPassword = keccak256(abi.encodePacked(_password));\n     if (keccak256(abi.encodePacked(_userNature)) == keccak256(abi.encodePacked(\"patient\"))){\n          if (checkPatient(_IdentifierN)==true ){\n             users[ad] = userData({\n            name: _name,\n            userAddress:ad,\n            hashedPassword: hashedPassword,\n            userNature:_userNature,\n            IdentifierN: _IdentifierN\n        });\n        \n        emit UserRegistered(\"Patient registered succussfully\", true);\n          }  \n          else{\n          \n            emit UserRegistered(\"There is no Patient with this Inssurance nubmer\", false);\n            \n          }\n            \n    }\n    else if(keccak256(abi.encodePacked(_userNature)) == keccak256(abi.encodePacked(\"doctor\"))){\n          if (checkDoctorLicence(_IdentifierN)){\n             users[ad] = userData({\n            name: _name,\n            userAddress:ad,\n            hashedPassword: hashedPassword,\n            userNature:_userNature,\n            IdentifierN: _IdentifierN\n        });\n        emit UserRegistered(\"Doctor registered succussfully\",true);\n          }  \n          else{\n             emit UserRegistered(\"There is no Doctor with this Licence nubmer\",false);\n            \n          }\n     }\n     else if(keccak256(abi.encodePacked(_userNature)) == keccak256(abi.encodePacked(\"pharmacy\"))){\n      \n          if (checkpharmacy(_IdentifierN)){\n             users[ad] = userData({\n            name: _name,\n            userAddress:ad,\n            hashedPassword: hashedPassword,\n            userNature:_userNature,\n            IdentifierN: _IdentifierN\n        });\n        emit UserRegistered(\"pharmacy registered succussfully\",true);\n          }  \n          else{\n             emit UserRegistered(\"There is no pharmacy with this patente nubmer\",false);\n            \n          }\n     }\n            \n    }\n    function getUsers(address ad) public view returns(userData memory) {\n        return users[ad];\n    }\n     \n}\n    \n",
  "sourcePath": "C:\\Users\\safouane\\Desktop\\healthCare_blockChain\\contracts\\register.sol",
  "compiler": {
    "name": "solc",
    "version": "0.8.21+commit.d9974bed.Emscripten.clang"
  },
  "schemaVersion": "3.4.16",
  "updatedAt": "2024-05-09T19:40:41.248Z",
  "networkType": "ethereum",
  "devdoc": {
    "kind": "dev",
    "methods": {},
    "version": 1
  },
  "userdoc": {
    "kind": "user",
    "methods": {},
    "version": 1
  }
}