{
  "contractName": "Register",
  "abi": [
    {
      "anonymous": false,
      "inputs": [
        {
          "indexed": false,
          "internalType": "string",
          "name": "message",
          "type": "string"
        },
        {
          "indexed": false,
          "internalType": "bool",
          "name": "isRegistered",
          "type": "bool"
        }
      ],
      "name": "UserRegistered",
      "type": "event"
    },
    {
      "inputs": [
        {
          "internalType": "address",
          "name": "",
          "type": "address"
        }
      ],
      "name": "users",
      "outputs": [
        {
          "internalType": "string",
          "name": "name",
          "type": "string"
        },
        {
          "internalType": "address",
          "name": "userAddress",
          "type": "address"
        },
        {
          "internalType": "bytes32",
          "name": "hashedPassword",
          "type": "bytes32"
        },
        {
          "internalType": "string",
          "name": "userNature",
          "type": "string"
        },
        {
          "internalType": "string",
          "name": "IdentifierN",
          "type": "string"
        }
      ],
      "stateMutability": "view",
      "type": "function",
      "constant": true
    },
    {
      "inputs": [
        {
          "internalType": "address",
          "name": "_address",
          "type": "address"
        }
      ],
      "name": "addressExists",
      "outputs": [
        {
          "internalType": "bool",
          "name": "",
          "type": "bool"
        }
      ],
      "stateMutability": "view",
      "type": "function",
      "constant": true
    },
    {
      "inputs": [
        {
          "internalType": "address",
          "name": "ad",
          "type": "address"
        },
        {
          "internalType": "string",
          "name": "_name",
          "type": "string"
        },
        {
          "internalType": "string",
          "name": "_password",
          "type": "string"
        },
        {
          "internalType": "string",
          "name": "_IdentifierN",
          "type": "string"
        },
        {
          "internalType": "string",
          "name": "_userNature",
          "type": "string"
        }
      ],
      "name": "registerUser",
      "outputs": [],
      "stateMutability": "nonpayable",
      "type": "function"
    },
    {
      "inputs": [
        {
          "internalType": "address",
          "name": "ad",
          "type": "address"
        }
      ],
      "name": "getUsers",
      "outputs": [
        {
          "components": [
            {
              "internalType": "string",
              "name": "name",
              "type": "string"
            },
            {
              "internalType": "address",
              "name": "userAddress",
              "type": "address"
            },
            {
              "internalType": "bytes32",
              "name": "hashedPassword",
              "type": "bytes32"
            },
            {
              "internalType": "string",
              "name": "userNature",
              "type": "string"
            },
            {
              "internalType": "string",
              "name": "IdentifierN",
              "type": "string"
            }
          ],
          "internalType": "struct Register.userData",
          "name": "",
          "type": "tuple"
        }
      ],
      "stateMutability": "view",
      "type": "function",
      "constant": true
    }
  ],
  "bytecode": "0x608060405260405180606001604052806040518060400160405280600681526020017f493132336170000000000000000000000000000000000000000000000000000081525081526020016040518060400160405280600981526020017f493132333435366170000000000000000000000000000000000000000000000081525081526020016040518060400160405280600681526020017f4c323331617000000000000000000000000000000000000000000000000000008152508152506000906003620000d09291906200027f565b5060405180606001604052806040518060400160405280600481526020017f493132330000000000000000000000000000000000000000000000000000000081525081526020016040518060400160405280600781526020017f493132333435360000000000000000000000000000000000000000000000000081525081526020016040518060400160405280600481526020017f4c3233310000000000000000000000000000000000000000000000000000000081525081525060019060036200019d9291906200027f565b5060405180606001604052806040518060400160405280600681526020017f493132337068000000000000000000000000000000000000000000000000000081525081526020016040518060400160405280600981526020017f493132333435367068000000000000000000000000000000000000000000000081525081526020016040518060400160405280600681526020017f4c3233317068000000000000000000000000000000000000000000000000000081525081525060029060036200026a9291906200027f565b503480156200027857600080fd5b5062000469565b828054828255906000526020600020908101928215620002d3579160200282015b82811115620002d2578251829080519060200190620002c1929190620002e6565b5091602001919060010190620002a0565b5b509050620002e2919062000377565b5090565b828054620002f49062000404565b90600052602060002090601f01602090048101928262000318576000855562000364565b82601f106200033357805160ff191683800117855562000364565b8280016001018555821562000364579182015b828111156200036357825182559160200191906001019062000346565b5b5090506200037391906200039f565b5090565b5b808211156200039b5760008181620003919190620003be565b5060010162000378565b5090565b5b80821115620003ba576000816000905550600101620003a0565b5090565b508054620003cc9062000404565b6000825580601f10620003e0575062000401565b601f0160209004906000526020600020908101906200040091906200039f565b5b50565b600060028204905060018216806200041d57607f821691505b602082108114156200043457620004336200043a565b5b50919050565b7f4e487b7100000000000000000000000000000000000000000000000000000000600052602260045260246000fd5b611b4680620004796000396000f3fe608060405234801561001057600080fd5b506004361061004c5760003560e01c8063602b386e14610051578063999eab2b14610081578063a50252221461009d578063a87430ba146100cd575b600080fd5b61006b60048036038101906100669190611067565b610101565b604051610078919061187c565b60405180910390f35b61009b60048036038101906100969190611090565b610370565b005b6100b760048036038101906100b29190611067565b6109fa565b6040516100c491906116b7565b60405180910390f35b6100e760048036038101906100e29190611067565b610a95565b6040516100f89594939291906116d2565b60405180910390f35b610109610eff565b600360008373ffffffffffffffffffffffffffffffffffffffff1673ffffffffffffffffffffffffffffffffffffffff1681526020019081526020016000206040518060a0016040529081600082018054610163906119e0565b80601f016020809104026020016040519081016040528092919081815260200182805461018f906119e0565b80156101dc5780601f106101b1576101008083540402835291602001916101dc565b820191906000526020600020905b8154815290600101906020018083116101bf57829003601f168201915b505050505081526020016001820160009054906101000a900473ffffffffffffffffffffffffffffffffffffffff1673ffffffffffffffffffffffffffffffffffffffff1673ffffffffffffffffffffffffffffffffffffffff16815260200160028201548152602001600382018054610255906119e0565b80601f0160208091040260200160405190810160405280929190818152602001828054610281906119e0565b80156102ce5780601f106102a3576101008083540402835291602001916102ce565b820191906000526020600020905b8154815290600101906020018083116102b157829003601f168201915b505050505081526020016004820180546102e7906119e0565b80601f0160208091040260200160405190810160405280929190818152602001828054610313906119e0565b80156103605780601f1061033557610100808354040283529160200191610360565b820191906000526020600020905b81548152906001019060200180831161034357829003601f168201915b5050505050815250509050919050565b610379856109fa565b156103bb577fc87e27968baa99515613f020d878040ea11dd756d96c4ca4ac6993708e67899060006040516103ae9190611768565b60405180910390a16109f3565b6000836040516020016103ce919061164a565b6040516020818303038152906040528051906020012090506040516020016103f59061168d565b604051602081830303815290604052805190602001208260405160200161041c919061164a565b6040516020818303038152906040528051906020012014156105ef576001151561044584610c83565b151514156105b1576040518060a001604052808681526020018773ffffffffffffffffffffffffffffffffffffffff16815260200182815260200183815260200184815250600360008873ffffffffffffffffffffffffffffffffffffffff1673ffffffffffffffffffffffffffffffffffffffff16815260200190815260200160002060008201518160000190805190602001906104e5929190610f47565b5060208201518160010160006101000a81548173ffffffffffffffffffffffffffffffffffffffff021916908373ffffffffffffffffffffffffffffffffffffffff160217905550604082015181600201556060820151816003019080519060200190610553929190610f47565b506080820151816004019080519060200190610570929190610f47565b509050507fc87e27968baa99515613f020d878040ea11dd756d96c4ca4ac6993708e67899060016040516105a491906117c4565b60405180910390a16105ea565b7fc87e27968baa99515613f020d878040ea11dd756d96c4ca4ac6993708e67899060006040516105e1919061184e565b60405180910390a15b6109f1565b6040516020016105fe906116a2565b6040516020818303038152906040528051906020012082604051602001610625919061164a565b6040516020818303038152906040528051906020012014156107f15761064a83610d57565b156107b3576040518060a001604052808681526020018773ffffffffffffffffffffffffffffffffffffffff16815260200182815260200183815260200184815250600360008873ffffffffffffffffffffffffffffffffffffffff1673ffffffffffffffffffffffffffffffffffffffff16815260200190815260200160002060008201518160000190805190602001906106e7929190610f47565b5060208201518160010160006101000a81548173ffffffffffffffffffffffffffffffffffffffff021916908373ffffffffffffffffffffffffffffffffffffffff160217905550604082015181600201556060820151816003019080519060200190610755929190610f47565b506080820151816004019080519060200190610772929190610f47565b509050507fc87e27968baa99515613f020d878040ea11dd756d96c4ca4ac6993708e67899060016040516107a6919061173a565b60405180910390a16107ec565b7fc87e27968baa99515613f020d878040ea11dd756d96c4ca4ac6993708e67899060006040516107e39190611820565b60405180910390a15b6109f0565b60405160200161080090611678565b6040516020818303038152906040528051906020012082604051602001610827919061164a565b6040516020818303038152906040528051906020012014156109ef5761084c83610e2b565b156109b5576040518060a001604052808681526020018773ffffffffffffffffffffffffffffffffffffffff16815260200182815260200183815260200184815250600360008873ffffffffffffffffffffffffffffffffffffffff1673ffffffffffffffffffffffffffffffffffffffff16815260200190815260200160002060008201518160000190805190602001906108e9929190610f47565b5060208201518160010160006101000a81548173ffffffffffffffffffffffffffffffffffffffff021916908373ffffffffffffffffffffffffffffffffffffffff160217905550604082015181600201556060820151816003019080519060200190610957929190610f47565b506080820151816004019080519060200190610974929190610f47565b509050507fc87e27968baa99515613f020d878040ea11dd756d96c4ca4ac6993708e67899060016040516109a891906117f2565b60405180910390a16109ee565b7fc87e27968baa99515613f020d878040ea11dd756d96c4ca4ac6993708e67899060006040516109e59190611796565b60405180910390a15b5b5b5b505b5050505050565b60008073ffffffffffffffffffffffffffffffffffffffff16600360008473ffffffffffffffffffffffffffffffffffffffff1673ffffffffffffffffffffffffffffffffffffffff16815260200190815260200160002060010160009054906101000a900473ffffffffffffffffffffffffffffffffffffffff1673ffffffffffffffffffffffffffffffffffffffff1614159050919050565b6003602052806000526040600020600091509050806000018054610ab8906119e0565b80601f0160208091040260200160405190810160405280929190818152602001828054610ae4906119e0565b8015610b315780601f10610b0657610100808354040283529160200191610b31565b820191906000526020600020905b815481529060010190602001808311610b1457829003601f168201915b5050505050908060010160009054906101000a900473ffffffffffffffffffffffffffffffffffffffff1690806002015490806003018054610b72906119e0565b80601f0160208091040260200160405190810160405280929190818152602001828054610b9e906119e0565b8015610beb5780601f10610bc057610100808354040283529160200191610beb565b820191906000526020600020905b815481529060010190602001808311610bce57829003601f168201915b505050505090806004018054610c00906119e0565b80601f0160208091040260200160405190810160405280929190818152602001828054610c2c906119e0565b8015610c795780601f10610c4e57610100808354040283529160200191610c79565b820191906000526020600020905b815481529060010190602001808311610c5c57829003601f168201915b5050505050905085565b600080600090505b600080549050811015610d4c5782604051602001610ca9919061164a565b6040516020818303038152906040528051906020012060008281548110610cf9577f4e487b7100000000000000000000000000000000000000000000000000000000600052603260045260246000fd5b90600052602060002001604051602001610d139190611661565b604051602081830303815290604052805190602001201415610d39576001915050610d52565b8080610d4490611a12565b915050610c8b565b50600090505b919050565b600080600090505b600180549050811015610e205782604051602001610d7d919061164a565b6040516020818303038152906040528051906020012060018281548110610dcd577f4e487b7100000000000000000000000000000000000000000000000000000000600052603260045260246000fd5b90600052602060002001604051602001610de79190611661565b604051602081830303815290604052805190602001201415610e0d576001915050610e26565b8080610e1890611a12565b915050610d5f565b50600090505b919050565b600080600090505b600280549050811015610ef45782604051602001610e51919061164a565b6040516020818303038152906040528051906020012060028281548110610ea1577f4e487b7100000000000000000000000000000000000000000000000000000000600052603260045260246000fd5b90600052602060002001604051602001610ebb9190611661565b604051602081830303815290604052805190602001201415610ee1576001915050610efa565b8080610eec90611a12565b915050610e33565b50600090505b919050565b6040518060a0016040528060608152602001600073ffffffffffffffffffffffffffffffffffffffff1681526020016000801916815260200160608152602001606081525090565b828054610f53906119e0565b90600052602060002090601f016020900481019282610f755760008555610fbc565b82601f10610f8e57805160ff1916838001178555610fbc565b82800160010185558215610fbc579182015b82811115610fbb578251825591602001919060010190610fa0565b5b509050610fc99190610fcd565b5090565b5b80821115610fe6576000816000905550600101610fce565b5090565b6000610ffd610ff8846118cf565b61189e565b90508281526020810184848401111561101557600080fd5b61102084828561199e565b509392505050565b60008135905061103781611af9565b92915050565b600082601f83011261104e57600080fd5b813561105e848260208601610fea565b91505092915050565b60006020828403121561107957600080fd5b600061108784828501611028565b91505092915050565b600080600080600060a086880312156110a857600080fd5b60006110b688828901611028565b955050602086013567ffffffffffffffff8111156110d357600080fd5b6110df8882890161103d565b945050604086013567ffffffffffffffff8111156110fc57600080fd5b6111088882890161103d565b935050606086013567ffffffffffffffff81111561112557600080fd5b6111318882890161103d565b925050608086013567ffffffffffffffff81111561114e57600080fd5b61115a8882890161103d565b9150509295509295909350565b6111708161194c565b82525050565b61117f8161194c565b82525050565b61118e8161195e565b82525050565b61119d8161196a565b82525050565b6111ac8161196a565b82525050565b60006111bd82611914565b6111c7818561191f565b93506111d78185602086016119ad565b6111e081611ae8565b840191505092915050565b60006111f682611914565b6112008185611930565b93506112108185602086016119ad565b61121981611ae8565b840191505092915050565b600061122f82611914565b6112398185611941565b93506112498185602086016119ad565b80840191505092915050565b60008154611262816119e0565b61126c8186611941565b945060018216600081146112875760018114611298576112cb565b60ff198316865281860193506112cb565b6112a1856118ff565b60005b838110156112c3578154818901526001820191506020810190506112a4565b838801955050505b50505092915050565b60006112e1601e83611930565b91507f446f63746f722072656769737465726564207375636375737366756c6c7900006000830152602082019050919050565b6000611321601e83611930565b91507f4164647265737320697320616c726561647920726567697374657265642100006000830152602082019050919050565b6000611361602d83611930565b91507f5468657265206973206e6f20706861726d61637920776974682074686973207060008301527f6174656e7465206e75626d6572000000000000000000000000000000000000006020830152604082019050919050565b60006113c7601f83611930565b91507f50617469656e742072656769737465726564207375636375737366756c6c79006000830152602082019050919050565b6000611407602083611930565b91507f706861726d6163792072656769737465726564207375636375737366756c6c796000830152602082019050919050565b6000611447602b83611930565b91507f5468657265206973206e6f20446f63746f7220776974682074686973204c696360008301527f656e6365206e75626d65720000000000000000000000000000000000000000006020830152604082019050919050565b60006114ad600883611941565b91507f706861726d6163790000000000000000000000000000000000000000000000006000830152600882019050919050565b60006114ed602f83611930565b91507f5468657265206973206e6f2050617469656e742077697468207468697320496e60008301527f73737572616e6365206e75626d657200000000000000000000000000000000006020830152604082019050919050565b6000611553600783611941565b91507f70617469656e74000000000000000000000000000000000000000000000000006000830152600782019050919050565b6000611593600683611941565b91507f646f63746f7200000000000000000000000000000000000000000000000000006000830152600682019050919050565b600060a08301600083015184820360008601526115e382826111b2565b91505060208301516115f86020860182611167565b50604083015161160b6040860182611194565b506060830151848203606086015261162382826111b2565b9150506080830151848203608086015261163d82826111b2565b9150508091505092915050565b60006116568284611224565b915081905092915050565b600061166d8284611255565b915081905092915050565b6000611683826114a0565b9150819050919050565b600061169882611546565b9150819050919050565b60006116ad82611586565b9150819050919050565b60006020820190506116cc6000830184611185565b92915050565b600060a08201905081810360008301526116ec81886111eb565b90506116fb6020830187611176565b61170860408301866111a3565b818103606083015261171a81856111eb565b9050818103608083015261172e81846111eb565b90509695505050505050565b60006040820190508181036000830152611753816112d4565b90506117626020830184611185565b92915050565b6000604082019050818103600083015261178181611314565b90506117906020830184611185565b92915050565b600060408201905081810360008301526117af81611354565b90506117be6020830184611185565b92915050565b600060408201905081810360008301526117dd816113ba565b90506117ec6020830184611185565b92915050565b6000604082019050818103600083015261180b816113fa565b905061181a6020830184611185565b92915050565b600060408201905081810360008301526118398161143a565b90506118486020830184611185565b92915050565b60006040820190508181036000830152611867816114e0565b90506118766020830184611185565b92915050565b6000602082019050818103600083015261189681846115c6565b905092915050565b6000604051905081810181811067ffffffffffffffff821117156118c5576118c4611ab9565b5b8060405250919050565b600067ffffffffffffffff8211156118ea576118e9611ab9565b5b601f19601f8301169050602081019050919050565b60008190508160005260206000209050919050565b600081519050919050565b600082825260208201905092915050565b600082825260208201905092915050565b600081905092915050565b600061195782611974565b9050919050565b60008115159050919050565b6000819050919050565b600073ffffffffffffffffffffffffffffffffffffffff82169050919050565b6000819050919050565b82818337600083830152505050565b60005b838110156119cb5780820151818401526020810190506119b0565b838111156119da576000848401525b50505050565b600060028204905060018216806119f857607f821691505b60208210811415611a0c57611a0b611a8a565b5b50919050565b6000611a1d82611994565b91507fffffffffffffffffffffffffffffffffffffffffffffffffffffffffffffffff821415611a5057611a4f611a5b565b5b600182019050919050565b7f4e487b7100000000000000000000000000000000000000000000000000000000600052601160045260246000fd5b7f4e487b7100000000000000000000000000000000000000000000000000000000600052602260045260246000fd5b7f4e487b7100000000000000000000000000000000000000000000000000000000600052604160045260246000fd5b6000601f19601f8301169050919050565b611b028161194c565b8114611b0d57600080fd5b5056fea264697066735822122053276dda74479fe0819b8ba758a800b5dc08da951fb718665482c78c3265a78c64736f6c63430008000033",
  "immutableReferences": {},
  "source": "// SPDX-License-Identifier: MIT\npragma solidity ^0.8.0;\n\ncontract Register {\n\n    struct userData {\n        string name;\n        address userAddress;\n        bytes32 hashedPassword; // Utilisation de bytes32 pour stocker le hachage du mot de passe\n        string userNature;\n        string IdentifierN;\n    }\n    string[] patientNassurance=[\"I123ap\",\"I123456ap\",\"L231ap\"];\n    string[] doctorsLiscences=[\"I123\",\"I123456\",\"L231\"];\n    string[] pharmacyPatente=[\"I123ph\",\"I123456ph\",\"L231ph\"];\n\n    mapping(address => userData) public users;\n\n    event UserRegistered(string message, bool isRegistered);\n       \n     function checkDoctorLicence(string memory doctorLiscence) internal view returns (bool) {\n        for (uint i = 0; i < doctorsLiscences.length; i++) {\n        if (keccak256(abi.encodePacked(doctorsLiscences[i])) == keccak256(abi.encodePacked(doctorLiscence))) {\n            return true; \n        }\n    }\n    return false; \n}\n\n  function checkPatient(string memory patientAssurane) internal view returns (bool) {\n    for (uint i = 0; i < patientNassurance.length; i++) {\n        if (keccak256(abi.encodePacked(patientNassurance[i])) == keccak256(abi.encodePacked(patientAssurane))) {\n            return true; \n        }\n    }\n    return false; \n}\n function checkpharmacy(string memory patente) internal view returns (bool) {\n    for (uint i = 0; i <pharmacyPatente.length; i++) {\n        if (keccak256(abi.encodePacked(pharmacyPatente[i])) == keccak256(abi.encodePacked(patente))) {\n            return true; \n        }\n    }\n    return false; \n}\n \n   \nfunction addressExists(address _address) public view returns (bool) {\n        return (users[_address].userAddress != address(0));\n    }\n\n     \n    function registerUser (address ad,string memory _name, string memory _password, string memory _IdentifierN , string memory _userNature) public {\n        // Convertir le mot de passe en hachage\n     if (addressExists(ad)) {\n            emit UserRegistered(\"Address is already registered!\", false);\n            return;\n        }\n     bytes32 hashedPassword = keccak256(abi.encodePacked(_password));\n     if (keccak256(abi.encodePacked(_userNature)) == keccak256(abi.encodePacked(\"patient\"))){\n          if (checkPatient(_IdentifierN)==true ){\n             users[ad] = userData({\n            name: _name,\n            userAddress:ad,\n            hashedPassword: hashedPassword,\n            userNature:_userNature,\n            IdentifierN: _IdentifierN\n        });\n        \n        emit UserRegistered(\"Patient registered succussfully\", true);\n          }  \n          else{\n          \n            emit UserRegistered(\"There is no Patient with this Inssurance nubmer\", false);\n            \n          }\n            \n    }\n    else if(keccak256(abi.encodePacked(_userNature)) == keccak256(abi.encodePacked(\"doctor\"))){\n          if (checkDoctorLicence(_IdentifierN)){\n             users[ad] = userData({\n            name: _name,\n            userAddress:ad,\n            hashedPassword: hashedPassword,\n            userNature:_userNature,\n            IdentifierN: _IdentifierN\n        });\n        emit UserRegistered(\"Doctor registered succussfully\",true);\n          }  \n          else{\n             emit UserRegistered(\"There is no Doctor with this Licence nubmer\",false);\n            \n          }\n     }\n     else if(keccak256(abi.encodePacked(_userNature)) == keccak256(abi.encodePacked(\"pharmacy\"))){\n      \n          if (checkpharmacy(_IdentifierN)){\n             users[ad] = userData({\n            name: _name,\n            userAddress:ad,\n            hashedPassword: hashedPassword,\n            userNature:_userNature,\n            IdentifierN: _IdentifierN\n        });\n        emit UserRegistered(\"pharmacy registered succussfully\",true);\n          }  \n          else{\n             emit UserRegistered(\"There is no pharmacy with this patente nubmer\",false);\n            \n          }\n     }\n            \n    }\n    function getUsers(address ad) public view returns(userData memory) {\n        return users[ad];\n    }\n     \n}\n    \n",
  "sourcePath": "/home/safouane/dev/SehaBlock/contracts/register.sol",
  "compiler": {
    "name": "solc",
    "version": "0.8.0+commit.c7dfd78e.Emscripten.clang"
  },
  "schemaVersion": "3.4.16",
  "updatedAt": "2024-05-13T12:02:06.563Z",
  "networkType": "ethereum",
  "devdoc": {
    "kind": "dev",
    "methods": {},
    "version": 1
  },
  "userdoc": {
    "kind": "user",
    "methods": {},
    "version": 1
  }
}